{
  "_format": "hh-sol-artifact-1",
  "contractName": "PlayerRegistry",
  "sourceName": "contracts/PlayerRegistry.sol",
  "abi": [
    {
      "inputs": [],
      "stateMutability": "nonpayable",
      "type": "constructor"
    },
    {
      "anonymous": false,
      "inputs": [
        {
          "indexed": true,
          "internalType": "uint256",
          "name": "matchId",
          "type": "uint256"
        },
        {
          "indexed": false,
          "internalType": "uint256[]",
          "name": "playerIds",
          "type": "uint256[]"
        }
      ],
      "name": "PlayersAdded",
      "type": "event"
    },
    {
      "inputs": [
        {
          "internalType": "uint256",
          "name": "matchId",
          "type": "uint256"
        },
        {
          "components": [
            {
              "internalType": "uint256",
              "name": "id",
              "type": "uint256"
            },
            {
              "internalType": "enum PlayerRegistry.Role",
              "name": "role",
              "type": "uint8"
            },
            {
              "internalType": "uint8",
              "name": "credit",
              "type": "uint8"
            },
            {
              "internalType": "string",
              "name": "name",
              "type": "string"
            },
            {
              "internalType": "uint8",
              "name": "teamId",
              "type": "uint8"
            }
          ],
          "internalType": "struct PlayerRegistry.Player[]",
          "name": "newPlayers",
          "type": "tuple[]"
        }
      ],
      "name": "addPlayers",
      "outputs": [],
      "stateMutability": "nonpayable",
      "type": "function"
    },
    {
      "inputs": [],
      "name": "admin",
      "outputs": [
        {
          "internalType": "address",
          "name": "",
          "type": "address"
        }
      ],
      "stateMutability": "view",
      "type": "function"
    },
    {
      "inputs": [
        {
          "internalType": "uint256",
          "name": "matchId",
          "type": "uint256"
        },
        {
          "internalType": "uint256",
          "name": "playerId",
          "type": "uint256"
        }
      ],
      "name": "getPlayer",
      "outputs": [
        {
          "components": [
            {
              "internalType": "uint256",
              "name": "id",
              "type": "uint256"
            },
            {
              "internalType": "enum PlayerRegistry.Role",
              "name": "role",
              "type": "uint8"
            },
            {
              "internalType": "uint8",
              "name": "credit",
              "type": "uint8"
            },
            {
              "internalType": "string",
              "name": "name",
              "type": "string"
            },
            {
              "internalType": "uint8",
              "name": "teamId",
              "type": "uint8"
            }
          ],
          "internalType": "struct PlayerRegistry.Player",
          "name": "",
          "type": "tuple"
        }
      ],
      "stateMutability": "view",
      "type": "function"
    },
    {
      "inputs": [
        {
          "internalType": "uint256",
          "name": "matchId",
          "type": "uint256"
        }
      ],
      "name": "getPlayerIdsForMatch",
      "outputs": [
        {
          "internalType": "uint256[]",
          "name": "",
          "type": "uint256[]"
        }
      ],
      "stateMutability": "view",
      "type": "function"
    },
    {
      "inputs": [
        {
          "internalType": "uint256",
          "name": "matchId",
          "type": "uint256"
        }
      ],
      "name": "getPlayersForMatch",
      "outputs": [
        {
          "components": [
            {
              "internalType": "uint256",
              "name": "id",
              "type": "uint256"
            },
            {
              "internalType": "enum PlayerRegistry.Role",
              "name": "role",
              "type": "uint8"
            },
            {
              "internalType": "uint8",
              "name": "credit",
              "type": "uint8"
            },
            {
              "internalType": "string",
              "name": "name",
              "type": "string"
            },
            {
              "internalType": "uint8",
              "name": "teamId",
              "type": "uint8"
            }
          ],
          "internalType": "struct PlayerRegistry.Player[]",
          "name": "",
          "type": "tuple[]"
        }
      ],
      "stateMutability": "view",
      "type": "function"
    },
    {
      "inputs": [
        {
          "internalType": "uint256",
          "name": "",
          "type": "uint256"
        },
        {
          "internalType": "uint256",
          "name": "",
          "type": "uint256"
        }
      ],
      "name": "players",
      "outputs": [
        {
          "internalType": "uint256",
          "name": "id",
          "type": "uint256"
        },
        {
          "internalType": "enum PlayerRegistry.Role",
          "name": "role",
          "type": "uint8"
        },
        {
          "internalType": "uint8",
          "name": "credit",
          "type": "uint8"
        },
        {
          "internalType": "string",
          "name": "name",
          "type": "string"
        },
        {
          "internalType": "uint8",
          "name": "teamId",
          "type": "uint8"
        }
      ],
      "stateMutability": "view",
      "type": "function"
    }
  ],
  "bytecode": "0x608060405234801561001057600080fd5b50600080546001600160a01b03191633179055610f11806100326000396000f3fe608060405234801561001057600080fd5b50600436106100625760003560e01c8063388e00dd146100675780633cbf11881461007c57806351916744146100a5578063998f1b80146100c5578063eff09bd7146100e9578063f851a44014610109575b600080fd5b61007a6100753660046109fb565b610134565b005b61008f61008a366004610a7a565b610536565b60405161009c9190610b67565b60405180910390f35b6100b86100b3366004610a7a565b610790565b60405161009c9190610bc9565b6100d86100d3366004610c0d565b6107f2565b60405161009c959493929190610c2f565b6100fc6100f7366004610c0d565b6108bc565b60405161009c9190610c73565b60005461011c906001600160a01b031681565b6040516001600160a01b03909116815260200161009c565b6000546001600160a01b0316331461017f5760405162461bcd60e51b81526020600482015260096024820152682737ba1030b236b4b760b91b60448201526064015b60405180910390fd5b60005b8181101561044d573683838381811061019d5761019d610c8d565b90506020028101906101af9190610ca3565b905060036101c36040830160208401610cc3565b60038111156101d4576101d4610a93565b60ff1611156102145760405162461bcd60e51b815260206004820152600c60248201526b496e76616c696420726f6c6560a01b6044820152606401610176565b60006102266060830160408401610ce4565b60ff161180156102495750600f6102436060830160408401610ce4565b60ff1611155b61028b5760405162461bcd60e51b8152602060048201526013602482015272437265646974206d75737420626520312d313560681b6044820152606401610176565b6040518060a00160405280826000013581526020018260200160208101906102b39190610cc3565b60038111156102c4576102c4610a93565b81526020016102d96060840160408501610ce4565b60ff1681526020016102ee6060840184610d07565b8080601f01602080910402602001604051908101604052809392919081815260200183838082843760009201919091525050509082525060200161033860a0840160808501610ce4565b60ff1690526000868152600160208181526040808420863585528252909220835181559183015182820180549192909160ff19169083600381111561037f5761037f610a93565b0217905550604082015160018201805460ff9092166101000261ff0019909216919091179055606082015160028201906103b99082610df4565b50608091909101516003918201805460ff191660ff9283161790556000878152602092835260408082208535835290935291909120541661043a5760008581526002602090815260408083208054600181810183559185528385208635910181905589855260038452828520908552909252909120805460ff191690911790555b508061044581610eb4565b915050610182565b5060008167ffffffffffffffff81111561046957610469610d55565b604051908082528060200260200182016040528015610492578160200160208202803683370190505b50905060005b828110156104f7578383828181106104b2576104b2610c8d565b90506020028101906104c49190610ca3565b600001358282815181106104da576104da610c8d565b6020908102919091010152806104ef81610eb4565b915050610498565b50837f040c9a4117d83282a6450f1880244bc4aac1748509313dd1fd96095041f478b7826040516105289190610bc9565b60405180910390a250505050565b600081815260026020908152604080832080548251818502810185019093528083526060949383018282801561058b57602002820191906000526020600020905b815481526020019060010190808311610577575b505050505090506000815167ffffffffffffffff8111156105ae576105ae610d55565b60405190808252806020026020018201604052801561060657816020015b6040805160a08101825260008082526020808301829052928201819052606080830152608082015282526000199092019101816105cc5790505b50905060005b82518110156107885760016000868152602001908152602001600020600084838151811061063c5761063c610c8d565b602002602001015181526020019081526020016000206040518060a0016040529081600082015481526020016001820160009054906101000a900460ff16600381111561068b5761068b610a93565b600381111561069c5761069c610a93565b81526001820154610100900460ff1660208201526002820180546040909201916106c590610d6b565b80601f01602080910402602001604051908101604052809291908181526020018280546106f190610d6b565b801561073e5780601f106107135761010080835404028352916020019161073e565b820191906000526020600020905b81548152906001019060200180831161072157829003601f168201915b50505091835250506003919091015460ff16602090910152825183908390811061076a5761076a610c8d565b6020026020010181905250808061078090610eb4565b91505061060c565b509392505050565b6000818152600260209081526040918290208054835181840281018401909452808452606093928301828280156107e657602002820191906000526020600020905b8154815260200190600101908083116107d2575b50505050509050919050565b6001602081815260009384526040808520909152918352912080549181015460028201805460ff808416946101009094041692919061083090610d6b565b80601f016020809104026020016040519081016040528092919081815260200182805461085c90610d6b565b80156108a95780601f1061087e576101008083540402835291602001916108a9565b820191906000526020600020905b81548152906001019060200180831161088c57829003601f168201915b5050506003909301549192505060ff1685565b6040805160a08101825260008082526020820181905291810182905260608082015260808101919091526000838152600160208181526040808420868552825292839020835160a0810190945280548452918201549083019060ff16600381111561092957610929610a93565b600381111561093a5761093a610a93565b81526001820154610100900460ff16602082015260028201805460409092019161096390610d6b565b80601f016020809104026020016040519081016040528092919081815260200182805461098f90610d6b565b80156109dc5780601f106109b1576101008083540402835291602001916109dc565b820191906000526020600020905b8154815290600101906020018083116109bf57829003601f168201915b50505091835250506003919091015460ff166020909101529392505050565b600080600060408486031215610a1057600080fd5b83359250602084013567ffffffffffffffff80821115610a2f57600080fd5b818601915086601f830112610a4357600080fd5b813581811115610a5257600080fd5b8760208260051b8501011115610a6757600080fd5b6020830194508093505050509250925092565b600060208284031215610a8c57600080fd5b5035919050565b634e487b7160e01b600052602160045260246000fd5b60048110610ac757634e487b7160e01b600052602160045260246000fd5b9052565b6000815180845260005b81811015610af157602081850181015186830182015201610ad5565b506000602082860101526020601f19601f83011685010191505092915050565b8051825260006020820151610b296020850182610aa9565b5060ff6040830151166040840152606082015160a06060850152610b5060a0850182610acb565b60809384015160ff16949093019390935250919050565b6000602080830181845280855180835260408601915060408160051b870101925083870160005b82811015610bbc57603f19888603018452610baa858351610b11565b94509285019290850190600101610b8e565b5092979650505050505050565b6020808252825182820181905260009190848201906040850190845b81811015610c0157835183529284019291840191600101610be5565b50909695505050505050565b60008060408385031215610c2057600080fd5b50508035926020909101359150565b858152610c3f6020820186610aa9565b60ff8416604082015260a060608201526000610c5e60a0830185610acb565b905060ff831660808301529695505050505050565b602081526000610c866020830184610b11565b9392505050565b634e487b7160e01b600052603260045260246000fd5b60008235609e19833603018112610cb957600080fd5b9190910192915050565b600060208284031215610cd557600080fd5b813560048110610c8657600080fd5b600060208284031215610cf657600080fd5b813560ff81168114610c8657600080fd5b6000808335601e19843603018112610d1e57600080fd5b83018035915067ffffffffffffffff821115610d3957600080fd5b602001915036819003821315610d4e57600080fd5b9250929050565b634e487b7160e01b600052604160045260246000fd5b600181811c90821680610d7f57607f821691505b602082108103610d9f57634e487b7160e01b600052602260045260246000fd5b50919050565b601f821115610def57600081815260208120601f850160051c81016020861015610dcc5750805b601f850160051c820191505b81811015610deb57828155600101610dd8565b5050505b505050565b815167ffffffffffffffff811115610e0e57610e0e610d55565b610e2281610e1c8454610d6b565b84610da5565b602080601f831160018114610e575760008415610e3f5750858301515b600019600386901b1c1916600185901b178555610deb565b600085815260208120601f198616915b82811015610e8657888601518255948401946001909101908401610e67565b5085821015610ea45787850151600019600388901b60f8161c191681555b5050505050600190811b01905550565b600060018201610ed457634e487b7160e01b600052601160045260246000fd5b506001019056fea26469706673582212205a4e826218dba80f5c00bdf0340e85087fa13f6e229e9f1e25ecb8d75ae8c23164736f6c63430008140033",
  "linkReferences": {},
  "deployedLinkReferences": {}
}