{"contracts/ContestFactory.sol":{"ContestFactory":{"abi":[{"inputs":[{"internalType":"address","name":"_playerRegistry","type":"address"}],"stateMutability":"nonpayable","type":"constructor"},{"anonymous":false,"inputs":[{"indexed":true,"internalType":"address","name":"contest","type":"address"},{"indexed":false,"internalType":"uint256","name":"matchId","type":"uint256"},{"indexed":false,"internalType":"uint256","name":"entryFee","type":"uint256"},{"indexed":false,"internalType":"uint256","name":"deadline","type":"uint256"}],"name":"ContestCreated","type":"event"},{"inputs":[],"name":"admin","outputs":[{"internalType":"address","name":"","type":"address"}],"stateMutability":"view","type":"function"},{"inputs":[{"internalType":"uint256","name":"","type":"uint256"}],"name":"contests","outputs":[{"internalType":"address","name":"","type":"address"}],"stateMutability":"view","type":"function"},{"inputs":[{"internalType":"uint256","name":"matchId","type":"uint256"},{"internalType":"uint256","name":"entryFee","type":"uint256"},{"internalType":"uint256","name":"deadline","type":"uint256"},{"internalType":"uint256","name":"maxEntries","type":"uint256"},{"internalType":"uint256[]","name":"prizePercentages","type":"uint256[]"}],"name":"createContest","outputs":[{"internalType":"address","name":"","type":"address"}],"stateMutability":"nonpayable","type":"function"},{"inputs":[],"name":"getContestCount","outputs":[{"internalType":"uint256","name":"","type":"uint256"}],"stateMutability":"view","type":"function"},{"inputs":[],"name":"getContests","outputs":[{"internalType":"address[]","name":"","type":"address[]"}],"stateMutability":"view","type":"function"},{"inputs":[],"name":"playerRegistry","outputs":[{"internalType":"address","name":"","type":"address"}],"stateMutability":"view","type":"function"}],"evm":{"bytecode":{"linkReferences":{},"object":"608060405234801561001057600080fd5b5060405161302138038061302183398101604081905261002f91610062565b60008054336001600160a01b031991821617909155600180549091166001600160a01b0392909216919091179055610092565b60006020828403121561007457600080fd5b81516001600160a01b038116811461008b57600080fd5b9392505050565b612f80806100a16000396000f3fe608060405234801561001057600080fd5b50600436106100625760003560e01c80630d4addc8146100675780634c74ef9c1461009757806364c3c166146100aa5780639d7ed738146100bb578063bfaba76a146100ce578063f851a440146100e3575b600080fd5b61007a6100753660046102d5565b6100f6565b6040516001600160a01b0390911681526020015b60405180910390f35b60015461007a906001600160a01b031681565b60025460405190815260200161008e565b61007a6100c9366004610370565b61023c565b6100d6610266565b60405161008e9190610389565b60005461007a906001600160a01b031681565b600080546001600160a01b031633146101415760405162461bcd60e51b81526020600482015260096024820152682737ba1030b236b4b760b91b604482015260640160405180910390fd5b600080546001546040516001600160a01b0392831692909116908a908a908a908a908a908a90610170906102c8565b6101819897969594939291906103d6565b604051809103906000f08015801561019d573d6000803e3d6000fd5b50600280546001810182556000919091527f405787fa12a823e0f2b7631cc41b3ba8828b3321ca811111fa75cd3aa3bb5ace0180546001600160a01b0319166001600160a01b038316908117909155604080518b8152602081018b9052908101899052919250907f0e88e8c4fee89d9778b8507f3cce3a1f8d3ee7c1707b40dd29178f53aec760b99060600160405180910390a2979650505050505050565b6002818154811061024c57600080fd5b6000918252602090912001546001600160a01b0316905081565b606060028054806020026020016040519081016040528092919081815260200182805480156102be57602002820191906000526020600020905b81546001600160a01b031681526001909101906020018083116102a0575b5050505050905090565b612aff8061044c83390190565b60008060008060008060a087890312156102ee57600080fd5b86359550602087013594506040870135935060608701359250608087013567ffffffffffffffff8082111561032257600080fd5b818901915089601f83011261033657600080fd5b81358181111561034557600080fd5b8a60208260051b850101111561035a57600080fd5b6020830194508093505050509295509295509295565b60006020828403121561038257600080fd5b5035919050565b6020808252825182820181905260009190848201906040850190845b818110156103ca5783516001600160a01b0316835292840192918401916001016103a5565b50909695505050505050565b6001600160a01b0389811682528816602082015260408101879052606081018690526080810185905260a0810184905260e060c08201819052810182905260006101006001600160fb1b0384111561042d57600080fd5b8360051b80868386013792909201909101999850505050505050505056fe60806040523480156200001157600080fd5b5060405162002aff38038062002aff833981016040819052620000349162000236565b600580546001600160a01b03808a166001600160a01b031992831617909255600080549289169290911691909117905560018590556002849055600383905560048290558051620000cc5760405162461bcd60e51b815260206004820152601460248201527f4e656564207072697a6520627265616b646f776e00000000000000000000000060448201526064015b60405180910390fd5b6000805b82518110156200011b57828181518110620000ef57620000ef62000350565b6020026020010151826200010491906200037c565b915080620001128162000398565b915050620000d0565b5080606414620001785760405162461bcd60e51b815260206004820152602160248201527f5072697a652070657263656e7461676573206d7573742073756d20746f2031306044820152600360fc1b6064820152608401620000c3565b81516200018d9060069060208501906200019c565b505050505050505050620003b4565b828054828255906000526020600020908101928215620001da579160200282015b82811115620001da578251825591602001919060010190620001bd565b50620001e8929150620001ec565b5090565b5b80821115620001e85760008155600101620001ed565b80516001600160a01b03811681146200021b57600080fd5b919050565b634e487b7160e01b600052604160045260246000fd5b600080600080600080600060e0888a0312156200025257600080fd5b6200025d8862000203565b965060206200026e818a0162000203565b60408a015160608b015160808c015160a08d015160c08e0151949b50929950909750955093506001600160401b0380821115620002aa57600080fd5b818b0191508b601f830112620002bf57600080fd5b815181811115620002d457620002d462000220565b8060051b604051601f19603f83011681018181108582111715620002fc57620002fc62000220565b60405291825284820192508381018501918e8311156200031b57600080fd5b938501935b828510156200033b5784518452938501939285019262000320565b80965050505050505092959891949750929550565b634e487b7160e01b600052603260045260246000fd5b634e487b7160e01b600052601160045260246000fd5b8082018082111562000392576200039262000366565b92915050565b600060018201620003ad57620003ad62000366565b5060010190565b61273b80620003c46000396000f3fe60806040526004361061014f5760003560e01c806375f25006116100b6578063ad6057291161006f578063ad605729146103b5578063c4583240146103ca578063f23f3ba514610460578063f851a44014610476578063f8e737ef14610496578063fbf47a9a146104ab57600080fd5b806375f25006146102d957806387529f0f146102ee578063877f4e121461031f5780638869cc451461035f57806399892e471461037f578063a448bd231461039557600080fd5b80634f53b437116101085780634f53b43714610242578063682d3c401461026f5780636d763a6e146102825780637037ec6f146102a657806370740ac9146102ae578063719ce73e146102c357600080fd5b8063072ea61c1461015b578063200d2ed21461018457806329dcb0cf146101b257806335c1d349146101c857806337929920146102005780634c74ef9c1461022257600080fd5b3661015657005b600080fd5b34801561016757600080fd5b5061017160025481565b6040519081526020015b60405180910390f35b34801561019057600080fd5b506005546101a590600160a01b900460ff1681565b60405161017b91906120ff565b3480156101be57600080fd5b5061017160035481565b3480156101d457600080fd5b506101e86101e3366004612127565b6104db565b6040516001600160a01b03909116815260200161017b565b34801561020c57600080fd5b5061022061021b36600461218c565b610505565b005b34801561022e57600080fd5b506000546101e8906001600160a01b031681565b34801561024e57600080fd5b5061017161025d366004612127565b600c6020526000908152604090205481565b61022061027d3660046121f8565b610762565b34801561028e57600080fd5b50610297610b65565b60405161017b93929190612284565b610220610fc4565b3480156102ba57600080fd5b506102206111ec565b3480156102cf57600080fd5b5061017160075481565b3480156102e557600080fd5b5061022061140f565b3480156102fa57600080fd5b5061030e6103093660046122f9565b6114fc565b60405161017b959493929190612329565b34801561032b57600080fd5b5061034f61033a3660046122f9565b600a6020526000908152604090205460ff1681565b604051901515815260200161017b565b34801561036b57600080fd5b5061022061037a3660046121f8565b6115ab565b34801561038b57600080fd5b5061017160015481565b3480156103a157600080fd5b506101716103b0366004612127565b611868565b3480156103c157600080fd5b50600854610171565b3480156103d657600080fd5b506104276103e53660046122f9565b6009602052600090815260409020805460028201546003830154600484015460058501546006909501546001600160a01b039094169492939192909160ff1686565b604080516001600160a01b03909716875260208701959095529385019290925260608401526080830152151560a082015260c00161017b565b34801561046c57600080fd5b5061017160045481565b34801561048257600080fd5b506005546101e8906001600160a01b031681565b3480156104a257600080fd5b50610220611889565b3480156104b757600080fd5b5061034f6104c63660046122f9565b600b6020526000908152604090205460ff1681565b600881815481106104eb57600080fd5b6000918252602090912001546001600160a01b0316905081565b6005546001600160a01b031633146105385760405162461bcd60e51b815260040161052f90612360565b60405180910390fd5b6001600554600160a01b900460ff166003811115610558576105586120e9565b146105975760405162461bcd60e51b815260206004820152600f60248201526e135d5cdd081b1bd8dac8199a5c9cdd608a1b604482015260640161052f565b8281146105d85760405162461bcd60e51b815260206004820152600f60248201526e098cadccee8d040dad2e6dac2e8c6d608b1b604482015260640161052f565b60005b8381101561063e578282828181106105f5576105f5612383565b90506020020135600c600087878581811061061257610612612383565b905060200201358152602001908152602001600020819055508080610636906123af565b9150506105db565b5060005b6008548110156107025760006008828154811061066157610661612383565b60009182526020808320909101546001600160a01b03168083526009825260409283902060018101805485518186028101860190965280865292955090936106e9939092908301828280156106d557602002820191906000526020600020905b8154815260200190600101908083116106c1575b50505050508260020154836003015461192d565b60049091015550806106fa816123af565b915050610642565b5061070b6119ff565b6005805460ff60a01b1916600160a11b1790556040517f3adb95f13423ba99020599c9fd45e0b650f2b9599d287c615e53005d5d2afd9c906107549086908690869086906123fa565b60405180910390a150505050565b6000600554600160a01b900460ff166003811115610782576107826120e9565b1461079f5760405162461bcd60e51b815260040161052f9061242c565b60035442106107c05760405162461bcd60e51b815260040161052f90612456565b60025434101561080b5760405162461bcd60e51b8152602060048201526016602482015275496e73756666696369656e7420656e7472792066656560501b604482015260640161052f565b336000908152600a602052604090205460ff161561085c5760405162461bcd60e51b815260206004820152600e60248201526d105b1c9958591e481a9bda5b995960921b604482015260640161052f565b336000908152600b602052604090205460ff16156108b55760405162461bcd60e51b8152602060048201526016602482015275155cd9481cdd589b5a5d1519585b481a5b9cdd19585960521b604482015260640161052f565b60045415806108c75750600454600854105b6108e35760405162461bcd60e51b815260040161052f9061247f565b6108ef84848484611b23565b336000818152600b602090815260408083208054600160ff199182168117909255600a9093529083208054909216811790915560088054918201815582527ff3f7a9fe364faab93b216da50a3214154f22a0a2b415b23a84c8169e8b636ee30180546001600160a01b03191690921790915560025460078054919290916109779084906124a5565b925050819055506040518060e00160405280336001600160a01b03168152602001858580806020026020016040519081016040528093929190818152602001838360200280828437600092018290525093855250505060208083018690526040808401869052606084018390526080840183905260a090930182905233825260098152919020825181546001600160a01b0319166001600160a01b039091161781558282015180519192610a3392600185019290910190612089565b506040820151600282810191909155606083015160038301556080830151600483015560a0830151600583015560c0909201516006909101805460ff191691151591909117905554341115610b18576002546000903390610a9490346124b8565b604051600081818185875af1925050503d8060008114610ad0576040519150601f19603f3d011682016040523d82523d6000602084013e610ad5565b606091505b5050905080610b165760405162461bcd60e51b815260206004820152600d60248201526c1499599d5b990819985a5b1959609a1b604482015260640161052f565b505b336001600160a01b03167f9528eee1f5bcca87d0565a519121286282b2588750410583e52bbb0ca34b2a1785858585604051610b5794939291906124cb565b60405180910390a250505050565b606080606060088054905067ffffffffffffffff811115610b8857610b886124f2565b604051908082528060200260200182016040528015610bb1578160200160208202803683370190505b5060085490935067ffffffffffffffff811115610bd057610bd06124f2565b604051908082528060200260200182016040528015610bf9578160200160208202803683370190505b5060085490925067ffffffffffffffff811115610c1857610c186124f2565b604051908082528060200260200182016040528015610c41578160200160208202803683370190505b50905060005b600854811015610d5957600060088281548110610c6657610c66612383565b9060005260206000200160009054906101000a90046001600160a01b0316905080858381518110610c9957610c99612383565b60200260200101906001600160a01b031690816001600160a01b03168152505060096000826001600160a01b03166001600160a01b0316815260200190815260200160002060040154848381518110610cf457610cf4612383565b60200260200101818152505060096000826001600160a01b03166001600160a01b0316815260200190815260200160002060050154838381518110610d3b57610d3b612383565b60209081029190910101525080610d51816123af565b915050610c47565b5060005b600854610d6c906001906124b8565b811015610fbe576000610d808260016124a5565b90505b600854811015610fab57828281518110610d9f57610d9f612383565b6020026020010151838281518110610db957610db9612383565b60200260200101511080610e3a5750828281518110610dda57610dda612383565b6020026020010151838281518110610df457610df4612383565b6020026020010151148015610e3a5750838281518110610e1657610e16612383565b6020026020010151848281518110610e3057610e30612383565b6020026020010151115b15610f9957848181518110610e5157610e51612383565b6020026020010151858381518110610e6b57610e6b612383565b6020026020010151868481518110610e8557610e85612383565b60200260200101878481518110610e9e57610e9e612383565b6001600160a01b039384166020918202929092010152911690528351849082908110610ecc57610ecc612383565b6020026020010151848381518110610ee657610ee6612383565b6020026020010151858481518110610f0057610f00612383565b60200260200101868481518110610f1957610f19612383565b6020026020010182815250828152505050828181518110610f3c57610f3c612383565b6020026020010151838381518110610f5657610f56612383565b6020026020010151848481518110610f7057610f70612383565b60200260200101858481518110610f8957610f89612383565b6020908102919091010191909152525b80610fa3816123af565b915050610d83565b5080610fb6816123af565b915050610d5d565b50909192565b6000600554600160a01b900460ff166003811115610fe457610fe46120e9565b146110015760405162461bcd60e51b815260040161052f9061242c565b60035442106110225760405162461bcd60e51b815260040161052f90612456565b60025434101561106d5760405162461bcd60e51b8152602060048201526016602482015275496e73756666696369656e7420656e7472792066656560501b604482015260640161052f565b336000908152600b602052604090205460ff16156110bc5760405162461bcd60e51b815260206004820152600c60248201526b105b1c9958591e481c185a5960a21b604482015260640161052f565b60045415806110ce5750600454600854105b6110ea5760405162461bcd60e51b815260040161052f9061247f565b336000908152600b60205260408120805460ff19166001179055600254600780549192909161111a9084906124a5565b90915550506002543411156111bf57600254600090339061113b90346124b8565b604051600081818185875af1925050503d8060008114611177576040519150601f19603f3d011682016040523d82523d6000602084013e61117c565b606091505b50509050806111bd5760405162461bcd60e51b815260206004820152600d60248201526c1499599d5b990819985a5b1959609a1b604482015260640161052f565b505b60405133907f72648084b4c323d38fcd528bde348916de25a6642133ae1cb61b363f4cec8d7d90600090a2565b6003600554600160a01b900460ff16600381111561120c5761120c6120e9565b146112515760405162461bcd60e51b815260206004820152601560248201527410dbdb9d195cdd081b9bdd0818dbdb5c1b195d1959605a1b604482015260640161052f565b336000908152600960205260409020600581015461129b5760405162461bcd60e51b81526020600482015260076024820152664e6f2072616e6b60c81b604482015260640161052f565b600681015460ff16156112e25760405162461bcd60e51b815260206004820152600f60248201526e105b1c9958591e4818db185a5b5959608a1b604482015260640161052f565b60006112f1826005015461202d565b90506000811161133c5760405162461bcd60e51b81526020600482015260166024820152754e6f207072697a6520666f7220746869732072616e6b60501b604482015260640161052f565b60068201805460ff19166001179055604051600090339083908381818185875af1925050503d806000811461138d576040519150601f19603f3d011682016040523d82523d6000602084013e611392565b606091505b50509050806113d55760405162461bcd60e51b815260206004820152600f60248201526e151c985b9cd9995c8819985a5b1959608a1b604482015260640161052f565b60405182815233907fd8138f8a3f377c5259ca548e70e4c2de94f129f5a11036a15b69513cba2b426a9060200160405180910390a2505050565b6005546001600160a01b031633146114395760405162461bcd60e51b815260040161052f90612360565b6000600554600160a01b900460ff166003811115611459576114596120e9565b146114975760405162461bcd60e51b815260206004820152600e60248201526d105b1c9958591e481b1bd8dad95960921b604482015260640161052f565b6003544210156114df5760405162461bcd60e51b8152602060048201526013602482015272111958591b1a5b99481b9bdd081c185cdcd959606a1b604482015260640161052f565b600580546001919060ff60a01b1916600160a01b835b0217905550565b6060600080600080600060096000886001600160a01b03166001600160a01b0316815260200190815260200160002090508060010181600201548260030154836004015484600501548480548060200260200160405190810160405280929190818152602001828054801561159057602002820191906000526020600020905b81548152602001906001019080831161157c575b50505050509450955095509550955095505091939590929450565b6000600554600160a01b900460ff1660038111156115cb576115cb6120e9565b146115e85760405162461bcd60e51b815260040161052f9061242c565b60035442106116095760405162461bcd60e51b815260040161052f90612456565b336000908152600b602052604090205460ff1661165e5760405162461bcd60e51b815260206004820152601360248201527214185e48195b9d1c9e4819995948199a5c9cdd606a1b604482015260640161052f565b336000908152600a602052604090205460ff16156116af5760405162461bcd60e51b815260206004820152600e60248201526d105b1c9958591e481a9bda5b995960921b604482015260640161052f565b60045415806116c15750600454600854105b6116dd5760405162461bcd60e51b815260040161052f9061247f565b6116e984848484611b23565b336000818152600a60209081526040808320805460ff191660019081179091556008805491820181559093527ff3f7a9fe364faab93b216da50a3214154f22a0a2b415b23a84c8169e8b636ee390920180546001600160a01b03191684179055815160e0810183529283528151868202818101830190935286815283820192909188918891829190850190849080828437600092018290525093855250505060208083018690526040808401869052606084018390526080840183905260a090930182905233825260098152919020825181546001600160a01b0319166001600160a01b0390911617815582820151805191926117ee92600185019290910190612089565b506040828101516002830155606083015160038301556080830151600483015560a0830151600583015560c0909201516006909101805460ff19169115159190911790555133907f9528eee1f5bcca87d0565a519121286282b2588750410583e52bbb0ca34b2a1790610b579087908790879087906124cb565b6006818154811061187857600080fd5b600091825260209091200154905081565b6005546001600160a01b031633146118b35760405162461bcd60e51b815260040161052f90612360565b6002600554600160a01b900460ff1660038111156118d3576118d36120e9565b146119135760405162461bcd60e51b815260206004820152601060248201526f135d5cdd081cd8dbdc9948199a5c9cdd60821b604482015260640161052f565b600580546003919060ff60a01b1916600160a01b836114f5565b6000805b84518110156119f7576000600c600087848151811061195257611952612383565b602002602001015181526020019081526020016000205490508486838151811061197e5761197e612383565b60200260200101510361199d57611996816002612508565b90506119d7565b838683815181106119b0576119b0612383565b6020026020010151036119d75760026119ca826003612508565b6119d4919061251f565b90505b6119e181846124a5565b92505080806119ef906123af565b915050611931565b509392505050565b60085460015b818111611b1f576000196000805b84811015611abf57600060088281548110611a3057611a30612383565b60009182526020808320909101546001600160a01b03168083526009909152604090912060050154909150158015611a8257506001600160a01b03811660009081526009602052604090206004015483105b15611aac576001600160a01b03811660009081526009602052604090206004015491935090915082905b5080611ab7816123af565b915050611a13565b506000198214611b0a57826009600060088581548110611ae157611ae1612383565b60009182526020808320909101546001600160a01b031683528201929092526040019020600501555b50508080611b17906123af565b915050611a05565b5050565b600b8314611b6a5760405162461bcd60e51b81526020600482015260146024820152734d757374206861766520313120706c617965727360601b604482015260640161052f565b808203611bb05760405162461bcd60e51b8152602060048201526014602482015273219030b732102b219036bab9ba103234b33332b960611b604482015260640161052f565b6000806000806000806000806000805b8c811015611de75760008e8e83818110611bdc57611bdc612383565b6000805460015460405163eff09bd760e01b815260048101919091526020939093029490940135602483018190529450926001600160a01b0316915063eff09bd790604401600060405180830381865afa158015611c3e573d6000803e3d6000fd5b505050506040513d6000823e601f3d908101601f19168201604052611c669190810190612636565b90506000816040015160ff1611611cb05760405162461bcd60e51b815260206004820152600e60248201526d24b73b30b634b210383630bcb2b960911b604482015260640161052f565b8d8203611cbc5760019b505b8c8203611cc85760019a505b6040810151611cda9060ff168b6124a5565b9950600081602001516003811115611cf457611cf46120e9565b03611d0b5788611d03816126e6565b995050611d94565b600181602001516003811115611d2357611d236120e9565b03611d3a5787611d32816126e6565b985050611d94565b600281602001516003811115611d5257611d526120e9565b03611d695786611d61816126e6565b975050611d94565b600381602001516003811115611d8157611d816120e9565b03611d945785611d90816126e6565b9650505b806080015160ff16600003611db55784611dad816126e6565b955050611dd2565b806080015160ff16600103611dd25783611dce816126e6565b9450505b50508080611ddf906123af565b915050611bc0565b50888015611df25750875b611e3e5760405162461bcd60e51b815260206004820152601860248201527f4320616e64205643206d75737420626520696e207465616d0000000000000000604482015260640161052f565b6064871115611e815760405162461bcd60e51b815260206004820152600f60248201526e109d5919d95d08195e18d959591959608a1b604482015260640161052f565b60018660ff161015611eca5760405162461bcd60e51b81526020600482015260126024820152714e656564206174206c65617374203120574b60701b604482015260640161052f565b60018560ff1610158015611ee2575060088560ff1611155b611f1d5760405162461bcd60e51b815260206004820152600c60248201526b13995959080c4b4e0810905560a21b604482015260640161052f565b60018460ff1610158015611f35575060088460ff1611155b611f6f5760405162461bcd60e51b815260206004820152600b60248201526a2732b2b21018969c1020a960a91b604482015260640161052f565b60018360ff1610158015611f87575060088360ff1611155b611fc35760405162461bcd60e51b815260206004820152600d60248201526c13995959080c4b4e081093d5d3609a1b604482015260640161052f565b600a8260ff1611158015611fdb5750600a8160ff1611155b61201e5760405162461bcd60e51b81526020600482015260146024820152734d61782031302066726f6d206f6e65207465616d60601b604482015260640161052f565b50505050505050505050505050565b60065460009082111561204257506000919050565b606460066120516001856124b8565b8154811061206157612061612383565b90600052602060002001546007546120799190612508565b612083919061251f565b92915050565b8280548282559060005260206000209081019282156120c4579160200282015b828111156120c45782518255916020019190600101906120a9565b506120d09291506120d4565b5090565b5b808211156120d057600081556001016120d5565b634e487b7160e01b600052602160045260246000fd5b602081016004831061212157634e487b7160e01b600052602160045260246000fd5b91905290565b60006020828403121561213957600080fd5b5035919050565b60008083601f84011261215257600080fd5b50813567ffffffffffffffff81111561216a57600080fd5b6020830191508360208260051b850101111561218557600080fd5b9250929050565b600080600080604085870312156121a257600080fd5b843567ffffffffffffffff808211156121ba57600080fd5b6121c688838901612140565b909650945060208701359150808211156121df57600080fd5b506121ec87828801612140565b95989497509550505050565b6000806000806060858703121561220e57600080fd5b843567ffffffffffffffff81111561222557600080fd5b61223187828801612140565b90989097506020870135966040013595509350505050565b600081518084526020808501945080840160005b838110156122795781518752958201959082019060010161225d565b509495945050505050565b606080825284519082018190526000906020906080840190828801845b828110156122c65781516001600160a01b0316845292840192908401906001016122a1565b505050838103828501526122da8187612249565b91505082810360408401526122ef8185612249565b9695505050505050565b60006020828403121561230b57600080fd5b81356001600160a01b038116811461232257600080fd5b9392505050565b60a08152600061233c60a0830188612249565b90508560208301528460408301528360608301528260808301529695505050505050565b6020808252600990820152682737ba1030b236b4b760b91b604082015260600190565b634e487b7160e01b600052603260045260246000fd5b634e487b7160e01b600052601160045260246000fd5b6000600182016123c1576123c1612399565b5060010190565b81835260006001600160fb1b038311156123e157600080fd5b8260051b80836020870137939093016020019392505050565b60408152600061240e6040830186886123c8565b82810360208401526124218185876123c8565b979650505050505050565b60208082526010908201526f21b7b73a32b9ba103737ba1037b832b760811b604082015260600190565b6020808252600f908201526e111958591b1a5b99481c185cdcd959608a1b604082015260600190565b6020808252600c908201526b10dbdb9d195cdd08199d5b1b60a21b604082015260600190565b8082018082111561208357612083612399565b8181038181111561208357612083612399565b6060815260006124df6060830186886123c8565b6020830194909452506040015292915050565b634e487b7160e01b600052604160045260246000fd5b808202811582820484141761208357612083612399565b60008261253c57634e487b7160e01b600052601260045260246000fd5b500490565b60405160a0810167ffffffffffffffff81118282101715612564576125646124f2565b60405290565b604051601f8201601f1916810167ffffffffffffffff81118282101715612593576125936124f2565b604052919050565b805160ff811681146125ac57600080fd5b919050565b600082601f8301126125c257600080fd5b815167ffffffffffffffff8111156125dc576125dc6124f2565b60206125f0601f8301601f1916820161256a565b828152858284870101111561260457600080fd5b60005b83811015612622578581018301518282018401528201612607565b506000928101909101919091529392505050565b60006020828403121561264857600080fd5b815167ffffffffffffffff8082111561266057600080fd5b9083019060a0828603121561267457600080fd5b61267c612541565b8251815260208301516004811061269257600080fd5b60208201526126a36040840161259b565b60408201526060830151828111156126ba57600080fd5b6126c6878286016125b1565b6060830152506126d86080840161259b565b608082015295945050505050565b600060ff821660ff81036126fc576126fc612399565b6001019291505056fea26469706673582212200dd09b14b2c11fed02ebc41d811b68b7f083663865dbdbf6bd79fd2abb1ff04864736f6c63430008140033a2646970667358221220411ee8e294949a3af4a81f1157804f5941797822d61772ad3d0a2b82f1fab95364736f6c63430008140033","opcodes":"PUSH1 0x80 PUSH1 0x40 MSTORE CALLVALUE DUP1 ISZERO PUSH2 0x10 JUMPI PUSH1 0x0 DUP1 REVERT JUMPDEST POP PUSH1 0x40 MLOAD PUSH2 0x3021 CODESIZE SUB DUP1 PUSH2 0x3021 DUP4 CODECOPY DUP2 ADD PUSH1 0x40 DUP2 SWAP1 MSTORE PUSH2 0x2F SWAP2 PUSH2 0x62 JUMP JUMPDEST PUSH1 0x0 DUP1 SLOAD CALLER PUSH1 0x1 PUSH1 0x1 PUSH1 0xA0 SHL SUB NOT SWAP2 DUP3 AND OR SWAP1 SWAP2 SSTORE PUSH1 0x1 DUP1 SLOAD SWAP1 SWAP2 AND PUSH1 0x1 PUSH1 0x1 PUSH1 0xA0 SHL SUB SWAP3 SWAP1 SWAP3 AND SWAP2 SWAP1 SWAP2 OR SWAP1 SSTORE PUSH2 0x92 JUMP JUMPDEST PUSH1 0x0 PUSH1 0x20 DUP3 DUP5 SUB SLT ISZERO PUSH2 0x74 JUMPI PUSH1 0x0 DUP1 REVERT JUMPDEST DUP2 MLOAD PUSH1 0x1 PUSH1 0x1 PUSH1 0xA0 SHL SUB DUP2 AND DUP2 EQ PUSH2 0x8B JUMPI PUSH1 0x0 DUP1 REVERT JUMPDEST SWAP4 SWAP3 POP POP POP JUMP JUMPDEST PUSH2 0x2F80 DUP1 PUSH2 0xA1 PUSH1 0x0 CODECOPY PUSH1 0x0 RETURN INVALID PUSH1 0x80 PUSH1 0x40 MSTORE CALLVALUE DUP1 ISZERO PUSH2 0x10 JUMPI PUSH1 0x0 DUP1 REVERT JUMPDEST POP PUSH1 0x4 CALLDATASIZE LT PUSH2 0x62 JUMPI PUSH1 0x0 CALLDATALOAD PUSH1 0xE0 SHR DUP1 PUSH4 0xD4ADDC8 EQ PUSH2 0x67 JUMPI DUP1 PUSH4 0x4C74EF9C EQ PUSH2 0x97 JUMPI DUP1 PUSH4 0x64C3C166 EQ PUSH2 0xAA JUMPI DUP1 PUSH4 0x9D7ED738 EQ PUSH2 0xBB JUMPI DUP1 PUSH4 0xBFABA76A EQ PUSH2 0xCE JUMPI DUP1 PUSH4 0xF851A440 EQ PUSH2 0xE3 JUMPI JUMPDEST PUSH1 0x0 DUP1 REVERT JUMPDEST PUSH2 0x7A PUSH2 0x75 CALLDATASIZE PUSH1 0x4 PUSH2 0x2D5 JUMP JUMPDEST PUSH2 0xF6 JUMP JUMPDEST PUSH1 0x40 MLOAD PUSH1 0x1 PUSH1 0x1 PUSH1 0xA0 SHL SUB SWAP1 SWAP2 AND DUP2 MSTORE PUSH1 0x20 ADD JUMPDEST PUSH1 0x40 MLOAD DUP1 SWAP2 SUB SWAP1 RETURN JUMPDEST PUSH1 0x1 SLOAD PUSH2 0x7A SWAP1 PUSH1 0x1 PUSH1 0x1 PUSH1 0xA0 SHL SUB AND DUP2 JUMP JUMPDEST PUSH1 0x2 SLOAD PUSH1 0x40 MLOAD SWAP1 DUP2 MSTORE PUSH1 0x20 ADD PUSH2 0x8E JUMP JUMPDEST PUSH2 0x7A PUSH2 0xC9 CALLDATASIZE PUSH1 0x4 PUSH2 0x370 JUMP JUMPDEST PUSH2 0x23C JUMP JUMPDEST PUSH2 0xD6 PUSH2 0x266 JUMP JUMPDEST PUSH1 0x40 MLOAD PUSH2 0x8E SWAP2 SWAP1 PUSH2 0x389 JUMP JUMPDEST PUSH1 0x0 SLOAD PUSH2 0x7A SWAP1 PUSH1 0x1 PUSH1 0x1 PUSH1 0xA0 SHL SUB AND DUP2 JUMP JUMPDEST PUSH1 0x0 DUP1 SLOAD PUSH1 0x1 PUSH1 0x1 PUSH1 0xA0 SHL SUB AND CALLER EQ PUSH2 0x141 JUMPI PUSH1 0x40 MLOAD PUSH3 0x461BCD PUSH1 0xE5 SHL DUP2 MSTORE PUSH1 0x20 PUSH1 0x4 DUP3 ADD MSTORE PUSH1 0x9 PUSH1 0x24 DUP3 ADD MSTORE PUSH9 0x2737BA1030B236B4B7 PUSH1 0xB9 SHL PUSH1 0x44 DUP3 ADD MSTORE PUSH1 0x64 ADD PUSH1 0x40 MLOAD DUP1 SWAP2 SUB SWAP1 REVERT JUMPDEST PUSH1 0x0 DUP1 SLOAD PUSH1 0x1 SLOAD PUSH1 0x40 MLOAD PUSH1 0x1 PUSH1 0x1 PUSH1 0xA0 SHL SUB SWAP3 DUP4 AND SWAP3 SWAP1 SWAP2 AND SWAP1 DUP11 SWAP1 DUP11 SWAP1 DUP11 SWAP1 DUP11 SWAP1 DUP11 SWAP1 DUP11 SWAP1 PUSH2 0x170 SWAP1 PUSH2 0x2C8 JUMP JUMPDEST PUSH2 0x181 SWAP9 SWAP8 SWAP7 SWAP6 SWAP5 SWAP4 SWAP3 SWAP2 SWAP1 PUSH2 0x3D6 JUMP JUMPDEST PUSH1 0x40 MLOAD DUP1 SWAP2 SUB SWAP1 PUSH1 0x0 CREATE DUP1 ISZERO DUP1 ISZERO PUSH2 0x19D JUMPI RETURNDATASIZE PUSH1 0x0 DUP1 RETURNDATACOPY RETURNDATASIZE PUSH1 0x0 REVERT JUMPDEST POP PUSH1 0x2 DUP1 SLOAD PUSH1 0x1 DUP2 ADD DUP3 SSTORE PUSH1 0x0 SWAP2 SWAP1 SWAP2 MSTORE PUSH32 0x405787FA12A823E0F2B7631CC41B3BA8828B3321CA811111FA75CD3AA3BB5ACE ADD DUP1 SLOAD PUSH1 0x1 PUSH1 0x1 PUSH1 0xA0 SHL SUB NOT AND PUSH1 0x1 PUSH1 0x1 PUSH1 0xA0 SHL SUB DUP4 AND SWAP1 DUP2 OR SWAP1 SWAP2 SSTORE PUSH1 0x40 DUP1 MLOAD DUP12 DUP2 MSTORE PUSH1 0x20 DUP2 ADD DUP12 SWAP1 MSTORE SWAP1 DUP2 ADD DUP10 SWAP1 MSTORE SWAP2 SWAP3 POP SWAP1 PUSH32 0xE88E8C4FEE89D9778B8507F3CCE3A1F8D3EE7C1707B40DD29178F53AEC760B9 SWAP1 PUSH1 0x60 ADD PUSH1 0x40 MLOAD DUP1 SWAP2 SUB SWAP1 LOG2 SWAP8 SWAP7 POP POP POP POP POP POP POP JUMP JUMPDEST PUSH1 0x2 DUP2 DUP2 SLOAD DUP2 LT PUSH2 0x24C JUMPI PUSH1 0x0 DUP1 REVERT JUMPDEST PUSH1 0x0 SWAP2 DUP3 MSTORE PUSH1 0x20 SWAP1 SWAP2 KECCAK256 ADD SLOAD PUSH1 0x1 PUSH1 0x1 PUSH1 0xA0 SHL SUB AND SWAP1 POP DUP2 JUMP JUMPDEST PUSH1 0x60 PUSH1 0x2 DUP1 SLOAD DUP1 PUSH1 0x20 MUL PUSH1 0x20 ADD PUSH1 0x40 MLOAD SWAP1 DUP2 ADD PUSH1 0x40 MSTORE DUP1 SWAP3 SWAP2 SWAP1 DUP2 DUP2 MSTORE PUSH1 0x20 ADD DUP3 DUP1 SLOAD DUP1 ISZERO PUSH2 0x2BE JUMPI PUSH1 0x20 MUL DUP3 ADD SWAP2 SWAP1 PUSH1 0x0 MSTORE PUSH1 0x20 PUSH1 0x0 KECCAK256 SWAP1 JUMPDEST DUP2 SLOAD PUSH1 0x1 PUSH1 0x1 PUSH1 0xA0 SHL SUB AND DUP2 MSTORE PUSH1 0x1 SWAP1 SWAP2 ADD SWAP1 PUSH1 0x20 ADD DUP1 DUP4 GT PUSH2 0x2A0 JUMPI JUMPDEST POP POP POP POP POP SWAP1 POP SWAP1 JUMP JUMPDEST PUSH2 0x2AFF DUP1 PUSH2 0x44C DUP4 CODECOPY ADD SWAP1 JUMP JUMPDEST PUSH1 0x0 DUP1 PUSH1 0x0 DUP1 PUSH1 0x0 DUP1 PUSH1 0xA0 DUP8 DUP10 SUB SLT ISZERO PUSH2 0x2EE JUMPI PUSH1 0x0 DUP1 REVERT JUMPDEST DUP7 CALLDATALOAD SWAP6 POP PUSH1 0x20 DUP8 ADD CALLDATALOAD SWAP5 POP PUSH1 0x40 DUP8 ADD CALLDATALOAD SWAP4 POP PUSH1 0x60 DUP8 ADD CALLDATALOAD SWAP3 POP PUSH1 0x80 DUP8 ADD CALLDATALOAD PUSH8 0xFFFFFFFFFFFFFFFF DUP1 DUP3 GT ISZERO PUSH2 0x322 JUMPI PUSH1 0x0 DUP1 REVERT JUMPDEST DUP2 DUP10 ADD SWAP2 POP DUP10 PUSH1 0x1F DUP4 ADD SLT PUSH2 0x336 JUMPI PUSH1 0x0 DUP1 REVERT JUMPDEST DUP2 CALLDATALOAD DUP2 DUP2 GT ISZERO PUSH2 0x345 JUMPI PUSH1 0x0 DUP1 REVERT JUMPDEST DUP11 PUSH1 0x20 DUP3 PUSH1 0x5 SHL DUP6 ADD ADD GT ISZERO PUSH2 0x35A JUMPI PUSH1 0x0 DUP1 REVERT JUMPDEST PUSH1 0x20 DUP4 ADD SWAP5 POP DUP1 SWAP4 POP POP POP POP SWAP3 SWAP6 POP SWAP3 SWAP6 POP SWAP3 SWAP6 JUMP JUMPDEST PUSH1 0x0 PUSH1 0x20 DUP3 DUP5 SUB SLT ISZERO PUSH2 0x382 JUMPI PUSH1 0x0 DUP1 REVERT JUMPDEST POP CALLDATALOAD SWAP2 SWAP1 POP JUMP JUMPDEST PUSH1 0x20 DUP1 DUP3 MSTORE DUP3 MLOAD DUP3 DUP3 ADD DUP2 SWAP1 MSTORE PUSH1 0x0 SWAP2 SWAP1 DUP5 DUP3 ADD SWAP1 PUSH1 0x40 DUP6 ADD SWAP1 DUP5 JUMPDEST DUP2 DUP2 LT ISZERO PUSH2 0x3CA JUMPI DUP4 MLOAD PUSH1 0x1 PUSH1 0x1 PUSH1 0xA0 SHL SUB AND DUP4 MSTORE SWAP3 DUP5 ADD SWAP3 SWAP2 DUP5 ADD SWAP2 PUSH1 0x1 ADD PUSH2 0x3A5 JUMP JUMPDEST POP SWAP1 SWAP7 SWAP6 POP POP POP POP POP POP JUMP JUMPDEST PUSH1 0x1 PUSH1 0x1 PUSH1 0xA0 SHL SUB DUP10 DUP2 AND DUP3 MSTORE DUP9 AND PUSH1 0x20 DUP3 ADD MSTORE PUSH1 0x40 DUP2 ADD DUP8 SWAP1 MSTORE PUSH1 0x60 DUP2 ADD DUP7 SWAP1 MSTORE PUSH1 0x80 DUP2 ADD DUP6 SWAP1 MSTORE PUSH1 0xA0 DUP2 ADD DUP5 SWAP1 MSTORE PUSH1 0xE0 PUSH1 0xC0 DUP3 ADD DUP2 SWAP1 MSTORE DUP2 ADD DUP3 SWAP1 MSTORE PUSH1 0x0 PUSH2 0x100 PUSH1 0x1 PUSH1 0x1 PUSH1 0xFB SHL SUB DUP5 GT ISZERO PUSH2 0x42D JUMPI PUSH1 0x0 DUP1 REVERT JUMPDEST DUP4 PUSH1 0x5 SHL DUP1 DUP7 DUP4 DUP7 ADD CALLDATACOPY SWAP3 SWAP1 SWAP3 ADD SWAP1 SWAP2 ADD SWAP10 SWAP9 POP POP POP POP POP POP POP POP POP JUMP INVALID PUSH1 0x80 PUSH1 0x40 MSTORE CALLVALUE DUP1 ISZERO PUSH3 0x11 JUMPI PUSH1 0x0 DUP1 REVERT JUMPDEST POP PUSH1 0x40 MLOAD PUSH3 0x2AFF CODESIZE SUB DUP1 PUSH3 0x2AFF DUP4 CODECOPY DUP2 ADD PUSH1 0x40 DUP2 SWAP1 MSTORE PUSH3 0x34 SWAP2 PUSH3 0x236 JUMP JUMPDEST PUSH1 0x5 DUP1 SLOAD PUSH1 0x1 PUSH1 0x1 PUSH1 0xA0 SHL SUB DUP1 DUP11 AND PUSH1 0x1 PUSH1 0x1 PUSH1 0xA0 SHL SUB NOT SWAP3 DUP4 AND OR SWAP1 SWAP3 SSTORE PUSH1 0x0 DUP1 SLOAD SWAP3 DUP10 AND SWAP3 SWAP1 SWAP2 AND SWAP2 SWAP1 SWAP2 OR SWAP1 SSTORE PUSH1 0x1 DUP6 SWAP1 SSTORE PUSH1 0x2 DUP5 SWAP1 SSTORE PUSH1 0x3 DUP4 SWAP1 SSTORE PUSH1 0x4 DUP3 SWAP1 SSTORE DUP1 MLOAD PUSH3 0xCC JUMPI PUSH1 0x40 MLOAD PUSH3 0x461BCD PUSH1 0xE5 SHL DUP2 MSTORE PUSH1 0x20 PUSH1 0x4 DUP3 ADD MSTORE PUSH1 0x14 PUSH1 0x24 DUP3 ADD MSTORE PUSH32 0x4E656564207072697A6520627265616B646F776E000000000000000000000000 PUSH1 0x44 DUP3 ADD MSTORE PUSH1 0x64 ADD JUMPDEST PUSH1 0x40 MLOAD DUP1 SWAP2 SUB SWAP1 REVERT JUMPDEST PUSH1 0x0 DUP1 JUMPDEST DUP3 MLOAD DUP2 LT ISZERO PUSH3 0x11B JUMPI DUP3 DUP2 DUP2 MLOAD DUP2 LT PUSH3 0xEF JUMPI PUSH3 0xEF PUSH3 0x350 JUMP JUMPDEST PUSH1 0x20 MUL PUSH1 0x20 ADD ADD MLOAD DUP3 PUSH3 0x104 SWAP2 SWAP1 PUSH3 0x37C JUMP JUMPDEST SWAP2 POP DUP1 PUSH3 0x112 DUP2 PUSH3 0x398 JUMP JUMPDEST SWAP2 POP POP PUSH3 0xD0 JUMP JUMPDEST POP DUP1 PUSH1 0x64 EQ PUSH3 0x178 JUMPI PUSH1 0x40 MLOAD PUSH3 0x461BCD PUSH1 0xE5 SHL DUP2 MSTORE PUSH1 0x20 PUSH1 0x4 DUP3 ADD MSTORE PUSH1 0x21 PUSH1 0x24 DUP3 ADD MSTORE PUSH32 0x5072697A652070657263656E7461676573206D7573742073756D20746F203130 PUSH1 0x44 DUP3 ADD MSTORE PUSH1 0x3 PUSH1 0xFC SHL PUSH1 0x64 DUP3 ADD MSTORE PUSH1 0x84 ADD PUSH3 0xC3 JUMP JUMPDEST DUP2 MLOAD PUSH3 0x18D SWAP1 PUSH1 0x6 SWAP1 PUSH1 0x20 DUP6 ADD SWAP1 PUSH3 0x19C JUMP JUMPDEST POP POP POP POP POP POP POP POP POP PUSH3 0x3B4 JUMP JUMPDEST DUP3 DUP1 SLOAD DUP3 DUP3 SSTORE SWAP1 PUSH1 0x0 MSTORE PUSH1 0x20 PUSH1 0x0 KECCAK256 SWAP1 DUP2 ADD SWAP3 DUP3 ISZERO PUSH3 0x1DA JUMPI SWAP2 PUSH1 0x20 MUL DUP3 ADD JUMPDEST DUP3 DUP2 GT ISZERO PUSH3 0x1DA JUMPI DUP3 MLOAD DUP3 SSTORE SWAP2 PUSH1 0x20 ADD SWAP2 SWAP1 PUSH1 0x1 ADD SWAP1 PUSH3 0x1BD JUMP JUMPDEST POP PUSH3 0x1E8 SWAP3 SWAP2 POP PUSH3 0x1EC JUMP JUMPDEST POP SWAP1 JUMP JUMPDEST JUMPDEST DUP1 DUP3 GT ISZERO PUSH3 0x1E8 JUMPI PUSH1 0x0 DUP2 SSTORE PUSH1 0x1 ADD PUSH3 0x1ED JUMP JUMPDEST DUP1 MLOAD PUSH1 0x1 PUSH1 0x1 PUSH1 0xA0 SHL SUB DUP2 AND DUP2 EQ PUSH3 0x21B JUMPI PUSH1 0x0 DUP1 REVERT JUMPDEST SWAP2 SWAP1 POP JUMP JUMPDEST PUSH4 0x4E487B71 PUSH1 0xE0 SHL PUSH1 0x0 MSTORE PUSH1 0x41 PUSH1 0x4 MSTORE PUSH1 0x24 PUSH1 0x0 REVERT JUMPDEST PUSH1 0x0 DUP1 PUSH1 0x0 DUP1 PUSH1 0x0 DUP1 PUSH1 0x0 PUSH1 0xE0 DUP9 DUP11 SUB SLT ISZERO PUSH3 0x252 JUMPI PUSH1 0x0 DUP1 REVERT JUMPDEST PUSH3 0x25D DUP9 PUSH3 0x203 JUMP JUMPDEST SWAP7 POP PUSH1 0x20 PUSH3 0x26E DUP2 DUP11 ADD PUSH3 0x203 JUMP JUMPDEST PUSH1 0x40 DUP11 ADD MLOAD PUSH1 0x60 DUP12 ADD MLOAD PUSH1 0x80 DUP13 ADD MLOAD PUSH1 0xA0 DUP14 ADD MLOAD PUSH1 0xC0 DUP15 ADD MLOAD SWAP5 SWAP12 POP SWAP3 SWAP10 POP SWAP1 SWAP8 POP SWAP6 POP SWAP4 POP PUSH1 0x1 PUSH1 0x1 PUSH1 0x40 SHL SUB DUP1 DUP3 GT ISZERO PUSH3 0x2AA JUMPI PUSH1 0x0 DUP1 REVERT JUMPDEST DUP2 DUP12 ADD SWAP2 POP DUP12 PUSH1 0x1F DUP4 ADD SLT PUSH3 0x2BF JUMPI PUSH1 0x0 DUP1 REVERT JUMPDEST DUP2 MLOAD DUP2 DUP2 GT ISZERO PUSH3 0x2D4 JUMPI PUSH3 0x2D4 PUSH3 0x220 JUMP JUMPDEST DUP1 PUSH1 0x5 SHL PUSH1 0x40 MLOAD PUSH1 0x1F NOT PUSH1 0x3F DUP4 ADD AND DUP2 ADD DUP2 DUP2 LT DUP6 DUP3 GT OR ISZERO PUSH3 0x2FC JUMPI PUSH3 0x2FC PUSH3 0x220 JUMP JUMPDEST PUSH1 0x40 MSTORE SWAP2 DUP3 MSTORE DUP5 DUP3 ADD SWAP3 POP DUP4 DUP2 ADD DUP6 ADD SWAP2 DUP15 DUP4 GT ISZERO PUSH3 0x31B JUMPI PUSH1 0x0 DUP1 REVERT JUMPDEST SWAP4 DUP6 ADD SWAP4 JUMPDEST DUP3 DUP6 LT ISZERO PUSH3 0x33B JUMPI DUP5 MLOAD DUP5 MSTORE SWAP4 DUP6 ADD SWAP4 SWAP3 DUP6 ADD SWAP3 PUSH3 0x320 JUMP JUMPDEST DUP1 SWAP7 POP POP POP POP POP POP POP SWAP3 SWAP6 SWAP9 SWAP2 SWAP5 SWAP8 POP SWAP3 SWAP6 POP JUMP JUMPDEST PUSH4 0x4E487B71 PUSH1 0xE0 SHL PUSH1 0x0 MSTORE PUSH1 0x32 PUSH1 0x4 MSTORE PUSH1 0x24 PUSH1 0x0 REVERT JUMPDEST PUSH4 0x4E487B71 PUSH1 0xE0 SHL PUSH1 0x0 MSTORE PUSH1 0x11 PUSH1 0x4 MSTORE PUSH1 0x24 PUSH1 0x0 REVERT JUMPDEST DUP1 DUP3 ADD DUP1 DUP3 GT ISZERO PUSH3 0x392 JUMPI PUSH3 0x392 PUSH3 0x366 JUMP JUMPDEST SWAP3 SWAP2 POP POP JUMP JUMPDEST PUSH1 0x0 PUSH1 0x1 DUP3 ADD PUSH3 0x3AD JUMPI PUSH3 0x3AD PUSH3 0x366 JUMP JUMPDEST POP PUSH1 0x1 ADD SWAP1 JUMP JUMPDEST PUSH2 0x273B DUP1 PUSH3 0x3C4 PUSH1 0x0 CODECOPY PUSH1 0x0 RETURN INVALID PUSH1 0x80 PUSH1 0x40 MSTORE PUSH1 0x4 CALLDATASIZE LT PUSH2 0x14F JUMPI PUSH1 0x0 CALLDATALOAD PUSH1 0xE0 SHR DUP1 PUSH4 0x75F25006 GT PUSH2 0xB6 JUMPI DUP1 PUSH4 0xAD605729 GT PUSH2 0x6F JUMPI DUP1 PUSH4 0xAD605729 EQ PUSH2 0x3B5 JUMPI DUP1 PUSH4 0xC4583240 EQ PUSH2 0x3CA JUMPI DUP1 PUSH4 0xF23F3BA5 EQ PUSH2 0x460 JUMPI DUP1 PUSH4 0xF851A440 EQ PUSH2 0x476 JUMPI DUP1 PUSH4 0xF8E737EF EQ PUSH2 0x496 JUMPI DUP1 PUSH4 0xFBF47A9A EQ PUSH2 0x4AB JUMPI PUSH1 0x0 DUP1 REVERT JUMPDEST DUP1 PUSH4 0x75F25006 EQ PUSH2 0x2D9 JUMPI DUP1 PUSH4 0x87529F0F EQ PUSH2 0x2EE JUMPI DUP1 PUSH4 0x877F4E12 EQ PUSH2 0x31F JUMPI DUP1 PUSH4 0x8869CC45 EQ PUSH2 0x35F JUMPI DUP1 PUSH4 0x99892E47 EQ PUSH2 0x37F JUMPI DUP1 PUSH4 0xA448BD23 EQ PUSH2 0x395 JUMPI PUSH1 0x0 DUP1 REVERT JUMPDEST DUP1 PUSH4 0x4F53B437 GT PUSH2 0x108 JUMPI DUP1 PUSH4 0x4F53B437 EQ PUSH2 0x242 JUMPI DUP1 PUSH4 0x682D3C40 EQ PUSH2 0x26F JUMPI DUP1 PUSH4 0x6D763A6E EQ PUSH2 0x282 JUMPI DUP1 PUSH4 0x7037EC6F EQ PUSH2 0x2A6 JUMPI DUP1 PUSH4 0x70740AC9 EQ PUSH2 0x2AE JUMPI DUP1 PUSH4 0x719CE73E EQ PUSH2 0x2C3 JUMPI PUSH1 0x0 DUP1 REVERT JUMPDEST DUP1 PUSH4 0x72EA61C EQ PUSH2 0x15B JUMPI DUP1 PUSH4 0x200D2ED2 EQ PUSH2 0x184 JUMPI DUP1 PUSH4 0x29DCB0CF EQ PUSH2 0x1B2 JUMPI DUP1 PUSH4 0x35C1D349 EQ PUSH2 0x1C8 JUMPI DUP1 PUSH4 0x37929920 EQ PUSH2 0x200 JUMPI DUP1 PUSH4 0x4C74EF9C EQ PUSH2 0x222 JUMPI PUSH1 0x0 DUP1 REVERT JUMPDEST CALLDATASIZE PUSH2 0x156 JUMPI STOP JUMPDEST PUSH1 0x0 DUP1 REVERT JUMPDEST CALLVALUE DUP1 ISZERO PUSH2 0x167 JUMPI PUSH1 0x0 DUP1 REVERT JUMPDEST POP PUSH2 0x171 PUSH1 0x2 SLOAD DUP2 JUMP JUMPDEST PUSH1 0x40 MLOAD SWAP1 DUP2 MSTORE PUSH1 0x20 ADD JUMPDEST PUSH1 0x40 MLOAD DUP1 SWAP2 SUB SWAP1 RETURN JUMPDEST CALLVALUE DUP1 ISZERO PUSH2 0x190 JUMPI PUSH1 0x0 DUP1 REVERT JUMPDEST POP PUSH1 0x5 SLOAD PUSH2 0x1A5 SWAP1 PUSH1 0x1 PUSH1 0xA0 SHL SWAP1 DIV PUSH1 0xFF AND DUP2 JUMP JUMPDEST PUSH1 0x40 MLOAD PUSH2 0x17B SWAP2 SWAP1 PUSH2 0x20FF JUMP JUMPDEST CALLVALUE DUP1 ISZERO PUSH2 0x1BE JUMPI PUSH1 0x0 DUP1 REVERT JUMPDEST POP PUSH2 0x171 PUSH1 0x3 SLOAD DUP2 JUMP JUMPDEST CALLVALUE DUP1 ISZERO PUSH2 0x1D4 JUMPI PUSH1 0x0 DUP1 REVERT JUMPDEST POP PUSH2 0x1E8 PUSH2 0x1E3 CALLDATASIZE PUSH1 0x4 PUSH2 0x2127 JUMP JUMPDEST PUSH2 0x4DB JUMP JUMPDEST PUSH1 0x40 MLOAD PUSH1 0x1 PUSH1 0x1 PUSH1 0xA0 SHL SUB SWAP1 SWAP2 AND DUP2 MSTORE PUSH1 0x20 ADD PUSH2 0x17B JUMP JUMPDEST CALLVALUE DUP1 ISZERO PUSH2 0x20C JUMPI PUSH1 0x0 DUP1 REVERT JUMPDEST POP PUSH2 0x220 PUSH2 0x21B CALLDATASIZE PUSH1 0x4 PUSH2 0x218C JUMP JUMPDEST PUSH2 0x505 JUMP JUMPDEST STOP JUMPDEST CALLVALUE DUP1 ISZERO PUSH2 0x22E JUMPI PUSH1 0x0 DUP1 REVERT JUMPDEST POP PUSH1 0x0 SLOAD PUSH2 0x1E8 SWAP1 PUSH1 0x1 PUSH1 0x1 PUSH1 0xA0 SHL SUB AND DUP2 JUMP JUMPDEST CALLVALUE DUP1 ISZERO PUSH2 0x24E JUMPI PUSH1 0x0 DUP1 REVERT JUMPDEST POP PUSH2 0x171 PUSH2 0x25D CALLDATASIZE PUSH1 0x4 PUSH2 0x2127 JUMP JUMPDEST PUSH1 0xC PUSH1 0x20 MSTORE PUSH1 0x0 SWAP1 DUP2 MSTORE PUSH1 0x40 SWAP1 KECCAK256 SLOAD DUP2 JUMP JUMPDEST PUSH2 0x220 PUSH2 0x27D CALLDATASIZE PUSH1 0x4 PUSH2 0x21F8 JUMP JUMPDEST PUSH2 0x762 JUMP JUMPDEST CALLVALUE DUP1 ISZERO PUSH2 0x28E JUMPI PUSH1 0x0 DUP1 REVERT JUMPDEST POP PUSH2 0x297 PUSH2 0xB65 JUMP JUMPDEST PUSH1 0x40 MLOAD PUSH2 0x17B SWAP4 SWAP3 SWAP2 SWAP1 PUSH2 0x2284 JUMP JUMPDEST PUSH2 0x220 PUSH2 0xFC4 JUMP JUMPDEST CALLVALUE DUP1 ISZERO PUSH2 0x2BA JUMPI PUSH1 0x0 DUP1 REVERT JUMPDEST POP PUSH2 0x220 PUSH2 0x11EC JUMP JUMPDEST CALLVALUE DUP1 ISZERO PUSH2 0x2CF JUMPI PUSH1 0x0 DUP1 REVERT JUMPDEST POP PUSH2 0x171 PUSH1 0x7 SLOAD DUP2 JUMP JUMPDEST CALLVALUE DUP1 ISZERO PUSH2 0x2E5 JUMPI PUSH1 0x0 DUP1 REVERT JUMPDEST POP PUSH2 0x220 PUSH2 0x140F JUMP JUMPDEST CALLVALUE DUP1 ISZERO PUSH2 0x2FA JUMPI PUSH1 0x0 DUP1 REVERT JUMPDEST POP PUSH2 0x30E PUSH2 0x309 CALLDATASIZE PUSH1 0x4 PUSH2 0x22F9 JUMP JUMPDEST PUSH2 0x14FC JUMP JUMPDEST PUSH1 0x40 MLOAD PUSH2 0x17B SWAP6 SWAP5 SWAP4 SWAP3 SWAP2 SWAP1 PUSH2 0x2329 JUMP JUMPDEST CALLVALUE DUP1 ISZERO PUSH2 0x32B JUMPI PUSH1 0x0 DUP1 REVERT JUMPDEST POP PUSH2 0x34F PUSH2 0x33A CALLDATASIZE PUSH1 0x4 PUSH2 0x22F9 JUMP JUMPDEST PUSH1 0xA PUSH1 0x20 MSTORE PUSH1 0x0 SWAP1 DUP2 MSTORE PUSH1 0x40 SWAP1 KECCAK256 SLOAD PUSH1 0xFF AND DUP2 JUMP JUMPDEST PUSH1 0x40 MLOAD SWAP1 ISZERO ISZERO DUP2 MSTORE PUSH1 0x20 ADD PUSH2 0x17B JUMP JUMPDEST CALLVALUE DUP1 ISZERO PUSH2 0x36B JUMPI PUSH1 0x0 DUP1 REVERT JUMPDEST POP PUSH2 0x220 PUSH2 0x37A CALLDATASIZE PUSH1 0x4 PUSH2 0x21F8 JUMP JUMPDEST PUSH2 0x15AB JUMP JUMPDEST CALLVALUE DUP1 ISZERO PUSH2 0x38B JUMPI PUSH1 0x0 DUP1 REVERT JUMPDEST POP PUSH2 0x171 PUSH1 0x1 SLOAD DUP2 JUMP JUMPDEST CALLVALUE DUP1 ISZERO PUSH2 0x3A1 JUMPI PUSH1 0x0 DUP1 REVERT JUMPDEST POP PUSH2 0x171 PUSH2 0x3B0 CALLDATASIZE PUSH1 0x4 PUSH2 0x2127 JUMP JUMPDEST PUSH2 0x1868 JUMP JUMPDEST CALLVALUE DUP1 ISZERO PUSH2 0x3C1 JUMPI PUSH1 0x0 DUP1 REVERT JUMPDEST POP PUSH1 0x8 SLOAD PUSH2 0x171 JUMP JUMPDEST CALLVALUE DUP1 ISZERO PUSH2 0x3D6 JUMPI PUSH1 0x0 DUP1 REVERT JUMPDEST POP PUSH2 0x427 PUSH2 0x3E5 CALLDATASIZE PUSH1 0x4 PUSH2 0x22F9 JUMP JUMPDEST PUSH1 0x9 PUSH1 0x20 MSTORE PUSH1 0x0 SWAP1 DUP2 MSTORE PUSH1 0x40 SWAP1 KECCAK256 DUP1 SLOAD PUSH1 0x2 DUP3 ADD SLOAD PUSH1 0x3 DUP4 ADD SLOAD PUSH1 0x4 DUP5 ADD SLOAD PUSH1 0x5 DUP6 ADD SLOAD PUSH1 0x6 SWAP1 SWAP6 ADD SLOAD PUSH1 0x1 PUSH1 0x1 PUSH1 0xA0 SHL SUB SWAP1 SWAP5 AND SWAP5 SWAP3 SWAP4 SWAP2 SWAP3 SWAP1 SWAP2 PUSH1 0xFF AND DUP7 JUMP JUMPDEST PUSH1 0x40 DUP1 MLOAD PUSH1 0x1 PUSH1 0x1 PUSH1 0xA0 SHL SUB SWAP1 SWAP8 AND DUP8 MSTORE PUSH1 0x20 DUP8 ADD SWAP6 SWAP1 SWAP6 MSTORE SWAP4 DUP6 ADD SWAP3 SWAP1 SWAP3 MSTORE PUSH1 0x60 DUP5 ADD MSTORE PUSH1 0x80 DUP4 ADD MSTORE ISZERO ISZERO PUSH1 0xA0 DUP3 ADD MSTORE PUSH1 0xC0 ADD PUSH2 0x17B JUMP JUMPDEST CALLVALUE DUP1 ISZERO PUSH2 0x46C JUMPI PUSH1 0x0 DUP1 REVERT JUMPDEST POP PUSH2 0x171 PUSH1 0x4 SLOAD DUP2 JUMP JUMPDEST CALLVALUE DUP1 ISZERO PUSH2 0x482 JUMPI PUSH1 0x0 DUP1 REVERT JUMPDEST POP PUSH1 0x5 SLOAD PUSH2 0x1E8 SWAP1 PUSH1 0x1 PUSH1 0x1 PUSH1 0xA0 SHL SUB AND DUP2 JUMP JUMPDEST CALLVALUE DUP1 ISZERO PUSH2 0x4A2 JUMPI PUSH1 0x0 DUP1 REVERT JUMPDEST POP PUSH2 0x220 PUSH2 0x1889 JUMP JUMPDEST CALLVALUE DUP1 ISZERO PUSH2 0x4B7 JUMPI PUSH1 0x0 DUP1 REVERT JUMPDEST POP PUSH2 0x34F PUSH2 0x4C6 CALLDATASIZE PUSH1 0x4 PUSH2 0x22F9 JUMP JUMPDEST PUSH1 0xB PUSH1 0x20 MSTORE PUSH1 0x0 SWAP1 DUP2 MSTORE PUSH1 0x40 SWAP1 KECCAK256 SLOAD PUSH1 0xFF AND DUP2 JUMP JUMPDEST PUSH1 0x8 DUP2 DUP2 SLOAD DUP2 LT PUSH2 0x4EB JUMPI PUSH1 0x0 DUP1 REVERT JUMPDEST PUSH1 0x0 SWAP2 DUP3 MSTORE PUSH1 0x20 SWAP1 SWAP2 KECCAK256 ADD SLOAD PUSH1 0x1 PUSH1 0x1 PUSH1 0xA0 SHL SUB AND SWAP1 POP DUP2 JUMP JUMPDEST PUSH1 0x5 SLOAD PUSH1 0x1 PUSH1 0x1 PUSH1 0xA0 SHL SUB AND CALLER EQ PUSH2 0x538 JUMPI PUSH1 0x40 MLOAD PUSH3 0x461BCD PUSH1 0xE5 SHL DUP2 MSTORE PUSH1 0x4 ADD PUSH2 0x52F SWAP1 PUSH2 0x2360 JUMP JUMPDEST PUSH1 0x40 MLOAD DUP1 SWAP2 SUB SWAP1 REVERT JUMPDEST PUSH1 0x1 PUSH1 0x5 SLOAD PUSH1 0x1 PUSH1 0xA0 SHL SWAP1 DIV PUSH1 0xFF AND PUSH1 0x3 DUP2 GT ISZERO PUSH2 0x558 JUMPI PUSH2 0x558 PUSH2 0x20E9 JUMP JUMPDEST EQ PUSH2 0x597 JUMPI PUSH1 0x40 MLOAD PUSH3 0x461BCD PUSH1 0xE5 SHL DUP2 MSTORE PUSH1 0x20 PUSH1 0x4 DUP3 ADD MSTORE PUSH1 0xF PUSH1 0x24 DUP3 ADD MSTORE PUSH15 0x135D5CDD081B1BD8DAC8199A5C9CDD PUSH1 0x8A SHL PUSH1 0x44 DUP3 ADD MSTORE PUSH1 0x64 ADD PUSH2 0x52F JUMP JUMPDEST DUP3 DUP2 EQ PUSH2 0x5D8 JUMPI PUSH1 0x40 MLOAD PUSH3 0x461BCD PUSH1 0xE5 SHL DUP2 MSTORE PUSH1 0x20 PUSH1 0x4 DUP3 ADD MSTORE PUSH1 0xF PUSH1 0x24 DUP3 ADD MSTORE PUSH15 0x98CADCCEE8D040DAD2E6DAC2E8C6D PUSH1 0x8B SHL PUSH1 0x44 DUP3 ADD MSTORE PUSH1 0x64 ADD PUSH2 0x52F JUMP JUMPDEST PUSH1 0x0 JUMPDEST DUP4 DUP2 LT ISZERO PUSH2 0x63E JUMPI DUP3 DUP3 DUP3 DUP2 DUP2 LT PUSH2 0x5F5 JUMPI PUSH2 0x5F5 PUSH2 0x2383 JUMP JUMPDEST SWAP1 POP PUSH1 0x20 MUL ADD CALLDATALOAD PUSH1 0xC PUSH1 0x0 DUP8 DUP8 DUP6 DUP2 DUP2 LT PUSH2 0x612 JUMPI PUSH2 0x612 PUSH2 0x2383 JUMP JUMPDEST SWAP1 POP PUSH1 0x20 MUL ADD CALLDATALOAD DUP2 MSTORE PUSH1 0x20 ADD SWAP1 DUP2 MSTORE PUSH1 0x20 ADD PUSH1 0x0 KECCAK256 DUP2 SWAP1 SSTORE POP DUP1 DUP1 PUSH2 0x636 SWAP1 PUSH2 0x23AF JUMP JUMPDEST SWAP2 POP POP PUSH2 0x5DB JUMP JUMPDEST POP PUSH1 0x0 JUMPDEST PUSH1 0x8 SLOAD DUP2 LT ISZERO PUSH2 0x702 JUMPI PUSH1 0x0 PUSH1 0x8 DUP3 DUP2 SLOAD DUP2 LT PUSH2 0x661 JUMPI PUSH2 0x661 PUSH2 0x2383 JUMP JUMPDEST PUSH1 0x0 SWAP2 DUP3 MSTORE PUSH1 0x20 DUP1 DUP4 KECCAK256 SWAP1 SWAP2 ADD SLOAD PUSH1 0x1 PUSH1 0x1 PUSH1 0xA0 SHL SUB AND DUP1 DUP4 MSTORE PUSH1 0x9 DUP3 MSTORE PUSH1 0x40 SWAP3 DUP4 SWAP1 KECCAK256 PUSH1 0x1 DUP2 ADD DUP1 SLOAD DUP6 MLOAD DUP2 DUP7 MUL DUP2 ADD DUP7 ADD SWAP1 SWAP7 MSTORE DUP1 DUP7 MSTORE SWAP3 SWAP6 POP SWAP1 SWAP4 PUSH2 0x6E9 SWAP4 SWAP1 SWAP3 SWAP1 DUP4 ADD DUP3 DUP3 DUP1 ISZERO PUSH2 0x6D5 JUMPI PUSH1 0x20 MUL DUP3 ADD SWAP2 SWAP1 PUSH1 0x0 MSTORE PUSH1 0x20 PUSH1 0x0 KECCAK256 SWAP1 JUMPDEST DUP2 SLOAD DUP2 MSTORE PUSH1 0x20 ADD SWAP1 PUSH1 0x1 ADD SWAP1 DUP1 DUP4 GT PUSH2 0x6C1 JUMPI JUMPDEST POP POP POP POP POP DUP3 PUSH1 0x2 ADD SLOAD DUP4 PUSH1 0x3 ADD SLOAD PUSH2 0x192D JUMP JUMPDEST PUSH1 0x4 SWAP1 SWAP2 ADD SSTORE POP DUP1 PUSH2 0x6FA DUP2 PUSH2 0x23AF JUMP JUMPDEST SWAP2 POP POP PUSH2 0x642 JUMP JUMPDEST POP PUSH2 0x70B PUSH2 0x19FF JUMP JUMPDEST PUSH1 0x5 DUP1 SLOAD PUSH1 0xFF PUSH1 0xA0 SHL NOT AND PUSH1 0x1 PUSH1 0xA1 SHL OR SWAP1 SSTORE PUSH1 0x40 MLOAD PUSH32 0x3ADB95F13423BA99020599C9FD45E0B650F2B9599D287C615E53005D5D2AFD9C SWAP1 PUSH2 0x754 SWAP1 DUP7 SWAP1 DUP7 SWAP1 DUP7 SWAP1 DUP7 SWAP1 PUSH2 0x23FA JUMP JUMPDEST PUSH1 0x40 MLOAD DUP1 SWAP2 SUB SWAP1 LOG1 POP POP POP POP JUMP JUMPDEST PUSH1 0x0 PUSH1 0x5 SLOAD PUSH1 0x1 PUSH1 0xA0 SHL SWAP1 DIV PUSH1 0xFF AND PUSH1 0x3 DUP2 GT ISZERO PUSH2 0x782 JUMPI PUSH2 0x782 PUSH2 0x20E9 JUMP JUMPDEST EQ PUSH2 0x79F JUMPI PUSH1 0x40 MLOAD PUSH3 0x461BCD PUSH1 0xE5 SHL DUP2 MSTORE PUSH1 0x4 ADD PUSH2 0x52F SWAP1 PUSH2 0x242C JUMP JUMPDEST PUSH1 0x3 SLOAD TIMESTAMP LT PUSH2 0x7C0 JUMPI PUSH1 0x40 MLOAD PUSH3 0x461BCD PUSH1 0xE5 SHL DUP2 MSTORE PUSH1 0x4 ADD PUSH2 0x52F SWAP1 PUSH2 0x2456 JUMP JUMPDEST PUSH1 0x2 SLOAD CALLVALUE LT ISZERO PUSH2 0x80B JUMPI PUSH1 0x40 MLOAD PUSH3 0x461BCD PUSH1 0xE5 SHL DUP2 MSTORE PUSH1 0x20 PUSH1 0x4 DUP3 ADD MSTORE PUSH1 0x16 PUSH1 0x24 DUP3 ADD MSTORE PUSH22 0x496E73756666696369656E7420656E74727920666565 PUSH1 0x50 SHL PUSH1 0x44 DUP3 ADD MSTORE PUSH1 0x64 ADD PUSH2 0x52F JUMP JUMPDEST CALLER PUSH1 0x0 SWAP1 DUP2 MSTORE PUSH1 0xA PUSH1 0x20 MSTORE PUSH1 0x40 SWAP1 KECCAK256 SLOAD PUSH1 0xFF AND ISZERO PUSH2 0x85C JUMPI PUSH1 0x40 MLOAD PUSH3 0x461BCD PUSH1 0xE5 SHL DUP2 MSTORE PUSH1 0x20 PUSH1 0x4 DUP3 ADD MSTORE PUSH1 0xE PUSH1 0x24 DUP3 ADD MSTORE PUSH14 0x105B1C9958591E481A9BDA5B9959 PUSH1 0x92 SHL PUSH1 0x44 DUP3 ADD MSTORE PUSH1 0x64 ADD PUSH2 0x52F JUMP JUMPDEST CALLER PUSH1 0x0 SWAP1 DUP2 MSTORE PUSH1 0xB PUSH1 0x20 MSTORE PUSH1 0x40 SWAP1 KECCAK256 SLOAD PUSH1 0xFF AND ISZERO PUSH2 0x8B5 JUMPI PUSH1 0x40 MLOAD PUSH3 0x461BCD PUSH1 0xE5 SHL DUP2 MSTORE PUSH1 0x20 PUSH1 0x4 DUP3 ADD MSTORE PUSH1 0x16 PUSH1 0x24 DUP3 ADD MSTORE PUSH22 0x155CD9481CDD589B5A5D1519585B481A5B9CDD195859 PUSH1 0x52 SHL PUSH1 0x44 DUP3 ADD MSTORE PUSH1 0x64 ADD PUSH2 0x52F JUMP JUMPDEST PUSH1 0x4 SLOAD ISZERO DUP1 PUSH2 0x8C7 JUMPI POP PUSH1 0x4 SLOAD PUSH1 0x8 SLOAD LT JUMPDEST PUSH2 0x8E3 JUMPI PUSH1 0x40 MLOAD PUSH3 0x461BCD PUSH1 0xE5 SHL DUP2 MSTORE PUSH1 0x4 ADD PUSH2 0x52F SWAP1 PUSH2 0x247F JUMP JUMPDEST PUSH2 0x8EF DUP5 DUP5 DUP5 DUP5 PUSH2 0x1B23 JUMP JUMPDEST CALLER PUSH1 0x0 DUP2 DUP2 MSTORE PUSH1 0xB PUSH1 0x20 SWAP1 DUP2 MSTORE PUSH1 0x40 DUP1 DUP4 KECCAK256 DUP1 SLOAD PUSH1 0x1 PUSH1 0xFF NOT SWAP2 DUP3 AND DUP2 OR SWAP1 SWAP3 SSTORE PUSH1 0xA SWAP1 SWAP4 MSTORE SWAP1 DUP4 KECCAK256 DUP1 SLOAD SWAP1 SWAP3 AND DUP2 OR SWAP1 SWAP2 SSTORE PUSH1 0x8 DUP1 SLOAD SWAP2 DUP3 ADD DUP2 SSTORE DUP3 MSTORE PUSH32 0xF3F7A9FE364FAAB93B216DA50A3214154F22A0A2B415B23A84C8169E8B636EE3 ADD DUP1 SLOAD PUSH1 0x1 PUSH1 0x1 PUSH1 0xA0 SHL SUB NOT AND SWAP1 SWAP3 OR SWAP1 SWAP2 SSTORE PUSH1 0x2 SLOAD PUSH1 0x7 DUP1 SLOAD SWAP2 SWAP3 SWAP1 SWAP2 PUSH2 0x977 SWAP1 DUP5 SWAP1 PUSH2 0x24A5 JUMP JUMPDEST SWAP3 POP POP DUP2 SWAP1 SSTORE POP PUSH1 0x40 MLOAD DUP1 PUSH1 0xE0 ADD PUSH1 0x40 MSTORE DUP1 CALLER PUSH1 0x1 PUSH1 0x1 PUSH1 0xA0 SHL SUB AND DUP2 MSTORE PUSH1 0x20 ADD DUP6 DUP6 DUP1 DUP1 PUSH1 0x20 MUL PUSH1 0x20 ADD PUSH1 0x40 MLOAD SWAP1 DUP2 ADD PUSH1 0x40 MSTORE DUP1 SWAP4 SWAP3 SWAP2 SWAP1 DUP2 DUP2 MSTORE PUSH1 0x20 ADD DUP4 DUP4 PUSH1 0x20 MUL DUP1 DUP3 DUP5 CALLDATACOPY PUSH1 0x0 SWAP3 ADD DUP3 SWAP1 MSTORE POP SWAP4 DUP6 MSTORE POP POP POP PUSH1 0x20 DUP1 DUP4 ADD DUP7 SWAP1 MSTORE PUSH1 0x40 DUP1 DUP5 ADD DUP7 SWAP1 MSTORE PUSH1 0x60 DUP5 ADD DUP4 SWAP1 MSTORE PUSH1 0x80 DUP5 ADD DUP4 SWAP1 MSTORE PUSH1 0xA0 SWAP1 SWAP4 ADD DUP3 SWAP1 MSTORE CALLER DUP3 MSTORE PUSH1 0x9 DUP2 MSTORE SWAP2 SWAP1 KECCAK256 DUP3 MLOAD DUP2 SLOAD PUSH1 0x1 PUSH1 0x1 PUSH1 0xA0 SHL SUB NOT AND PUSH1 0x1 PUSH1 0x1 PUSH1 0xA0 SHL SUB SWAP1 SWAP2 AND OR DUP2 SSTORE DUP3 DUP3 ADD MLOAD DUP1 MLOAD SWAP2 SWAP3 PUSH2 0xA33 SWAP3 PUSH1 0x1 DUP6 ADD SWAP3 SWAP1 SWAP2 ADD SWAP1 PUSH2 0x2089 JUMP JUMPDEST POP PUSH1 0x40 DUP3 ADD MLOAD PUSH1 0x2 DUP3 DUP2 ADD SWAP2 SWAP1 SWAP2 SSTORE PUSH1 0x60 DUP4 ADD MLOAD PUSH1 0x3 DUP4 ADD SSTORE PUSH1 0x80 DUP4 ADD MLOAD PUSH1 0x4 DUP4 ADD SSTORE PUSH1 0xA0 DUP4 ADD MLOAD PUSH1 0x5 DUP4 ADD SSTORE PUSH1 0xC0 SWAP1 SWAP3 ADD MLOAD PUSH1 0x6 SWAP1 SWAP2 ADD DUP1 SLOAD PUSH1 0xFF NOT AND SWAP2 ISZERO ISZERO SWAP2 SWAP1 SWAP2 OR SWAP1 SSTORE SLOAD CALLVALUE GT ISZERO PUSH2 0xB18 JUMPI PUSH1 0x2 SLOAD PUSH1 0x0 SWAP1 CALLER SWAP1 PUSH2 0xA94 SWAP1 CALLVALUE PUSH2 0x24B8 JUMP JUMPDEST PUSH1 0x40 MLOAD PUSH1 0x0 DUP2 DUP2 DUP2 DUP6 DUP8 GAS CALL SWAP3 POP POP POP RETURNDATASIZE DUP1 PUSH1 0x0 DUP2 EQ PUSH2 0xAD0 JUMPI PUSH1 0x40 MLOAD SWAP2 POP PUSH1 0x1F NOT PUSH1 0x3F RETURNDATASIZE ADD AND DUP3 ADD PUSH1 0x40 MSTORE RETURNDATASIZE DUP3 MSTORE RETURNDATASIZE PUSH1 0x0 PUSH1 0x20 DUP5 ADD RETURNDATACOPY PUSH2 0xAD5 JUMP JUMPDEST PUSH1 0x60 SWAP2 POP JUMPDEST POP POP SWAP1 POP DUP1 PUSH2 0xB16 JUMPI PUSH1 0x40 MLOAD PUSH3 0x461BCD PUSH1 0xE5 SHL DUP2 MSTORE PUSH1 0x20 PUSH1 0x4 DUP3 ADD MSTORE PUSH1 0xD PUSH1 0x24 DUP3 ADD MSTORE PUSH13 0x1499599D5B990819985A5B1959 PUSH1 0x9A SHL PUSH1 0x44 DUP3 ADD MSTORE PUSH1 0x64 ADD PUSH2 0x52F JUMP JUMPDEST POP JUMPDEST CALLER PUSH1 0x1 PUSH1 0x1 PUSH1 0xA0 SHL SUB AND PUSH32 0x9528EEE1F5BCCA87D0565A519121286282B2588750410583E52BBB0CA34B2A17 DUP6 DUP6 DUP6 DUP6 PUSH1 0x40 MLOAD PUSH2 0xB57 SWAP5 SWAP4 SWAP3 SWAP2 SWAP1 PUSH2 0x24CB JUMP JUMPDEST PUSH1 0x40 MLOAD DUP1 SWAP2 SUB SWAP1 LOG2 POP POP POP POP JUMP JUMPDEST PUSH1 0x60 DUP1 PUSH1 0x60 PUSH1 0x8 DUP1 SLOAD SWAP1 POP PUSH8 0xFFFFFFFFFFFFFFFF DUP2 GT ISZERO PUSH2 0xB88 JUMPI PUSH2 0xB88 PUSH2 0x24F2 JUMP JUMPDEST PUSH1 0x40 MLOAD SWAP1 DUP1 DUP3 MSTORE DUP1 PUSH1 0x20 MUL PUSH1 0x20 ADD DUP3 ADD PUSH1 0x40 MSTORE DUP1 ISZERO PUSH2 0xBB1 JUMPI DUP2 PUSH1 0x20 ADD PUSH1 0x20 DUP3 MUL DUP1 CALLDATASIZE DUP4 CALLDATACOPY ADD SWAP1 POP JUMPDEST POP PUSH1 0x8 SLOAD SWAP1 SWAP4 POP PUSH8 0xFFFFFFFFFFFFFFFF DUP2 GT ISZERO PUSH2 0xBD0 JUMPI PUSH2 0xBD0 PUSH2 0x24F2 JUMP JUMPDEST PUSH1 0x40 MLOAD SWAP1 DUP1 DUP3 MSTORE DUP1 PUSH1 0x20 MUL PUSH1 0x20 ADD DUP3 ADD PUSH1 0x40 MSTORE DUP1 ISZERO PUSH2 0xBF9 JUMPI DUP2 PUSH1 0x20 ADD PUSH1 0x20 DUP3 MUL DUP1 CALLDATASIZE DUP4 CALLDATACOPY ADD SWAP1 POP JUMPDEST POP PUSH1 0x8 SLOAD SWAP1 SWAP3 POP PUSH8 0xFFFFFFFFFFFFFFFF DUP2 GT ISZERO PUSH2 0xC18 JUMPI PUSH2 0xC18 PUSH2 0x24F2 JUMP JUMPDEST PUSH1 0x40 MLOAD SWAP1 DUP1 DUP3 MSTORE DUP1 PUSH1 0x20 MUL PUSH1 0x20 ADD DUP3 ADD PUSH1 0x40 MSTORE DUP1 ISZERO PUSH2 0xC41 JUMPI DUP2 PUSH1 0x20 ADD PUSH1 0x20 DUP3 MUL DUP1 CALLDATASIZE DUP4 CALLDATACOPY ADD SWAP1 POP JUMPDEST POP SWAP1 POP PUSH1 0x0 JUMPDEST PUSH1 0x8 SLOAD DUP2 LT ISZERO PUSH2 0xD59 JUMPI PUSH1 0x0 PUSH1 0x8 DUP3 DUP2 SLOAD DUP2 LT PUSH2 0xC66 JUMPI PUSH2 0xC66 PUSH2 0x2383 JUMP JUMPDEST SWAP1 PUSH1 0x0 MSTORE PUSH1 0x20 PUSH1 0x0 KECCAK256 ADD PUSH1 0x0 SWAP1 SLOAD SWAP1 PUSH2 0x100 EXP SWAP1 DIV PUSH1 0x1 PUSH1 0x1 PUSH1 0xA0 SHL SUB AND SWAP1 POP DUP1 DUP6 DUP4 DUP2 MLOAD DUP2 LT PUSH2 0xC99 JUMPI PUSH2 0xC99 PUSH2 0x2383 JUMP JUMPDEST PUSH1 0x20 MUL PUSH1 0x20 ADD ADD SWAP1 PUSH1 0x1 PUSH1 0x1 PUSH1 0xA0 SHL SUB AND SWAP1 DUP2 PUSH1 0x1 PUSH1 0x1 PUSH1 0xA0 SHL SUB AND DUP2 MSTORE POP POP PUSH1 0x9 PUSH1 0x0 DUP3 PUSH1 0x1 PUSH1 0x1 PUSH1 0xA0 SHL SUB AND PUSH1 0x1 PUSH1 0x1 PUSH1 0xA0 SHL SUB AND DUP2 MSTORE PUSH1 0x20 ADD SWAP1 DUP2 MSTORE PUSH1 0x20 ADD PUSH1 0x0 KECCAK256 PUSH1 0x4 ADD SLOAD DUP5 DUP4 DUP2 MLOAD DUP2 LT PUSH2 0xCF4 JUMPI PUSH2 0xCF4 PUSH2 0x2383 JUMP JUMPDEST PUSH1 0x20 MUL PUSH1 0x20 ADD ADD DUP2 DUP2 MSTORE POP POP PUSH1 0x9 PUSH1 0x0 DUP3 PUSH1 0x1 PUSH1 0x1 PUSH1 0xA0 SHL SUB AND PUSH1 0x1 PUSH1 0x1 PUSH1 0xA0 SHL SUB AND DUP2 MSTORE PUSH1 0x20 ADD SWAP1 DUP2 MSTORE PUSH1 0x20 ADD PUSH1 0x0 KECCAK256 PUSH1 0x5 ADD SLOAD DUP4 DUP4 DUP2 MLOAD DUP2 LT PUSH2 0xD3B JUMPI PUSH2 0xD3B PUSH2 0x2383 JUMP JUMPDEST PUSH1 0x20 SWAP1 DUP2 MUL SWAP2 SWAP1 SWAP2 ADD ADD MSTORE POP DUP1 PUSH2 0xD51 DUP2 PUSH2 0x23AF JUMP JUMPDEST SWAP2 POP POP PUSH2 0xC47 JUMP JUMPDEST POP PUSH1 0x0 JUMPDEST PUSH1 0x8 SLOAD PUSH2 0xD6C SWAP1 PUSH1 0x1 SWAP1 PUSH2 0x24B8 JUMP JUMPDEST DUP2 LT ISZERO PUSH2 0xFBE JUMPI PUSH1 0x0 PUSH2 0xD80 DUP3 PUSH1 0x1 PUSH2 0x24A5 JUMP JUMPDEST SWAP1 POP JUMPDEST PUSH1 0x8 SLOAD DUP2 LT ISZERO PUSH2 0xFAB JUMPI DUP3 DUP3 DUP2 MLOAD DUP2 LT PUSH2 0xD9F JUMPI PUSH2 0xD9F PUSH2 0x2383 JUMP JUMPDEST PUSH1 0x20 MUL PUSH1 0x20 ADD ADD MLOAD DUP4 DUP3 DUP2 MLOAD DUP2 LT PUSH2 0xDB9 JUMPI PUSH2 0xDB9 PUSH2 0x2383 JUMP JUMPDEST PUSH1 0x20 MUL PUSH1 0x20 ADD ADD MLOAD LT DUP1 PUSH2 0xE3A JUMPI POP DUP3 DUP3 DUP2 MLOAD DUP2 LT PUSH2 0xDDA JUMPI PUSH2 0xDDA PUSH2 0x2383 JUMP JUMPDEST PUSH1 0x20 MUL PUSH1 0x20 ADD ADD MLOAD DUP4 DUP3 DUP2 MLOAD DUP2 LT PUSH2 0xDF4 JUMPI PUSH2 0xDF4 PUSH2 0x2383 JUMP JUMPDEST PUSH1 0x20 MUL PUSH1 0x20 ADD ADD MLOAD EQ DUP1 ISZERO PUSH2 0xE3A JUMPI POP DUP4 DUP3 DUP2 MLOAD DUP2 LT PUSH2 0xE16 JUMPI PUSH2 0xE16 PUSH2 0x2383 JUMP JUMPDEST PUSH1 0x20 MUL PUSH1 0x20 ADD ADD MLOAD DUP5 DUP3 DUP2 MLOAD DUP2 LT PUSH2 0xE30 JUMPI PUSH2 0xE30 PUSH2 0x2383 JUMP JUMPDEST PUSH1 0x20 MUL PUSH1 0x20 ADD ADD MLOAD GT JUMPDEST ISZERO PUSH2 0xF99 JUMPI DUP5 DUP2 DUP2 MLOAD DUP2 LT PUSH2 0xE51 JUMPI PUSH2 0xE51 PUSH2 0x2383 JUMP JUMPDEST PUSH1 0x20 MUL PUSH1 0x20 ADD ADD MLOAD DUP6 DUP4 DUP2 MLOAD DUP2 LT PUSH2 0xE6B JUMPI PUSH2 0xE6B PUSH2 0x2383 JUMP JUMPDEST PUSH1 0x20 MUL PUSH1 0x20 ADD ADD MLOAD DUP7 DUP5 DUP2 MLOAD DUP2 LT PUSH2 0xE85 JUMPI PUSH2 0xE85 PUSH2 0x2383 JUMP JUMPDEST PUSH1 0x20 MUL PUSH1 0x20 ADD ADD DUP8 DUP5 DUP2 MLOAD DUP2 LT PUSH2 0xE9E JUMPI PUSH2 0xE9E PUSH2 0x2383 JUMP JUMPDEST PUSH1 0x1 PUSH1 0x1 PUSH1 0xA0 SHL SUB SWAP4 DUP5 AND PUSH1 0x20 SWAP2 DUP3 MUL SWAP3 SWAP1 SWAP3 ADD ADD MSTORE SWAP2 AND SWAP1 MSTORE DUP4 MLOAD DUP5 SWAP1 DUP3 SWAP1 DUP2 LT PUSH2 0xECC JUMPI PUSH2 0xECC PUSH2 0x2383 JUMP JUMPDEST PUSH1 0x20 MUL PUSH1 0x20 ADD ADD MLOAD DUP5 DUP4 DUP2 MLOAD DUP2 LT PUSH2 0xEE6 JUMPI PUSH2 0xEE6 PUSH2 0x2383 JUMP JUMPDEST PUSH1 0x20 MUL PUSH1 0x20 ADD ADD MLOAD DUP6 DUP5 DUP2 MLOAD DUP2 LT PUSH2 0xF00 JUMPI PUSH2 0xF00 PUSH2 0x2383 JUMP JUMPDEST PUSH1 0x20 MUL PUSH1 0x20 ADD ADD DUP7 DUP5 DUP2 MLOAD DUP2 LT PUSH2 0xF19 JUMPI PUSH2 0xF19 PUSH2 0x2383 JUMP JUMPDEST PUSH1 0x20 MUL PUSH1 0x20 ADD ADD DUP3 DUP2 MSTORE POP DUP3 DUP2 MSTORE POP POP POP DUP3 DUP2 DUP2 MLOAD DUP2 LT PUSH2 0xF3C JUMPI PUSH2 0xF3C PUSH2 0x2383 JUMP JUMPDEST PUSH1 0x20 MUL PUSH1 0x20 ADD ADD MLOAD DUP4 DUP4 DUP2 MLOAD DUP2 LT PUSH2 0xF56 JUMPI PUSH2 0xF56 PUSH2 0x2383 JUMP JUMPDEST PUSH1 0x20 MUL PUSH1 0x20 ADD ADD MLOAD DUP5 DUP5 DUP2 MLOAD DUP2 LT PUSH2 0xF70 JUMPI PUSH2 0xF70 PUSH2 0x2383 JUMP JUMPDEST PUSH1 0x20 MUL PUSH1 0x20 ADD ADD DUP6 DUP5 DUP2 MLOAD DUP2 LT PUSH2 0xF89 JUMPI PUSH2 0xF89 PUSH2 0x2383 JUMP JUMPDEST PUSH1 0x20 SWAP1 DUP2 MUL SWAP2 SWAP1 SWAP2 ADD ADD SWAP2 SWAP1 SWAP2 MSTORE MSTORE JUMPDEST DUP1 PUSH2 0xFA3 DUP2 PUSH2 0x23AF JUMP JUMPDEST SWAP2 POP POP PUSH2 0xD83 JUMP JUMPDEST POP DUP1 PUSH2 0xFB6 DUP2 PUSH2 0x23AF JUMP JUMPDEST SWAP2 POP POP PUSH2 0xD5D JUMP JUMPDEST POP SWAP1 SWAP2 SWAP3 JUMP JUMPDEST PUSH1 0x0 PUSH1 0x5 SLOAD PUSH1 0x1 PUSH1 0xA0 SHL SWAP1 DIV PUSH1 0xFF AND PUSH1 0x3 DUP2 GT ISZERO PUSH2 0xFE4 JUMPI PUSH2 0xFE4 PUSH2 0x20E9 JUMP JUMPDEST EQ PUSH2 0x1001 JUMPI PUSH1 0x40 MLOAD PUSH3 0x461BCD PUSH1 0xE5 SHL DUP2 MSTORE PUSH1 0x4 ADD PUSH2 0x52F SWAP1 PUSH2 0x242C JUMP JUMPDEST PUSH1 0x3 SLOAD TIMESTAMP LT PUSH2 0x1022 JUMPI PUSH1 0x40 MLOAD PUSH3 0x461BCD PUSH1 0xE5 SHL DUP2 MSTORE PUSH1 0x4 ADD PUSH2 0x52F SWAP1 PUSH2 0x2456 JUMP JUMPDEST PUSH1 0x2 SLOAD CALLVALUE LT ISZERO PUSH2 0x106D JUMPI PUSH1 0x40 MLOAD PUSH3 0x461BCD PUSH1 0xE5 SHL DUP2 MSTORE PUSH1 0x20 PUSH1 0x4 DUP3 ADD MSTORE PUSH1 0x16 PUSH1 0x24 DUP3 ADD MSTORE PUSH22 0x496E73756666696369656E7420656E74727920666565 PUSH1 0x50 SHL PUSH1 0x44 DUP3 ADD MSTORE PUSH1 0x64 ADD PUSH2 0x52F JUMP JUMPDEST CALLER PUSH1 0x0 SWAP1 DUP2 MSTORE PUSH1 0xB PUSH1 0x20 MSTORE PUSH1 0x40 SWAP1 KECCAK256 SLOAD PUSH1 0xFF AND ISZERO PUSH2 0x10BC JUMPI PUSH1 0x40 MLOAD PUSH3 0x461BCD PUSH1 0xE5 SHL DUP2 MSTORE PUSH1 0x20 PUSH1 0x4 DUP3 ADD MSTORE PUSH1 0xC PUSH1 0x24 DUP3 ADD MSTORE PUSH12 0x105B1C9958591E481C185A59 PUSH1 0xA2 SHL PUSH1 0x44 DUP3 ADD MSTORE PUSH1 0x64 ADD PUSH2 0x52F JUMP JUMPDEST PUSH1 0x4 SLOAD ISZERO DUP1 PUSH2 0x10CE JUMPI POP PUSH1 0x4 SLOAD PUSH1 0x8 SLOAD LT JUMPDEST PUSH2 0x10EA JUMPI PUSH1 0x40 MLOAD PUSH3 0x461BCD PUSH1 0xE5 SHL DUP2 MSTORE PUSH1 0x4 ADD PUSH2 0x52F SWAP1 PUSH2 0x247F JUMP JUMPDEST CALLER PUSH1 0x0 SWAP1 DUP2 MSTORE PUSH1 0xB PUSH1 0x20 MSTORE PUSH1 0x40 DUP2 KECCAK256 DUP1 SLOAD PUSH1 0xFF NOT AND PUSH1 0x1 OR SWAP1 SSTORE PUSH1 0x2 SLOAD PUSH1 0x7 DUP1 SLOAD SWAP2 SWAP3 SWAP1 SWAP2 PUSH2 0x111A SWAP1 DUP5 SWAP1 PUSH2 0x24A5 JUMP JUMPDEST SWAP1 SWAP2 SSTORE POP POP PUSH1 0x2 SLOAD CALLVALUE GT ISZERO PUSH2 0x11BF JUMPI PUSH1 0x2 SLOAD PUSH1 0x0 SWAP1 CALLER SWAP1 PUSH2 0x113B SWAP1 CALLVALUE PUSH2 0x24B8 JUMP JUMPDEST PUSH1 0x40 MLOAD PUSH1 0x0 DUP2 DUP2 DUP2 DUP6 DUP8 GAS CALL SWAP3 POP POP POP RETURNDATASIZE DUP1 PUSH1 0x0 DUP2 EQ PUSH2 0x1177 JUMPI PUSH1 0x40 MLOAD SWAP2 POP PUSH1 0x1F NOT PUSH1 0x3F RETURNDATASIZE ADD AND DUP3 ADD PUSH1 0x40 MSTORE RETURNDATASIZE DUP3 MSTORE RETURNDATASIZE PUSH1 0x0 PUSH1 0x20 DUP5 ADD RETURNDATACOPY PUSH2 0x117C JUMP JUMPDEST PUSH1 0x60 SWAP2 POP JUMPDEST POP POP SWAP1 POP DUP1 PUSH2 0x11BD JUMPI PUSH1 0x40 MLOAD PUSH3 0x461BCD PUSH1 0xE5 SHL DUP2 MSTORE PUSH1 0x20 PUSH1 0x4 DUP3 ADD MSTORE PUSH1 0xD PUSH1 0x24 DUP3 ADD MSTORE PUSH13 0x1499599D5B990819985A5B1959 PUSH1 0x9A SHL PUSH1 0x44 DUP3 ADD MSTORE PUSH1 0x64 ADD PUSH2 0x52F JUMP JUMPDEST POP JUMPDEST PUSH1 0x40 MLOAD CALLER SWAP1 PUSH32 0x72648084B4C323D38FCD528BDE348916DE25A6642133AE1CB61B363F4CEC8D7D SWAP1 PUSH1 0x0 SWAP1 LOG2 JUMP JUMPDEST PUSH1 0x3 PUSH1 0x5 SLOAD PUSH1 0x1 PUSH1 0xA0 SHL SWAP1 DIV PUSH1 0xFF AND PUSH1 0x3 DUP2 GT ISZERO PUSH2 0x120C JUMPI PUSH2 0x120C PUSH2 0x20E9 JUMP JUMPDEST EQ PUSH2 0x1251 JUMPI PUSH1 0x40 MLOAD PUSH3 0x461BCD PUSH1 0xE5 SHL DUP2 MSTORE PUSH1 0x20 PUSH1 0x4 DUP3 ADD MSTORE PUSH1 0x15 PUSH1 0x24 DUP3 ADD MSTORE PUSH21 0x10DBDB9D195CDD081B9BDD0818DBDB5C1B195D1959 PUSH1 0x5A SHL PUSH1 0x44 DUP3 ADD MSTORE PUSH1 0x64 ADD PUSH2 0x52F JUMP JUMPDEST CALLER PUSH1 0x0 SWAP1 DUP2 MSTORE PUSH1 0x9 PUSH1 0x20 MSTORE PUSH1 0x40 SWAP1 KECCAK256 PUSH1 0x5 DUP2 ADD SLOAD PUSH2 0x129B JUMPI PUSH1 0x40 MLOAD PUSH3 0x461BCD PUSH1 0xE5 SHL DUP2 MSTORE PUSH1 0x20 PUSH1 0x4 DUP3 ADD MSTORE PUSH1 0x7 PUSH1 0x24 DUP3 ADD MSTORE PUSH7 0x4E6F2072616E6B PUSH1 0xC8 SHL PUSH1 0x44 DUP3 ADD MSTORE PUSH1 0x64 ADD PUSH2 0x52F JUMP JUMPDEST PUSH1 0x6 DUP2 ADD SLOAD PUSH1 0xFF AND ISZERO PUSH2 0x12E2 JUMPI PUSH1 0x40 MLOAD PUSH3 0x461BCD PUSH1 0xE5 SHL DUP2 MSTORE PUSH1 0x20 PUSH1 0x4 DUP3 ADD MSTORE PUSH1 0xF PUSH1 0x24 DUP3 ADD MSTORE PUSH15 0x105B1C9958591E4818DB185A5B5959 PUSH1 0x8A SHL PUSH1 0x44 DUP3 ADD MSTORE PUSH1 0x64 ADD PUSH2 0x52F JUMP JUMPDEST PUSH1 0x0 PUSH2 0x12F1 DUP3 PUSH1 0x5 ADD SLOAD PUSH2 0x202D JUMP JUMPDEST SWAP1 POP PUSH1 0x0 DUP2 GT PUSH2 0x133C JUMPI PUSH1 0x40 MLOAD PUSH3 0x461BCD PUSH1 0xE5 SHL DUP2 MSTORE PUSH1 0x20 PUSH1 0x4 DUP3 ADD MSTORE PUSH1 0x16 PUSH1 0x24 DUP3 ADD MSTORE PUSH22 0x4E6F207072697A6520666F7220746869732072616E6B PUSH1 0x50 SHL PUSH1 0x44 DUP3 ADD MSTORE PUSH1 0x64 ADD PUSH2 0x52F JUMP JUMPDEST PUSH1 0x6 DUP3 ADD DUP1 SLOAD PUSH1 0xFF NOT AND PUSH1 0x1 OR SWAP1 SSTORE PUSH1 0x40 MLOAD PUSH1 0x0 SWAP1 CALLER SWAP1 DUP4 SWAP1 DUP4 DUP2 DUP2 DUP2 DUP6 DUP8 GAS CALL SWAP3 POP POP POP RETURNDATASIZE DUP1 PUSH1 0x0 DUP2 EQ PUSH2 0x138D JUMPI PUSH1 0x40 MLOAD SWAP2 POP PUSH1 0x1F NOT PUSH1 0x3F RETURNDATASIZE ADD AND DUP3 ADD PUSH1 0x40 MSTORE RETURNDATASIZE DUP3 MSTORE RETURNDATASIZE PUSH1 0x0 PUSH1 0x20 DUP5 ADD RETURNDATACOPY PUSH2 0x1392 JUMP JUMPDEST PUSH1 0x60 SWAP2 POP JUMPDEST POP POP SWAP1 POP DUP1 PUSH2 0x13D5 JUMPI PUSH1 0x40 MLOAD PUSH3 0x461BCD PUSH1 0xE5 SHL DUP2 MSTORE PUSH1 0x20 PUSH1 0x4 DUP3 ADD MSTORE PUSH1 0xF PUSH1 0x24 DUP3 ADD MSTORE PUSH15 0x151C985B9CD9995C8819985A5B1959 PUSH1 0x8A SHL PUSH1 0x44 DUP3 ADD MSTORE PUSH1 0x64 ADD PUSH2 0x52F JUMP JUMPDEST PUSH1 0x40 MLOAD DUP3 DUP2 MSTORE CALLER SWAP1 PUSH32 0xD8138F8A3F377C5259CA548E70E4C2DE94F129F5A11036A15B69513CBA2B426A SWAP1 PUSH1 0x20 ADD PUSH1 0x40 MLOAD DUP1 SWAP2 SUB SWAP1 LOG2 POP POP POP JUMP JUMPDEST PUSH1 0x5 SLOAD PUSH1 0x1 PUSH1 0x1 PUSH1 0xA0 SHL SUB AND CALLER EQ PUSH2 0x1439 JUMPI PUSH1 0x40 MLOAD PUSH3 0x461BCD PUSH1 0xE5 SHL DUP2 MSTORE PUSH1 0x4 ADD PUSH2 0x52F SWAP1 PUSH2 0x2360 JUMP JUMPDEST PUSH1 0x0 PUSH1 0x5 SLOAD PUSH1 0x1 PUSH1 0xA0 SHL SWAP1 DIV PUSH1 0xFF AND PUSH1 0x3 DUP2 GT ISZERO PUSH2 0x1459 JUMPI PUSH2 0x1459 PUSH2 0x20E9 JUMP JUMPDEST EQ PUSH2 0x1497 JUMPI PUSH1 0x40 MLOAD PUSH3 0x461BCD PUSH1 0xE5 SHL DUP2 MSTORE PUSH1 0x20 PUSH1 0x4 DUP3 ADD MSTORE PUSH1 0xE PUSH1 0x24 DUP3 ADD MSTORE PUSH14 0x105B1C9958591E481B1BD8DAD959 PUSH1 0x92 SHL PUSH1 0x44 DUP3 ADD MSTORE PUSH1 0x64 ADD PUSH2 0x52F JUMP JUMPDEST PUSH1 0x3 SLOAD TIMESTAMP LT ISZERO PUSH2 0x14DF JUMPI PUSH1 0x40 MLOAD PUSH3 0x461BCD PUSH1 0xE5 SHL DUP2 MSTORE PUSH1 0x20 PUSH1 0x4 DUP3 ADD MSTORE PUSH1 0x13 PUSH1 0x24 DUP3 ADD MSTORE PUSH19 0x111958591B1A5B99481B9BDD081C185CDCD959 PUSH1 0x6A SHL PUSH1 0x44 DUP3 ADD MSTORE PUSH1 0x64 ADD PUSH2 0x52F JUMP JUMPDEST PUSH1 0x5 DUP1 SLOAD PUSH1 0x1 SWAP2 SWAP1 PUSH1 0xFF PUSH1 0xA0 SHL NOT AND PUSH1 0x1 PUSH1 0xA0 SHL DUP4 JUMPDEST MUL OR SWAP1 SSTORE POP JUMP JUMPDEST PUSH1 0x60 PUSH1 0x0 DUP1 PUSH1 0x0 DUP1 PUSH1 0x0 PUSH1 0x9 PUSH1 0x0 DUP9 PUSH1 0x1 PUSH1 0x1 PUSH1 0xA0 SHL SUB AND PUSH1 0x1 PUSH1 0x1 PUSH1 0xA0 SHL SUB AND DUP2 MSTORE PUSH1 0x20 ADD SWAP1 DUP2 MSTORE PUSH1 0x20 ADD PUSH1 0x0 KECCAK256 SWAP1 POP DUP1 PUSH1 0x1 ADD DUP2 PUSH1 0x2 ADD SLOAD DUP3 PUSH1 0x3 ADD SLOAD DUP4 PUSH1 0x4 ADD SLOAD DUP5 PUSH1 0x5 ADD SLOAD DUP5 DUP1 SLOAD DUP1 PUSH1 0x20 MUL PUSH1 0x20 ADD PUSH1 0x40 MLOAD SWAP1 DUP2 ADD PUSH1 0x40 MSTORE DUP1 SWAP3 SWAP2 SWAP1 DUP2 DUP2 MSTORE PUSH1 0x20 ADD DUP3 DUP1 SLOAD DUP1 ISZERO PUSH2 0x1590 JUMPI PUSH1 0x20 MUL DUP3 ADD SWAP2 SWAP1 PUSH1 0x0 MSTORE PUSH1 0x20 PUSH1 0x0 KECCAK256 SWAP1 JUMPDEST DUP2 SLOAD DUP2 MSTORE PUSH1 0x20 ADD SWAP1 PUSH1 0x1 ADD SWAP1 DUP1 DUP4 GT PUSH2 0x157C JUMPI JUMPDEST POP POP POP POP POP SWAP5 POP SWAP6 POP SWAP6 POP SWAP6 POP SWAP6 POP SWAP6 POP POP SWAP2 SWAP4 SWAP6 SWAP1 SWAP3 SWAP5 POP JUMP JUMPDEST PUSH1 0x0 PUSH1 0x5 SLOAD PUSH1 0x1 PUSH1 0xA0 SHL SWAP1 DIV PUSH1 0xFF AND PUSH1 0x3 DUP2 GT ISZERO PUSH2 0x15CB JUMPI PUSH2 0x15CB PUSH2 0x20E9 JUMP JUMPDEST EQ PUSH2 0x15E8 JUMPI PUSH1 0x40 MLOAD PUSH3 0x461BCD PUSH1 0xE5 SHL DUP2 MSTORE PUSH1 0x4 ADD PUSH2 0x52F SWAP1 PUSH2 0x242C JUMP JUMPDEST PUSH1 0x3 SLOAD TIMESTAMP LT PUSH2 0x1609 JUMPI PUSH1 0x40 MLOAD PUSH3 0x461BCD PUSH1 0xE5 SHL DUP2 MSTORE PUSH1 0x4 ADD PUSH2 0x52F SWAP1 PUSH2 0x2456 JUMP JUMPDEST CALLER PUSH1 0x0 SWAP1 DUP2 MSTORE PUSH1 0xB PUSH1 0x20 MSTORE PUSH1 0x40 SWAP1 KECCAK256 SLOAD PUSH1 0xFF AND PUSH2 0x165E JUMPI PUSH1 0x40 MLOAD PUSH3 0x461BCD PUSH1 0xE5 SHL DUP2 MSTORE PUSH1 0x20 PUSH1 0x4 DUP3 ADD MSTORE PUSH1 0x13 PUSH1 0x24 DUP3 ADD MSTORE PUSH19 0x14185E48195B9D1C9E4819995948199A5C9CDD PUSH1 0x6A SHL PUSH1 0x44 DUP3 ADD MSTORE PUSH1 0x64 ADD PUSH2 0x52F JUMP JUMPDEST CALLER PUSH1 0x0 SWAP1 DUP2 MSTORE PUSH1 0xA PUSH1 0x20 MSTORE PUSH1 0x40 SWAP1 KECCAK256 SLOAD PUSH1 0xFF AND ISZERO PUSH2 0x16AF JUMPI PUSH1 0x40 MLOAD PUSH3 0x461BCD PUSH1 0xE5 SHL DUP2 MSTORE PUSH1 0x20 PUSH1 0x4 DUP3 ADD MSTORE PUSH1 0xE PUSH1 0x24 DUP3 ADD MSTORE PUSH14 0x105B1C9958591E481A9BDA5B9959 PUSH1 0x92 SHL PUSH1 0x44 DUP3 ADD MSTORE PUSH1 0x64 ADD PUSH2 0x52F JUMP JUMPDEST PUSH1 0x4 SLOAD ISZERO DUP1 PUSH2 0x16C1 JUMPI POP PUSH1 0x4 SLOAD PUSH1 0x8 SLOAD LT JUMPDEST PUSH2 0x16DD JUMPI PUSH1 0x40 MLOAD PUSH3 0x461BCD PUSH1 0xE5 SHL DUP2 MSTORE PUSH1 0x4 ADD PUSH2 0x52F SWAP1 PUSH2 0x247F JUMP JUMPDEST PUSH2 0x16E9 DUP5 DUP5 DUP5 DUP5 PUSH2 0x1B23 JUMP JUMPDEST CALLER PUSH1 0x0 DUP2 DUP2 MSTORE PUSH1 0xA PUSH1 0x20 SWAP1 DUP2 MSTORE PUSH1 0x40 DUP1 DUP4 KECCAK256 DUP1 SLOAD PUSH1 0xFF NOT AND PUSH1 0x1 SWAP1 DUP2 OR SWAP1 SWAP2 SSTORE PUSH1 0x8 DUP1 SLOAD SWAP2 DUP3 ADD DUP2 SSTORE SWAP1 SWAP4 MSTORE PUSH32 0xF3F7A9FE364FAAB93B216DA50A3214154F22A0A2B415B23A84C8169E8B636EE3 SWAP1 SWAP3 ADD DUP1 SLOAD PUSH1 0x1 PUSH1 0x1 PUSH1 0xA0 SHL SUB NOT AND DUP5 OR SWAP1 SSTORE DUP2 MLOAD PUSH1 0xE0 DUP2 ADD DUP4 MSTORE SWAP3 DUP4 MSTORE DUP2 MLOAD DUP7 DUP3 MUL DUP2 DUP2 ADD DUP4 ADD SWAP1 SWAP4 MSTORE DUP7 DUP2 MSTORE DUP4 DUP3 ADD SWAP3 SWAP1 SWAP2 DUP9 SWAP2 DUP9 SWAP2 DUP3 SWAP2 SWAP1 DUP6 ADD SWAP1 DUP5 SWAP1 DUP1 DUP3 DUP5 CALLDATACOPY PUSH1 0x0 SWAP3 ADD DUP3 SWAP1 MSTORE POP SWAP4 DUP6 MSTORE POP POP POP PUSH1 0x20 DUP1 DUP4 ADD DUP7 SWAP1 MSTORE PUSH1 0x40 DUP1 DUP5 ADD DUP7 SWAP1 MSTORE PUSH1 0x60 DUP5 ADD DUP4 SWAP1 MSTORE PUSH1 0x80 DUP5 ADD DUP4 SWAP1 MSTORE PUSH1 0xA0 SWAP1 SWAP4 ADD DUP3 SWAP1 MSTORE CALLER DUP3 MSTORE PUSH1 0x9 DUP2 MSTORE SWAP2 SWAP1 KECCAK256 DUP3 MLOAD DUP2 SLOAD PUSH1 0x1 PUSH1 0x1 PUSH1 0xA0 SHL SUB NOT AND PUSH1 0x1 PUSH1 0x1 PUSH1 0xA0 SHL SUB SWAP1 SWAP2 AND OR DUP2 SSTORE DUP3 DUP3 ADD MLOAD DUP1 MLOAD SWAP2 SWAP3 PUSH2 0x17EE SWAP3 PUSH1 0x1 DUP6 ADD SWAP3 SWAP1 SWAP2 ADD SWAP1 PUSH2 0x2089 JUMP JUMPDEST POP PUSH1 0x40 DUP3 DUP2 ADD MLOAD PUSH1 0x2 DUP4 ADD SSTORE PUSH1 0x60 DUP4 ADD MLOAD PUSH1 0x3 DUP4 ADD SSTORE PUSH1 0x80 DUP4 ADD MLOAD PUSH1 0x4 DUP4 ADD SSTORE PUSH1 0xA0 DUP4 ADD MLOAD PUSH1 0x5 DUP4 ADD SSTORE PUSH1 0xC0 SWAP1 SWAP3 ADD MLOAD PUSH1 0x6 SWAP1 SWAP2 ADD DUP1 SLOAD PUSH1 0xFF NOT AND SWAP2 ISZERO ISZERO SWAP2 SWAP1 SWAP2 OR SWAP1 SSTORE MLOAD CALLER SWAP1 PUSH32 0x9528EEE1F5BCCA87D0565A519121286282B2588750410583E52BBB0CA34B2A17 SWAP1 PUSH2 0xB57 SWAP1 DUP8 SWAP1 DUP8 SWAP1 DUP8 SWAP1 DUP8 SWAP1 PUSH2 0x24CB JUMP JUMPDEST PUSH1 0x6 DUP2 DUP2 SLOAD DUP2 LT PUSH2 0x1878 JUMPI PUSH1 0x0 DUP1 REVERT JUMPDEST PUSH1 0x0 SWAP2 DUP3 MSTORE PUSH1 0x20 SWAP1 SWAP2 KECCAK256 ADD SLOAD SWAP1 POP DUP2 JUMP JUMPDEST PUSH1 0x5 SLOAD PUSH1 0x1 PUSH1 0x1 PUSH1 0xA0 SHL SUB AND CALLER EQ PUSH2 0x18B3 JUMPI PUSH1 0x40 MLOAD PUSH3 0x461BCD PUSH1 0xE5 SHL DUP2 MSTORE PUSH1 0x4 ADD PUSH2 0x52F SWAP1 PUSH2 0x2360 JUMP JUMPDEST PUSH1 0x2 PUSH1 0x5 SLOAD PUSH1 0x1 PUSH1 0xA0 SHL SWAP1 DIV PUSH1 0xFF AND PUSH1 0x3 DUP2 GT ISZERO PUSH2 0x18D3 JUMPI PUSH2 0x18D3 PUSH2 0x20E9 JUMP JUMPDEST EQ PUSH2 0x1913 JUMPI PUSH1 0x40 MLOAD PUSH3 0x461BCD PUSH1 0xE5 SHL DUP2 MSTORE PUSH1 0x20 PUSH1 0x4 DUP3 ADD MSTORE PUSH1 0x10 PUSH1 0x24 DUP3 ADD MSTORE PUSH16 0x135D5CDD081CD8DBDC9948199A5C9CDD PUSH1 0x82 SHL PUSH1 0x44 DUP3 ADD MSTORE PUSH1 0x64 ADD PUSH2 0x52F JUMP JUMPDEST PUSH1 0x5 DUP1 SLOAD PUSH1 0x3 SWAP2 SWAP1 PUSH1 0xFF PUSH1 0xA0 SHL NOT AND PUSH1 0x1 PUSH1 0xA0 SHL DUP4 PUSH2 0x14F5 JUMP JUMPDEST PUSH1 0x0 DUP1 JUMPDEST DUP5 MLOAD DUP2 LT ISZERO PUSH2 0x19F7 JUMPI PUSH1 0x0 PUSH1 0xC PUSH1 0x0 DUP8 DUP5 DUP2 MLOAD DUP2 LT PUSH2 0x1952 JUMPI PUSH2 0x1952 PUSH2 0x2383 JUMP JUMPDEST PUSH1 0x20 MUL PUSH1 0x20 ADD ADD MLOAD DUP2 MSTORE PUSH1 0x20 ADD SWAP1 DUP2 MSTORE PUSH1 0x20 ADD PUSH1 0x0 KECCAK256 SLOAD SWAP1 POP DUP5 DUP7 DUP4 DUP2 MLOAD DUP2 LT PUSH2 0x197E JUMPI PUSH2 0x197E PUSH2 0x2383 JUMP JUMPDEST PUSH1 0x20 MUL PUSH1 0x20 ADD ADD MLOAD SUB PUSH2 0x199D JUMPI PUSH2 0x1996 DUP2 PUSH1 0x2 PUSH2 0x2508 JUMP JUMPDEST SWAP1 POP PUSH2 0x19D7 JUMP JUMPDEST DUP4 DUP7 DUP4 DUP2 MLOAD DUP2 LT PUSH2 0x19B0 JUMPI PUSH2 0x19B0 PUSH2 0x2383 JUMP JUMPDEST PUSH1 0x20 MUL PUSH1 0x20 ADD ADD MLOAD SUB PUSH2 0x19D7 JUMPI PUSH1 0x2 PUSH2 0x19CA DUP3 PUSH1 0x3 PUSH2 0x2508 JUMP JUMPDEST PUSH2 0x19D4 SWAP2 SWAP1 PUSH2 0x251F JUMP JUMPDEST SWAP1 POP JUMPDEST PUSH2 0x19E1 DUP2 DUP5 PUSH2 0x24A5 JUMP JUMPDEST SWAP3 POP POP DUP1 DUP1 PUSH2 0x19EF SWAP1 PUSH2 0x23AF JUMP JUMPDEST SWAP2 POP POP PUSH2 0x1931 JUMP JUMPDEST POP SWAP4 SWAP3 POP POP POP JUMP JUMPDEST PUSH1 0x8 SLOAD PUSH1 0x1 JUMPDEST DUP2 DUP2 GT PUSH2 0x1B1F JUMPI PUSH1 0x0 NOT PUSH1 0x0 DUP1 JUMPDEST DUP5 DUP2 LT ISZERO PUSH2 0x1ABF JUMPI PUSH1 0x0 PUSH1 0x8 DUP3 DUP2 SLOAD DUP2 LT PUSH2 0x1A30 JUMPI PUSH2 0x1A30 PUSH2 0x2383 JUMP JUMPDEST PUSH1 0x0 SWAP2 DUP3 MSTORE PUSH1 0x20 DUP1 DUP4 KECCAK256 SWAP1 SWAP2 ADD SLOAD PUSH1 0x1 PUSH1 0x1 PUSH1 0xA0 SHL SUB AND DUP1 DUP4 MSTORE PUSH1 0x9 SWAP1 SWAP2 MSTORE PUSH1 0x40 SWAP1 SWAP2 KECCAK256 PUSH1 0x5 ADD SLOAD SWAP1 SWAP2 POP ISZERO DUP1 ISZERO PUSH2 0x1A82 JUMPI POP PUSH1 0x1 PUSH1 0x1 PUSH1 0xA0 SHL SUB DUP2 AND PUSH1 0x0 SWAP1 DUP2 MSTORE PUSH1 0x9 PUSH1 0x20 MSTORE PUSH1 0x40 SWAP1 KECCAK256 PUSH1 0x4 ADD SLOAD DUP4 LT JUMPDEST ISZERO PUSH2 0x1AAC JUMPI PUSH1 0x1 PUSH1 0x1 PUSH1 0xA0 SHL SUB DUP2 AND PUSH1 0x0 SWAP1 DUP2 MSTORE PUSH1 0x9 PUSH1 0x20 MSTORE PUSH1 0x40 SWAP1 KECCAK256 PUSH1 0x4 ADD SLOAD SWAP2 SWAP4 POP SWAP1 SWAP2 POP DUP3 SWAP1 JUMPDEST POP DUP1 PUSH2 0x1AB7 DUP2 PUSH2 0x23AF JUMP JUMPDEST SWAP2 POP POP PUSH2 0x1A13 JUMP JUMPDEST POP PUSH1 0x0 NOT DUP3 EQ PUSH2 0x1B0A JUMPI DUP3 PUSH1 0x9 PUSH1 0x0 PUSH1 0x8 DUP6 DUP2 SLOAD DUP2 LT PUSH2 0x1AE1 JUMPI PUSH2 0x1AE1 PUSH2 0x2383 JUMP JUMPDEST PUSH1 0x0 SWAP2 DUP3 MSTORE PUSH1 0x20 DUP1 DUP4 KECCAK256 SWAP1 SWAP2 ADD SLOAD PUSH1 0x1 PUSH1 0x1 PUSH1 0xA0 SHL SUB AND DUP4 MSTORE DUP3 ADD SWAP3 SWAP1 SWAP3 MSTORE PUSH1 0x40 ADD SWAP1 KECCAK256 PUSH1 0x5 ADD SSTORE JUMPDEST POP POP DUP1 DUP1 PUSH2 0x1B17 SWAP1 PUSH2 0x23AF JUMP JUMPDEST SWAP2 POP POP PUSH2 0x1A05 JUMP JUMPDEST POP POP JUMP JUMPDEST PUSH1 0xB DUP4 EQ PUSH2 0x1B6A JUMPI PUSH1 0x40 MLOAD PUSH3 0x461BCD PUSH1 0xE5 SHL DUP2 MSTORE PUSH1 0x20 PUSH1 0x4 DUP3 ADD MSTORE PUSH1 0x14 PUSH1 0x24 DUP3 ADD MSTORE PUSH20 0x4D757374206861766520313120706C6179657273 PUSH1 0x60 SHL PUSH1 0x44 DUP3 ADD MSTORE PUSH1 0x64 ADD PUSH2 0x52F JUMP JUMPDEST DUP1 DUP3 SUB PUSH2 0x1BB0 JUMPI PUSH1 0x40 MLOAD PUSH3 0x461BCD PUSH1 0xE5 SHL DUP2 MSTORE PUSH1 0x20 PUSH1 0x4 DUP3 ADD MSTORE PUSH1 0x14 PUSH1 0x24 DUP3 ADD MSTORE PUSH20 0x219030B732102B219036BAB9BA103234B33332B9 PUSH1 0x61 SHL PUSH1 0x44 DUP3 ADD MSTORE PUSH1 0x64 ADD PUSH2 0x52F JUMP JUMPDEST PUSH1 0x0 DUP1 PUSH1 0x0 DUP1 PUSH1 0x0 DUP1 PUSH1 0x0 DUP1 PUSH1 0x0 DUP1 JUMPDEST DUP13 DUP2 LT ISZERO PUSH2 0x1DE7 JUMPI PUSH1 0x0 DUP15 DUP15 DUP4 DUP2 DUP2 LT PUSH2 0x1BDC JUMPI PUSH2 0x1BDC PUSH2 0x2383 JUMP JUMPDEST PUSH1 0x0 DUP1 SLOAD PUSH1 0x1 SLOAD PUSH1 0x40 MLOAD PUSH4 0xEFF09BD7 PUSH1 0xE0 SHL DUP2 MSTORE PUSH1 0x4 DUP2 ADD SWAP2 SWAP1 SWAP2 MSTORE PUSH1 0x20 SWAP4 SWAP1 SWAP4 MUL SWAP5 SWAP1 SWAP5 ADD CALLDATALOAD PUSH1 0x24 DUP4 ADD DUP2 SWAP1 MSTORE SWAP5 POP SWAP3 PUSH1 0x1 PUSH1 0x1 PUSH1 0xA0 SHL SUB AND SWAP2 POP PUSH4 0xEFF09BD7 SWAP1 PUSH1 0x44 ADD PUSH1 0x0 PUSH1 0x40 MLOAD DUP1 DUP4 SUB DUP2 DUP7 GAS STATICCALL ISZERO DUP1 ISZERO PUSH2 0x1C3E JUMPI RETURNDATASIZE PUSH1 0x0 DUP1 RETURNDATACOPY RETURNDATASIZE PUSH1 0x0 REVERT JUMPDEST POP POP POP POP PUSH1 0x40 MLOAD RETURNDATASIZE PUSH1 0x0 DUP3 RETURNDATACOPY PUSH1 0x1F RETURNDATASIZE SWAP1 DUP2 ADD PUSH1 0x1F NOT AND DUP3 ADD PUSH1 0x40 MSTORE PUSH2 0x1C66 SWAP2 SWAP1 DUP2 ADD SWAP1 PUSH2 0x2636 JUMP JUMPDEST SWAP1 POP PUSH1 0x0 DUP2 PUSH1 0x40 ADD MLOAD PUSH1 0xFF AND GT PUSH2 0x1CB0 JUMPI PUSH1 0x40 MLOAD PUSH3 0x461BCD PUSH1 0xE5 SHL DUP2 MSTORE PUSH1 0x20 PUSH1 0x4 DUP3 ADD MSTORE PUSH1 0xE PUSH1 0x24 DUP3 ADD MSTORE PUSH14 0x24B73B30B634B210383630BCB2B9 PUSH1 0x91 SHL PUSH1 0x44 DUP3 ADD MSTORE PUSH1 0x64 ADD PUSH2 0x52F JUMP JUMPDEST DUP14 DUP3 SUB PUSH2 0x1CBC JUMPI PUSH1 0x1 SWAP12 POP JUMPDEST DUP13 DUP3 SUB PUSH2 0x1CC8 JUMPI PUSH1 0x1 SWAP11 POP JUMPDEST PUSH1 0x40 DUP2 ADD MLOAD PUSH2 0x1CDA SWAP1 PUSH1 0xFF AND DUP12 PUSH2 0x24A5 JUMP JUMPDEST SWAP10 POP PUSH1 0x0 DUP2 PUSH1 0x20 ADD MLOAD PUSH1 0x3 DUP2 GT ISZERO PUSH2 0x1CF4 JUMPI PUSH2 0x1CF4 PUSH2 0x20E9 JUMP JUMPDEST SUB PUSH2 0x1D0B JUMPI DUP9 PUSH2 0x1D03 DUP2 PUSH2 0x26E6 JUMP JUMPDEST SWAP10 POP POP PUSH2 0x1D94 JUMP JUMPDEST PUSH1 0x1 DUP2 PUSH1 0x20 ADD MLOAD PUSH1 0x3 DUP2 GT ISZERO PUSH2 0x1D23 JUMPI PUSH2 0x1D23 PUSH2 0x20E9 JUMP JUMPDEST SUB PUSH2 0x1D3A JUMPI DUP8 PUSH2 0x1D32 DUP2 PUSH2 0x26E6 JUMP JUMPDEST SWAP9 POP POP PUSH2 0x1D94 JUMP JUMPDEST PUSH1 0x2 DUP2 PUSH1 0x20 ADD MLOAD PUSH1 0x3 DUP2 GT ISZERO PUSH2 0x1D52 JUMPI PUSH2 0x1D52 PUSH2 0x20E9 JUMP JUMPDEST SUB PUSH2 0x1D69 JUMPI DUP7 PUSH2 0x1D61 DUP2 PUSH2 0x26E6 JUMP JUMPDEST SWAP8 POP POP PUSH2 0x1D94 JUMP JUMPDEST PUSH1 0x3 DUP2 PUSH1 0x20 ADD MLOAD PUSH1 0x3 DUP2 GT ISZERO PUSH2 0x1D81 JUMPI PUSH2 0x1D81 PUSH2 0x20E9 JUMP JUMPDEST SUB PUSH2 0x1D94 JUMPI DUP6 PUSH2 0x1D90 DUP2 PUSH2 0x26E6 JUMP JUMPDEST SWAP7 POP POP JUMPDEST DUP1 PUSH1 0x80 ADD MLOAD PUSH1 0xFF AND PUSH1 0x0 SUB PUSH2 0x1DB5 JUMPI DUP5 PUSH2 0x1DAD DUP2 PUSH2 0x26E6 JUMP JUMPDEST SWAP6 POP POP PUSH2 0x1DD2 JUMP JUMPDEST DUP1 PUSH1 0x80 ADD MLOAD PUSH1 0xFF AND PUSH1 0x1 SUB PUSH2 0x1DD2 JUMPI DUP4 PUSH2 0x1DCE DUP2 PUSH2 0x26E6 JUMP JUMPDEST SWAP5 POP POP JUMPDEST POP POP DUP1 DUP1 PUSH2 0x1DDF SWAP1 PUSH2 0x23AF JUMP JUMPDEST SWAP2 POP POP PUSH2 0x1BC0 JUMP JUMPDEST POP DUP9 DUP1 ISZERO PUSH2 0x1DF2 JUMPI POP DUP8 JUMPDEST PUSH2 0x1E3E JUMPI PUSH1 0x40 MLOAD PUSH3 0x461BCD PUSH1 0xE5 SHL DUP2 MSTORE PUSH1 0x20 PUSH1 0x4 DUP3 ADD MSTORE PUSH1 0x18 PUSH1 0x24 DUP3 ADD MSTORE PUSH32 0x4320616E64205643206D75737420626520696E207465616D0000000000000000 PUSH1 0x44 DUP3 ADD MSTORE PUSH1 0x64 ADD PUSH2 0x52F JUMP JUMPDEST PUSH1 0x64 DUP8 GT ISZERO PUSH2 0x1E81 JUMPI PUSH1 0x40 MLOAD PUSH3 0x461BCD PUSH1 0xE5 SHL DUP2 MSTORE PUSH1 0x20 PUSH1 0x4 DUP3 ADD MSTORE PUSH1 0xF PUSH1 0x24 DUP3 ADD MSTORE PUSH15 0x109D5919D95D08195E18D959591959 PUSH1 0x8A SHL PUSH1 0x44 DUP3 ADD MSTORE PUSH1 0x64 ADD PUSH2 0x52F JUMP JUMPDEST PUSH1 0x1 DUP7 PUSH1 0xFF AND LT ISZERO PUSH2 0x1ECA JUMPI PUSH1 0x40 MLOAD PUSH3 0x461BCD PUSH1 0xE5 SHL DUP2 MSTORE PUSH1 0x20 PUSH1 0x4 DUP3 ADD MSTORE PUSH1 0x12 PUSH1 0x24 DUP3 ADD MSTORE PUSH18 0x4E656564206174206C65617374203120574B PUSH1 0x70 SHL PUSH1 0x44 DUP3 ADD MSTORE PUSH1 0x64 ADD PUSH2 0x52F JUMP JUMPDEST PUSH1 0x1 DUP6 PUSH1 0xFF AND LT ISZERO DUP1 ISZERO PUSH2 0x1EE2 JUMPI POP PUSH1 0x8 DUP6 PUSH1 0xFF AND GT ISZERO JUMPDEST PUSH2 0x1F1D JUMPI PUSH1 0x40 MLOAD PUSH3 0x461BCD PUSH1 0xE5 SHL DUP2 MSTORE PUSH1 0x20 PUSH1 0x4 DUP3 ADD MSTORE PUSH1 0xC PUSH1 0x24 DUP3 ADD MSTORE PUSH12 0x13995959080C4B4E08109055 PUSH1 0xA2 SHL PUSH1 0x44 DUP3 ADD MSTORE PUSH1 0x64 ADD PUSH2 0x52F JUMP JUMPDEST PUSH1 0x1 DUP5 PUSH1 0xFF AND LT ISZERO DUP1 ISZERO PUSH2 0x1F35 JUMPI POP PUSH1 0x8 DUP5 PUSH1 0xFF AND GT ISZERO JUMPDEST PUSH2 0x1F6F JUMPI PUSH1 0x40 MLOAD PUSH3 0x461BCD PUSH1 0xE5 SHL DUP2 MSTORE PUSH1 0x20 PUSH1 0x4 DUP3 ADD MSTORE PUSH1 0xB PUSH1 0x24 DUP3 ADD MSTORE PUSH11 0x2732B2B21018969C1020A9 PUSH1 0xA9 SHL PUSH1 0x44 DUP3 ADD MSTORE PUSH1 0x64 ADD PUSH2 0x52F JUMP JUMPDEST PUSH1 0x1 DUP4 PUSH1 0xFF AND LT ISZERO DUP1 ISZERO PUSH2 0x1F87 JUMPI POP PUSH1 0x8 DUP4 PUSH1 0xFF AND GT ISZERO JUMPDEST PUSH2 0x1FC3 JUMPI PUSH1 0x40 MLOAD PUSH3 0x461BCD PUSH1 0xE5 SHL DUP2 MSTORE PUSH1 0x20 PUSH1 0x4 DUP3 ADD MSTORE PUSH1 0xD PUSH1 0x24 DUP3 ADD MSTORE PUSH13 0x13995959080C4B4E081093D5D3 PUSH1 0x9A SHL PUSH1 0x44 DUP3 ADD MSTORE PUSH1 0x64 ADD PUSH2 0x52F JUMP JUMPDEST PUSH1 0xA DUP3 PUSH1 0xFF AND GT ISZERO DUP1 ISZERO PUSH2 0x1FDB JUMPI POP PUSH1 0xA DUP2 PUSH1 0xFF AND GT ISZERO JUMPDEST PUSH2 0x201E JUMPI PUSH1 0x40 MLOAD PUSH3 0x461BCD PUSH1 0xE5 SHL DUP2 MSTORE PUSH1 0x20 PUSH1 0x4 DUP3 ADD MSTORE PUSH1 0x14 PUSH1 0x24 DUP3 ADD MSTORE PUSH20 0x4D61782031302066726F6D206F6E65207465616D PUSH1 0x60 SHL PUSH1 0x44 DUP3 ADD MSTORE PUSH1 0x64 ADD PUSH2 0x52F JUMP JUMPDEST POP POP POP POP POP POP POP POP POP POP POP POP POP JUMP JUMPDEST PUSH1 0x6 SLOAD PUSH1 0x0 SWAP1 DUP3 GT ISZERO PUSH2 0x2042 JUMPI POP PUSH1 0x0 SWAP2 SWAP1 POP JUMP JUMPDEST PUSH1 0x64 PUSH1 0x6 PUSH2 0x2051 PUSH1 0x1 DUP6 PUSH2 0x24B8 JUMP JUMPDEST DUP2 SLOAD DUP2 LT PUSH2 0x2061 JUMPI PUSH2 0x2061 PUSH2 0x2383 JUMP JUMPDEST SWAP1 PUSH1 0x0 MSTORE PUSH1 0x20 PUSH1 0x0 KECCAK256 ADD SLOAD PUSH1 0x7 SLOAD PUSH2 0x2079 SWAP2 SWAP1 PUSH2 0x2508 JUMP JUMPDEST PUSH2 0x2083 SWAP2 SWAP1 PUSH2 0x251F JUMP JUMPDEST SWAP3 SWAP2 POP POP JUMP JUMPDEST DUP3 DUP1 SLOAD DUP3 DUP3 SSTORE SWAP1 PUSH1 0x0 MSTORE PUSH1 0x20 PUSH1 0x0 KECCAK256 SWAP1 DUP2 ADD SWAP3 DUP3 ISZERO PUSH2 0x20C4 JUMPI SWAP2 PUSH1 0x20 MUL DUP3 ADD JUMPDEST DUP3 DUP2 GT ISZERO PUSH2 0x20C4 JUMPI DUP3 MLOAD DUP3 SSTORE SWAP2 PUSH1 0x20 ADD SWAP2 SWAP1 PUSH1 0x1 ADD SWAP1 PUSH2 0x20A9 JUMP JUMPDEST POP PUSH2 0x20D0 SWAP3 SWAP2 POP PUSH2 0x20D4 JUMP JUMPDEST POP SWAP1 JUMP JUMPDEST JUMPDEST DUP1 DUP3 GT ISZERO PUSH2 0x20D0 JUMPI PUSH1 0x0 DUP2 SSTORE PUSH1 0x1 ADD PUSH2 0x20D5 JUMP JUMPDEST PUSH4 0x4E487B71 PUSH1 0xE0 SHL PUSH1 0x0 MSTORE PUSH1 0x21 PUSH1 0x4 MSTORE PUSH1 0x24 PUSH1 0x0 REVERT JUMPDEST PUSH1 0x20 DUP2 ADD PUSH1 0x4 DUP4 LT PUSH2 0x2121 JUMPI PUSH4 0x4E487B71 PUSH1 0xE0 SHL PUSH1 0x0 MSTORE PUSH1 0x21 PUSH1 0x4 MSTORE PUSH1 0x24 PUSH1 0x0 REVERT JUMPDEST SWAP2 SWAP1 MSTORE SWAP1 JUMP JUMPDEST PUSH1 0x0 PUSH1 0x20 DUP3 DUP5 SUB SLT ISZERO PUSH2 0x2139 JUMPI PUSH1 0x0 DUP1 REVERT JUMPDEST POP CALLDATALOAD SWAP2 SWAP1 POP JUMP JUMPDEST PUSH1 0x0 DUP1 DUP4 PUSH1 0x1F DUP5 ADD SLT PUSH2 0x2152 JUMPI PUSH1 0x0 DUP1 REVERT JUMPDEST POP DUP2 CALLDATALOAD PUSH8 0xFFFFFFFFFFFFFFFF DUP2 GT ISZERO PUSH2 0x216A JUMPI PUSH1 0x0 DUP1 REVERT JUMPDEST PUSH1 0x20 DUP4 ADD SWAP2 POP DUP4 PUSH1 0x20 DUP3 PUSH1 0x5 SHL DUP6 ADD ADD GT ISZERO PUSH2 0x2185 JUMPI PUSH1 0x0 DUP1 REVERT JUMPDEST SWAP3 POP SWAP3 SWAP1 POP JUMP JUMPDEST PUSH1 0x0 DUP1 PUSH1 0x0 DUP1 PUSH1 0x40 DUP6 DUP8 SUB SLT ISZERO PUSH2 0x21A2 JUMPI PUSH1 0x0 DUP1 REVERT JUMPDEST DUP5 CALLDATALOAD PUSH8 0xFFFFFFFFFFFFFFFF DUP1 DUP3 GT ISZERO PUSH2 0x21BA JUMPI PUSH1 0x0 DUP1 REVERT JUMPDEST PUSH2 0x21C6 DUP9 DUP4 DUP10 ADD PUSH2 0x2140 JUMP JUMPDEST SWAP1 SWAP7 POP SWAP5 POP PUSH1 0x20 DUP8 ADD CALLDATALOAD SWAP2 POP DUP1 DUP3 GT ISZERO PUSH2 0x21DF JUMPI PUSH1 0x0 DUP1 REVERT JUMPDEST POP PUSH2 0x21EC DUP8 DUP3 DUP9 ADD PUSH2 0x2140 JUMP JUMPDEST SWAP6 SWAP9 SWAP5 SWAP8 POP SWAP6 POP POP POP POP JUMP JUMPDEST PUSH1 0x0 DUP1 PUSH1 0x0 DUP1 PUSH1 0x60 DUP6 DUP8 SUB SLT ISZERO PUSH2 0x220E JUMPI PUSH1 0x0 DUP1 REVERT JUMPDEST DUP5 CALLDATALOAD PUSH8 0xFFFFFFFFFFFFFFFF DUP2 GT ISZERO PUSH2 0x2225 JUMPI PUSH1 0x0 DUP1 REVERT JUMPDEST PUSH2 0x2231 DUP8 DUP3 DUP9 ADD PUSH2 0x2140 JUMP JUMPDEST SWAP1 SWAP9 SWAP1 SWAP8 POP PUSH1 0x20 DUP8 ADD CALLDATALOAD SWAP7 PUSH1 0x40 ADD CALLDATALOAD SWAP6 POP SWAP4 POP POP POP POP JUMP JUMPDEST PUSH1 0x0 DUP2 MLOAD DUP1 DUP5 MSTORE PUSH1 0x20 DUP1 DUP6 ADD SWAP5 POP DUP1 DUP5 ADD PUSH1 0x0 JUMPDEST DUP4 DUP2 LT ISZERO PUSH2 0x2279 JUMPI DUP2 MLOAD DUP8 MSTORE SWAP6 DUP3 ADD SWAP6 SWAP1 DUP3 ADD SWAP1 PUSH1 0x1 ADD PUSH2 0x225D JUMP JUMPDEST POP SWAP5 SWAP6 SWAP5 POP POP POP POP POP JUMP JUMPDEST PUSH1 0x60 DUP1 DUP3 MSTORE DUP5 MLOAD SWAP1 DUP3 ADD DUP2 SWAP1 MSTORE PUSH1 0x0 SWAP1 PUSH1 0x20 SWAP1 PUSH1 0x80 DUP5 ADD SWAP1 DUP3 DUP9 ADD DUP5 JUMPDEST DUP3 DUP2 LT ISZERO PUSH2 0x22C6 JUMPI DUP2 MLOAD PUSH1 0x1 PUSH1 0x1 PUSH1 0xA0 SHL SUB AND DUP5 MSTORE SWAP3 DUP5 ADD SWAP3 SWAP1 DUP5 ADD SWAP1 PUSH1 0x1 ADD PUSH2 0x22A1 JUMP JUMPDEST POP POP POP DUP4 DUP2 SUB DUP3 DUP6 ADD MSTORE PUSH2 0x22DA DUP2 DUP8 PUSH2 0x2249 JUMP JUMPDEST SWAP2 POP POP DUP3 DUP2 SUB PUSH1 0x40 DUP5 ADD MSTORE PUSH2 0x22EF DUP2 DUP6 PUSH2 0x2249 JUMP JUMPDEST SWAP7 SWAP6 POP POP POP POP POP POP JUMP JUMPDEST PUSH1 0x0 PUSH1 0x20 DUP3 DUP5 SUB SLT ISZERO PUSH2 0x230B JUMPI PUSH1 0x0 DUP1 REVERT JUMPDEST DUP2 CALLDATALOAD PUSH1 0x1 PUSH1 0x1 PUSH1 0xA0 SHL SUB DUP2 AND DUP2 EQ PUSH2 0x2322 JUMPI PUSH1 0x0 DUP1 REVERT JUMPDEST SWAP4 SWAP3 POP POP POP JUMP JUMPDEST PUSH1 0xA0 DUP2 MSTORE PUSH1 0x0 PUSH2 0x233C PUSH1 0xA0 DUP4 ADD DUP9 PUSH2 0x2249 JUMP JUMPDEST SWAP1 POP DUP6 PUSH1 0x20 DUP4 ADD MSTORE DUP5 PUSH1 0x40 DUP4 ADD MSTORE DUP4 PUSH1 0x60 DUP4 ADD MSTORE DUP3 PUSH1 0x80 DUP4 ADD MSTORE SWAP7 SWAP6 POP POP POP POP POP POP JUMP JUMPDEST PUSH1 0x20 DUP1 DUP3 MSTORE PUSH1 0x9 SWAP1 DUP3 ADD MSTORE PUSH9 0x2737BA1030B236B4B7 PUSH1 0xB9 SHL PUSH1 0x40 DUP3 ADD MSTORE PUSH1 0x60 ADD SWAP1 JUMP JUMPDEST PUSH4 0x4E487B71 PUSH1 0xE0 SHL PUSH1 0x0 MSTORE PUSH1 0x32 PUSH1 0x4 MSTORE PUSH1 0x24 PUSH1 0x0 REVERT JUMPDEST PUSH4 0x4E487B71 PUSH1 0xE0 SHL PUSH1 0x0 MSTORE PUSH1 0x11 PUSH1 0x4 MSTORE PUSH1 0x24 PUSH1 0x0 REVERT JUMPDEST PUSH1 0x0 PUSH1 0x1 DUP3 ADD PUSH2 0x23C1 JUMPI PUSH2 0x23C1 PUSH2 0x2399 JUMP JUMPDEST POP PUSH1 0x1 ADD SWAP1 JUMP JUMPDEST DUP2 DUP4 MSTORE PUSH1 0x0 PUSH1 0x1 PUSH1 0x1 PUSH1 0xFB SHL SUB DUP4 GT ISZERO PUSH2 0x23E1 JUMPI PUSH1 0x0 DUP1 REVERT JUMPDEST DUP3 PUSH1 0x5 SHL DUP1 DUP4 PUSH1 0x20 DUP8 ADD CALLDATACOPY SWAP4 SWAP1 SWAP4 ADD PUSH1 0x20 ADD SWAP4 SWAP3 POP POP POP JUMP JUMPDEST PUSH1 0x40 DUP2 MSTORE PUSH1 0x0 PUSH2 0x240E PUSH1 0x40 DUP4 ADD DUP7 DUP9 PUSH2 0x23C8 JUMP JUMPDEST DUP3 DUP2 SUB PUSH1 0x20 DUP5 ADD MSTORE PUSH2 0x2421 DUP2 DUP6 DUP8 PUSH2 0x23C8 JUMP JUMPDEST SWAP8 SWAP7 POP POP POP POP POP POP POP JUMP JUMPDEST PUSH1 0x20 DUP1 DUP3 MSTORE PUSH1 0x10 SWAP1 DUP3 ADD MSTORE PUSH16 0x21B7B73A32B9BA103737BA1037B832B7 PUSH1 0x81 SHL PUSH1 0x40 DUP3 ADD MSTORE PUSH1 0x60 ADD SWAP1 JUMP JUMPDEST PUSH1 0x20 DUP1 DUP3 MSTORE PUSH1 0xF SWAP1 DUP3 ADD MSTORE PUSH15 0x111958591B1A5B99481C185CDCD959 PUSH1 0x8A SHL PUSH1 0x40 DUP3 ADD MSTORE PUSH1 0x60 ADD SWAP1 JUMP JUMPDEST PUSH1 0x20 DUP1 DUP3 MSTORE PUSH1 0xC SWAP1 DUP3 ADD MSTORE PUSH12 0x10DBDB9D195CDD08199D5B1B PUSH1 0xA2 SHL PUSH1 0x40 DUP3 ADD MSTORE PUSH1 0x60 ADD SWAP1 JUMP JUMPDEST DUP1 DUP3 ADD DUP1 DUP3 GT ISZERO PUSH2 0x2083 JUMPI PUSH2 0x2083 PUSH2 0x2399 JUMP JUMPDEST DUP2 DUP2 SUB DUP2 DUP2 GT ISZERO PUSH2 0x2083 JUMPI PUSH2 0x2083 PUSH2 0x2399 JUMP JUMPDEST PUSH1 0x60 DUP2 MSTORE PUSH1 0x0 PUSH2 0x24DF PUSH1 0x60 DUP4 ADD DUP7 DUP9 PUSH2 0x23C8 JUMP JUMPDEST PUSH1 0x20 DUP4 ADD SWAP5 SWAP1 SWAP5 MSTORE POP PUSH1 0x40 ADD MSTORE SWAP3 SWAP2 POP POP JUMP JUMPDEST PUSH4 0x4E487B71 PUSH1 0xE0 SHL PUSH1 0x0 MSTORE PUSH1 0x41 PUSH1 0x4 MSTORE PUSH1 0x24 PUSH1 0x0 REVERT JUMPDEST DUP1 DUP3 MUL DUP2 ISZERO DUP3 DUP3 DIV DUP5 EQ OR PUSH2 0x2083 JUMPI PUSH2 0x2083 PUSH2 0x2399 JUMP JUMPDEST PUSH1 0x0 DUP3 PUSH2 0x253C JUMPI PUSH4 0x4E487B71 PUSH1 0xE0 SHL PUSH1 0x0 MSTORE PUSH1 0x12 PUSH1 0x4 MSTORE PUSH1 0x24 PUSH1 0x0 REVERT JUMPDEST POP DIV SWAP1 JUMP JUMPDEST PUSH1 0x40 MLOAD PUSH1 0xA0 DUP2 ADD PUSH8 0xFFFFFFFFFFFFFFFF DUP2 GT DUP3 DUP3 LT OR ISZERO PUSH2 0x2564 JUMPI PUSH2 0x2564 PUSH2 0x24F2 JUMP JUMPDEST PUSH1 0x40 MSTORE SWAP1 JUMP JUMPDEST PUSH1 0x40 MLOAD PUSH1 0x1F DUP3 ADD PUSH1 0x1F NOT AND DUP2 ADD PUSH8 0xFFFFFFFFFFFFFFFF DUP2 GT DUP3 DUP3 LT OR ISZERO PUSH2 0x2593 JUMPI PUSH2 0x2593 PUSH2 0x24F2 JUMP JUMPDEST PUSH1 0x40 MSTORE SWAP2 SWAP1 POP JUMP JUMPDEST DUP1 MLOAD PUSH1 0xFF DUP2 AND DUP2 EQ PUSH2 0x25AC JUMPI PUSH1 0x0 DUP1 REVERT JUMPDEST SWAP2 SWAP1 POP JUMP JUMPDEST PUSH1 0x0 DUP3 PUSH1 0x1F DUP4 ADD SLT PUSH2 0x25C2 JUMPI PUSH1 0x0 DUP1 REVERT JUMPDEST DUP2 MLOAD PUSH8 0xFFFFFFFFFFFFFFFF DUP2 GT ISZERO PUSH2 0x25DC JUMPI PUSH2 0x25DC PUSH2 0x24F2 JUMP JUMPDEST PUSH1 0x20 PUSH2 0x25F0 PUSH1 0x1F DUP4 ADD PUSH1 0x1F NOT AND DUP3 ADD PUSH2 0x256A JUMP JUMPDEST DUP3 DUP2 MSTORE DUP6 DUP3 DUP5 DUP8 ADD ADD GT ISZERO PUSH2 0x2604 JUMPI PUSH1 0x0 DUP1 REVERT JUMPDEST PUSH1 0x0 JUMPDEST DUP4 DUP2 LT ISZERO PUSH2 0x2622 JUMPI DUP6 DUP2 ADD DUP4 ADD MLOAD DUP3 DUP3 ADD DUP5 ADD MSTORE DUP3 ADD PUSH2 0x2607 JUMP JUMPDEST POP PUSH1 0x0 SWAP3 DUP2 ADD SWAP1 SWAP2 ADD SWAP2 SWAP1 SWAP2 MSTORE SWAP4 SWAP3 POP POP POP JUMP JUMPDEST PUSH1 0x0 PUSH1 0x20 DUP3 DUP5 SUB SLT ISZERO PUSH2 0x2648 JUMPI PUSH1 0x0 DUP1 REVERT JUMPDEST DUP2 MLOAD PUSH8 0xFFFFFFFFFFFFFFFF DUP1 DUP3 GT ISZERO PUSH2 0x2660 JUMPI PUSH1 0x0 DUP1 REVERT JUMPDEST SWAP1 DUP4 ADD SWAP1 PUSH1 0xA0 DUP3 DUP7 SUB SLT ISZERO PUSH2 0x2674 JUMPI PUSH1 0x0 DUP1 REVERT JUMPDEST PUSH2 0x267C PUSH2 0x2541 JUMP JUMPDEST DUP3 MLOAD DUP2 MSTORE PUSH1 0x20 DUP4 ADD MLOAD PUSH1 0x4 DUP2 LT PUSH2 0x2692 JUMPI PUSH1 0x0 DUP1 REVERT JUMPDEST PUSH1 0x20 DUP3 ADD MSTORE PUSH2 0x26A3 PUSH1 0x40 DUP5 ADD PUSH2 0x259B JUMP JUMPDEST PUSH1 0x40 DUP3 ADD MSTORE PUSH1 0x60 DUP4 ADD MLOAD DUP3 DUP2 GT ISZERO PUSH2 0x26BA JUMPI PUSH1 0x0 DUP1 REVERT JUMPDEST PUSH2 0x26C6 DUP8 DUP3 DUP7 ADD PUSH2 0x25B1 JUMP JUMPDEST PUSH1 0x60 DUP4 ADD MSTORE POP PUSH2 0x26D8 PUSH1 0x80 DUP5 ADD PUSH2 0x259B JUMP JUMPDEST PUSH1 0x80 DUP3 ADD MSTORE SWAP6 SWAP5 POP POP POP POP POP JUMP JUMPDEST PUSH1 0x0 PUSH1 0xFF DUP3 AND PUSH1 0xFF DUP2 SUB PUSH2 0x26FC JUMPI PUSH2 0x26FC PUSH2 0x2399 JUMP JUMPDEST PUSH1 0x1 ADD SWAP3 SWAP2 POP POP JUMP INVALID LOG2 PUSH5 0x6970667358 0x22 SLT KECCAK256 0xD 0xD0 SWAP12 EQ 0xB2 0xC1 0x1F 0xED MUL 0xEB 0xC4 SAR DUP2 SHL PUSH9 0xB7F083663865DBDBF6 0xBD PUSH26 0xFD2ABB1FF04864736F6C63430008140033A26469706673582212 KECCAK256 COINBASE 0x1E 0xE8 0xE2 SWAP5 SWAP5 SWAP11 GASPRICE DELEGATECALL 0xA8 0x1F GT JUMPI DUP1 0x4F MSIZE COINBASE PUSH26 0x7822D61772AD3D0A2B82F1FAB95364736F6C6343000814003300 "},"methodIdentifiers":{"admin()":"f851a440","contests(uint256)":"9d7ed738","createContest(uint256,uint256,uint256,uint256,uint256[])":"0d4addc8","getContestCount()":"64c3c166","getContests()":"bfaba76a","playerRegistry()":"4c74ef9c"}}}}}