{"contracts/ContestFactory.sol":{"ContestFactory":{"abi":[{"inputs":[{"internalType":"address","name":"_playerRegistry","type":"address"}],"stateMutability":"nonpayable","type":"constructor"},{"anonymous":false,"inputs":[{"indexed":true,"internalType":"address","name":"contest","type":"address"},{"indexed":false,"internalType":"uint256","name":"matchId","type":"uint256"},{"indexed":false,"internalType":"uint256","name":"entryFee","type":"uint256"},{"indexed":false,"internalType":"uint256","name":"deadline","type":"uint256"}],"name":"ContestCreated","type":"event"},{"inputs":[],"name":"admin","outputs":[{"internalType":"address","name":"","type":"address"}],"stateMutability":"view","type":"function"},{"inputs":[{"internalType":"uint256","name":"","type":"uint256"}],"name":"contests","outputs":[{"internalType":"address","name":"","type":"address"}],"stateMutability":"view","type":"function"},{"inputs":[{"internalType":"uint256","name":"matchId","type":"uint256"},{"internalType":"uint256","name":"entryFee","type":"uint256"},{"internalType":"uint256","name":"deadline","type":"uint256"},{"internalType":"uint256","name":"maxEntries","type":"uint256"},{"internalType":"uint256[]","name":"prizePercentages","type":"uint256[]"},{"internalType":"uint256","name":"firstPrizeAmount","type":"uint256"}],"name":"createContest","outputs":[{"internalType":"address","name":"","type":"address"}],"stateMutability":"nonpayable","type":"function"},{"inputs":[],"name":"getContestCount","outputs":[{"internalType":"uint256","name":"","type":"uint256"}],"stateMutability":"view","type":"function"},{"inputs":[],"name":"getContests","outputs":[{"internalType":"address[]","name":"","type":"address[]"}],"stateMutability":"view","type":"function"},{"inputs":[],"name":"playerRegistry","outputs":[{"internalType":"address","name":"","type":"address"}],"stateMutability":"view","type":"function"}],"evm":{"bytecode":{"linkReferences":{},"object":"608060405234801561001057600080fd5b50604051612c5c380380612c5c83398101604081905261002f91610062565b60008054336001600160a01b031991821617909155600180549091166001600160a01b0392909216919091179055610092565b60006020828403121561007457600080fd5b81516001600160a01b038116811461008b57600080fd5b9392505050565b612bbb806100a16000396000f3fe608060405234801561001057600080fd5b50600436106100625760003560e01c80634c74ef9c1461006757806364c3c166146100975780639d7ed738146100a8578063af5f8b4c146100bb578063bfaba76a146100ce578063f851a440146100e3575b600080fd5b60015461007a906001600160a01b031681565b6040516001600160a01b0390911681526020015b60405180910390f35b60025460405190815260200161008e565b61007a6100b63660046102d9565b6100f6565b61007a6100c93660046102f2565b610120565b6100d661026a565b60405161008e9190610398565b60005461007a906001600160a01b031681565b6002818154811061010657600080fd5b6000918252602090912001546001600160a01b0316905081565b600080546001600160a01b0316331461016b5760405162461bcd60e51b81526020600482015260096024820152682737ba1030b236b4b760b91b604482015260640160405180910390fd5b600080546001546040516001600160a01b0392831692909116908b908b908b908b908b908b908b9061019c906102cc565b6101ae999897969594939291906103e5565b604051809103906000f0801580156101ca573d6000803e3d6000fd5b50600280546001810182556000919091527f405787fa12a823e0f2b7631cc41b3ba8828b3321ca811111fa75cd3aa3bb5ace0180546001600160a01b0319166001600160a01b038316908117909155604080518c8152602081018c90529081018a9052919250907f0e88e8c4fee89d9778b8507f3cce3a1f8d3ee7c1707b40dd29178f53aec760b99060600160405180910390a298975050505050505050565b606060028054806020026020016040519081016040528092919081815260200182805480156102c257602002820191906000526020600020905b81546001600160a01b031681526001909101906020018083116102a4575b5050505050905090565b6127248061046283390190565b6000602082840312156102eb57600080fd5b5035919050565b600080600080600080600060c0888a03121561030d57600080fd5b87359650602088013595506040880135945060608801359350608088013567ffffffffffffffff8082111561034157600080fd5b818a0191508a601f83011261035557600080fd5b81358181111561036457600080fd5b8b60208260051b850101111561037957600080fd5b60208301955080945050505060a0880135905092959891949750929550565b6020808252825182820181905260009190848201906040850190845b818110156103d95783516001600160a01b0316835292840192918401916001016103b4565b50909695505050505050565b6001600160a01b038a811682528916602082015260408101889052606081018790526080810186905260a0810185905261010060c08201819052810183905260006101206001600160fb1b0385111561043d57600080fd5b8460051b80878386013760e08401949094529190920101999850505050505050505056fe60806040523480156200001157600080fd5b50604051620027243803806200272483398101604081905262000034916200023c565b600580546001600160a01b03808b166001600160a01b03199283161790925560008054928a1692909116919091179055600186905560028590556003849055600483905560088190558151620000d15760405162461bcd60e51b815260206004820152601460248201527f4e656564207072697a6520627265616b646f776e00000000000000000000000060448201526064015b60405180910390fd5b6000805b83518110156200012057838181518110620000f457620000f462000360565b6020026020010151826200010991906200038c565b9150806200011781620003a8565b915050620000d5565b50806064146200017d5760405162461bcd60e51b815260206004820152602160248201527f5072697a652070657263656e7461676573206d7573742073756d20746f2031306044820152600360fc1b6064820152608401620000c8565b825162000192906006906020860190620001a2565b50505050505050505050620003c4565b828054828255906000526020600020908101928215620001e0579160200282015b82811115620001e0578251825591602001919060010190620001c3565b50620001ee929150620001f2565b5090565b5b80821115620001ee5760008155600101620001f3565b80516001600160a01b03811681146200022157600080fd5b919050565b634e487b7160e01b600052604160045260246000fd5b600080600080600080600080610100898b0312156200025a57600080fd5b620002658962000209565b9750602062000276818b0162000209565b60408b015160608c015160808d015160a08e015160c08f0151949c50929a50909850965094506001600160401b0380821115620002b257600080fd5b818c0191508c601f830112620002c757600080fd5b815181811115620002dc57620002dc62000226565b8060051b604051601f19603f8301168101818110858211171562000304576200030462000226565b60405291825284820192508381018501918f8311156200032357600080fd5b938501935b82851015620003435784518452938501939285019262000328565b80975050505050505060e089015190509295985092959890939650565b634e487b7160e01b600052603260045260246000fd5b634e487b7160e01b600052601160045260246000fd5b80820180821115620003a257620003a262000376565b92915050565b600060018201620003bd57620003bd62000376565b5060010190565b61235080620003d46000396000f3fe60806040526004361061012e5760003560e01c8063719ce73e116100ab578063abbbd0861161006f578063abbbd08614610312578063b30906d414610344578063d70981541461039d578063f23f3ba5146103bd578063f851a440146103d3578063f8e737ef146103f357600080fd5b8063719ce73e1461029c57806375f25006146102b25780637a360e65146102c757806399892e47146102dc578063a448bd23146102f257600080fd5b80634c74ef9c116100f25780634c74ef9c146101df5780634f53b43714610217578063682d3c40146102445780636b200c9f146102575780636d763a6e1461027757600080fd5b8063072ea61c1461013a578063200d2ed21461016357806329dcb0cf1461019157806337929920146101a7578063475bd71a146101c957600080fd5b3661013557005b600080fd5b34801561014657600080fd5b5061015060025481565b6040519081526020015b60405180910390f35b34801561016f57600080fd5b5060055461018490600160a01b900460ff1681565b60405161015a9190611d62565b34801561019d57600080fd5b5061015060035481565b3480156101b357600080fd5b506101c76101c2366004611dd6565b610408565b005b3480156101d557600080fd5b5061015060085481565b3480156101eb57600080fd5b506000546101ff906001600160a01b031681565b6040516001600160a01b03909116815260200161015a565b34801561022357600080fd5b50610150610232366004611e42565b600b6020526000908152604090205481565b6101c7610252366004611e5b565b610651565b34801561026357600080fd5b50610150610272366004611eac565b6109cf565b34801561028357600080fd5b5061028c610a00565b60405161015a9493929190611f1f565b3480156102a857600080fd5b5061015060075481565b3480156102be57600080fd5b506101c7610f2b565b3480156102d357600080fd5b50600954610150565b3480156102e857600080fd5b5061015060015481565b3480156102fe57600080fd5b5061015061030d366004611e42565b611018565b34801561031e57600080fd5b5061033261032d366004611e42565b611039565b60405161015a96959493929190611fa9565b34801561035057600080fd5b5061036461035f366004611e42565b611144565b604080516001600160a01b03909716875260208701959095529385019290925260608401526080830152151560a082015260c00161015a565b3480156103a957600080fd5b506101c76103b8366004611e42565b611197565b3480156103c957600080fd5b5061015060045481565b3480156103df57600080fd5b506005546101ff906001600160a01b031681565b3480156103ff57600080fd5b506101c7611462565b6005546001600160a01b0316331461043b5760405162461bcd60e51b815260040161043290611ff2565b60405180910390fd5b6001600554600160a01b900460ff16600381111561045b5761045b611d4c565b1461049a5760405162461bcd60e51b815260206004820152600f60248201526e135d5cdd081b1bd8dac8199a5c9cdd608a1b6044820152606401610432565b8281146104db5760405162461bcd60e51b815260206004820152600f60248201526e098cadccee8d040dad2e6dac2e8c6d608b1b6044820152606401610432565b60005b83811015610541578282828181106104f8576104f8612015565b90506020020135600b600087878581811061051557610515612015565b90506020020135815260200190815260200160002081905550808061053990612041565b9150506104de565b5060005b6009548110156105f15760006009828154811061056457610564612015565b906000526020600020906007020190506105d9816001018054806020026020016040519081016040528092919081815260200182805480156105c557602002820191906000526020600020905b8154815260200190600101908083116105b1575b505050505082600201548360030154611506565b600490910155806105e981612041565b915050610545565b506105fa6115d8565b6005805460ff60a01b1916600160a11b1790556040517f3adb95f13423ba99020599c9fd45e0b650f2b9599d287c615e53005d5d2afd9c9061064390869086908690869061208c565b60405180910390a150505050565b6000600554600160a01b900460ff16600381111561067157610671611d4c565b146106b15760405162461bcd60e51b815260206004820152601060248201526f21b7b73a32b9ba103737ba1037b832b760811b6044820152606401610432565b60035442106106f45760405162461bcd60e51b815260206004820152600f60248201526e111958591b1a5b99481c185cdcd959608a1b6044820152606401610432565b60025434101561073f5760405162461bcd60e51b8152602060048201526016602482015275496e73756666696369656e7420656e7472792066656560501b6044820152606401610432565b60045415806107515750600454600954105b61078c5760405162461bcd60e51b815260206004820152600c60248201526b10dbdb9d195cdd08199d5b1b60a21b6044820152606401610432565b610798848484846116da565b600980546040805160e0810182523381528151602088810282810182019094528882529394939192828401928a918a918291908501908490808284376000920182905250938552505050602080830188905260408301879052606083018290526080830182905260a090920181905283546001808201865594825290829020835160079092020180546001600160a01b0319166001600160a01b039092169190911781558282015180519394919361085893928501929190910190611cec565b50604082810151600283810191909155606084015160038401556080840151600484015560a0840151600584015560c0909301516006909201805460ff191692151592909217909155336000908152600a60209081529181208054600181018255908252918120909101839055905460078054919290916108da9084906120b3565b909155505060025434111561097f5760025460009033906108fb90346120c6565b604051600081818185875af1925050503d8060008114610937576040519150601f19603f3d011682016040523d82523d6000602084013e61093c565b606091505b505090508061097d5760405162461bcd60e51b815260206004820152600d60248201526c1499599d5b990819985a5b1959609a1b6044820152606401610432565b505b336001600160a01b03167fd1aedf589a9a78af855a6a369098bd9e3b0565c662425f3b2df298ac7b555d9d82878787876040516109c09594939291906120d9565b60405180910390a25050505050565b600a60205281600052604060002081815481106109eb57600080fd5b90600052602060002001600091509150505481565b6009546060908190819081908067ffffffffffffffff811115610a2557610a25612107565b604051908082528060200260200182016040528015610a4e578160200160208202803683370190505b5094508067ffffffffffffffff811115610a6a57610a6a612107565b604051908082528060200260200182016040528015610a93578160200160208202803683370190505b5093508067ffffffffffffffff811115610aaf57610aaf612107565b604051908082528060200260200182016040528015610ad8578160200160208202803683370190505b5092508067ffffffffffffffff811115610af457610af4612107565b604051908082528060200260200182016040528015610b1d578160200160208202803683370190505b50915080600003610b2e5750610f25565b60005b81811015610c535760098181548110610b4c57610b4c612015565b600091825260209091206007909102015486516001600160a01b0390911690879083908110610b7d57610b7d612015565b60200260200101906001600160a01b031690816001600160a01b03168152505060098181548110610bb057610bb0612015565b906000526020600020906007020160040154858281518110610bd457610bd4612015565b60200260200101818152505060098181548110610bf357610bf3612015565b906000526020600020906007020160050154848281518110610c1757610c17612015565b60200260200101818152505080838281518110610c3657610c36612015565b602090810291909101015280610c4b81612041565b915050610b31565b5060005b610c626001836120c6565b811015610f22576000610c768260016120b3565b90505b82811015610f0f57848281518110610c9357610c93612015565b6020026020010151858281518110610cad57610cad612015565b60200260200101511080610d2e5750848281518110610cce57610cce612015565b6020026020010151858281518110610ce857610ce8612015565b6020026020010151148015610d2e5750858281518110610d0a57610d0a612015565b6020026020010151868281518110610d2457610d24612015565b6020026020010151115b15610efd57868181518110610d4557610d45612015565b6020026020010151878381518110610d5f57610d5f612015565b6020026020010151888481518110610d7957610d79612015565b60200260200101898481518110610d9257610d92612015565b6001600160a01b039384166020918202929092010152911690528551869082908110610dc057610dc0612015565b6020026020010151868381518110610dda57610dda612015565b6020026020010151878481518110610df457610df4612015565b60200260200101888481518110610e0d57610e0d612015565b6020026020010182815250828152505050848181518110610e3057610e30612015565b6020026020010151858381518110610e4a57610e4a612015565b6020026020010151868481518110610e6457610e64612015565b60200260200101878481518110610e7d57610e7d612015565b6020026020010182815250828152505050838181518110610ea057610ea0612015565b6020026020010151848381518110610eba57610eba612015565b6020026020010151858481518110610ed457610ed4612015565b60200260200101868481518110610eed57610eed612015565b6020908102919091010191909152525b80610f0781612041565b915050610c79565b5080610f1a81612041565b915050610c57565b50505b90919293565b6005546001600160a01b03163314610f555760405162461bcd60e51b815260040161043290611ff2565b6000600554600160a01b900460ff166003811115610f7557610f75611d4c565b14610fb35760405162461bcd60e51b815260206004820152600e60248201526d105b1c9958591e481b1bd8dad95960921b6044820152606401610432565b600354421015610ffb5760405162461bcd60e51b8152602060048201526013602482015272111958591b1a5b99481b9bdd081c185cdcd959606a1b6044820152606401610432565b600580546001919060ff60a01b1916600160a01b835b0217905550565b6006818154811061102857600080fd5b600091825260209091200154905081565b6000606060008060008060098054905087106110875760405162461bcd60e51b815260206004820152600d60248201526c496e76616c696420656e74727960981b6044820152606401610432565b60006009888154811061109c5761109c612015565b906000526020600020906007020190508060000160009054906101000a90046001600160a01b03168160010182600201548360030154846004015485600501548480548060200260200160405190810160405280929190818152602001828054801561112757602002820191906000526020600020905b815481526020019060010190808311611113575b505050505094509650965096509650965096505091939550919395565b6009818154811061115457600080fd5b60009182526020909120600790910201805460028201546003830154600484015460058501546006909501546001600160a01b0390941695509193909260ff1686565b6003600554600160a01b900460ff1660038111156111b7576111b7611d4c565b146111fc5760405162461bcd60e51b815260206004820152601560248201527410dbdb9d195cdd081b9bdd0818dbdb5c1b195d1959605a1b6044820152606401610432565b600954811061123d5760405162461bcd60e51b815260206004820152600d60248201526c496e76616c696420656e74727960981b6044820152606401610432565b60006009828154811061125257611252612015565b6000918252602090912060079091020180549091506001600160a01b031633146112af5760405162461bcd60e51b815260206004820152600e60248201526d4e6f7420796f757220656e74727960901b6044820152606401610432565b60008160050154116112ed5760405162461bcd60e51b81526020600482015260076024820152664e6f2072616e6b60c81b6044820152606401610432565b600681015460ff16156113345760405162461bcd60e51b815260206004820152600f60248201526e105b1c9958591e4818db185a5b5959608a1b6044820152606401610432565b60006113438260050154611be4565b90506000811161138e5760405162461bcd60e51b81526020600482015260166024820152754e6f207072697a6520666f7220746869732072616e6b60501b6044820152606401610432565b60068201805460ff19166001179055604051600090339083908381818185875af1925050503d80600081146113df576040519150601f19603f3d011682016040523d82523d6000602084013e6113e4565b606091505b50509050806114275760405162461bcd60e51b815260206004820152600f60248201526e151c985b9cd9995c8819985a5b1959608a1b6044820152606401610432565b60405182815233907fd8138f8a3f377c5259ca548e70e4c2de94f129f5a11036a15b69513cba2b426a9060200160405180910390a250505050565b6005546001600160a01b0316331461148c5760405162461bcd60e51b815260040161043290611ff2565b6002600554600160a01b900460ff1660038111156114ac576114ac611d4c565b146114ec5760405162461bcd60e51b815260206004820152601060248201526f135d5cdd081cd8dbdc9948199a5c9cdd60821b6044820152606401610432565b600580546003919060ff60a01b1916600160a01b83611011565b6000805b84518110156115d0576000600b600087848151811061152b5761152b612015565b602002602001015181526020019081526020016000205490508486838151811061155757611557612015565b6020026020010151036115765761156f81600261211d565b90506115b0565b8386838151811061158957611589612015565b6020026020010151036115b05760026115a382600361211d565b6115ad9190612134565b90505b6115ba81846120b3565b92505080806115c890612041565b91505061150a565b509392505050565b60095460015b8181116116d6576000196000805b8481101561168d576009818154811061160757611607612015565b906000526020600020906007020160050154600014801561164b5750816009828154811061163757611637612015565b906000526020600020906007020160040154115b1561167b576009818154811061166357611663612015565b90600052602060002090600702016004015491508092505b8061168581612041565b9150506115ec565b5060001982146116c15782600983815481106116ab576116ab612015565b9060005260206000209060070201600501819055505b505080806116ce90612041565b9150506115de565b5050565b600b83146117215760405162461bcd60e51b81526020600482015260146024820152734d757374206861766520313120706c617965727360601b6044820152606401610432565b8082036117675760405162461bcd60e51b8152602060048201526014602482015273219030b732102b219036bab9ba103234b33332b960611b6044820152606401610432565b6000806000806000806000806000805b8c81101561199e5760008e8e8381811061179357611793612015565b6000805460015460405163eff09bd760e01b815260048101919091526020939093029490940135602483018190529450926001600160a01b0316915063eff09bd790604401600060405180830381865afa1580156117f5573d6000803e3d6000fd5b505050506040513d6000823e601f3d908101601f1916820160405261181d919081019061224b565b90506000816040015160ff16116118675760405162461bcd60e51b815260206004820152600e60248201526d24b73b30b634b210383630bcb2b960911b6044820152606401610432565b8d82036118735760019b505b8c820361187f5760019a505b60408101516118919060ff168b6120b3565b99506000816020015160038111156118ab576118ab611d4c565b036118c257886118ba816122fb565b99505061194b565b6001816020015160038111156118da576118da611d4c565b036118f157876118e9816122fb565b98505061194b565b60028160200151600381111561190957611909611d4c565b036119205786611918816122fb565b97505061194b565b60038160200151600381111561193857611938611d4c565b0361194b5785611947816122fb565b9650505b806080015160ff1660000361196c5784611964816122fb565b955050611989565b806080015160ff166001036119895783611985816122fb565b9450505b5050808061199690612041565b915050611777565b508880156119a95750875b6119f55760405162461bcd60e51b815260206004820152601860248201527f4320616e64205643206d75737420626520696e207465616d00000000000000006044820152606401610432565b6064871115611a385760405162461bcd60e51b815260206004820152600f60248201526e109d5919d95d08195e18d959591959608a1b6044820152606401610432565b60018660ff161015611a815760405162461bcd60e51b81526020600482015260126024820152714e656564206174206c65617374203120574b60701b6044820152606401610432565b60018560ff1610158015611a99575060088560ff1611155b611ad45760405162461bcd60e51b815260206004820152600c60248201526b13995959080c4b4e0810905560a21b6044820152606401610432565b60018460ff1610158015611aec575060088460ff1611155b611b265760405162461bcd60e51b815260206004820152600b60248201526a2732b2b21018969c1020a960a91b6044820152606401610432565b60018360ff1610158015611b3e575060088360ff1611155b611b7a5760405162461bcd60e51b815260206004820152600d60248201526c13995959080c4b4e081093d5d3609a1b6044820152606401610432565b600a8260ff1611158015611b925750600a8160ff1611155b611bd55760405162461bcd60e51b81526020600482015260146024820152734d61782031302066726f6d206f6e65207465616d60601b6044820152606401610432565b50505050505050505050505050565b60006003821115611bf757506000919050565b60085415611c995781600103611c25576007546008541115611c1b57600754611c1f565b6008545b92915050565b60006007546008541115611c3b57600754611c3f565b6008545b9050600081600754611c5191906120c6565b905083600203611c7a576064611c6882603c61211d565b611c729190612134565b949350505050565b83600303611c8f576064611c6882602861211d565b5060009392505050565b600654821115611cab57506000919050565b60646006611cba6001856120c6565b81548110611cca57611cca612015565b9060005260206000200154600754611ce2919061211d565b611c1f9190612134565b828054828255906000526020600020908101928215611d27579160200282015b82811115611d27578251825591602001919060010190611d0c565b50611d33929150611d37565b5090565b5b80821115611d335760008155600101611d38565b634e487b7160e01b600052602160045260246000fd5b6020810160048310611d8457634e487b7160e01b600052602160045260246000fd5b91905290565b60008083601f840112611d9c57600080fd5b50813567ffffffffffffffff811115611db457600080fd5b6020830191508360208260051b8501011115611dcf57600080fd5b9250929050565b60008060008060408587031215611dec57600080fd5b843567ffffffffffffffff80821115611e0457600080fd5b611e1088838901611d8a565b90965094506020870135915080821115611e2957600080fd5b50611e3687828801611d8a565b95989497509550505050565b600060208284031215611e5457600080fd5b5035919050565b60008060008060608587031215611e7157600080fd5b843567ffffffffffffffff811115611e8857600080fd5b611e9487828801611d8a565b90989097506020870135966040013595509350505050565b60008060408385031215611ebf57600080fd5b82356001600160a01b0381168114611ed657600080fd5b946020939093013593505050565b600081518084526020808501945080840160005b83811015611f1457815187529582019590820190600101611ef8565b509495945050505050565b6080808252855190820181905260009060209060a0840190828901845b82811015611f615781516001600160a01b031684529284019290840190600101611f3c565b50505083810382850152611f758188611ee4565b9150508281036040840152611f8a8186611ee4565b90508281036060840152611f9e8185611ee4565b979650505050505050565b6001600160a01b038716815260c060208201819052600090611fcd90830188611ee4565b90508560408301528460608301528360808301528260a0830152979650505050505050565b6020808252600990820152682737ba1030b236b4b760b91b604082015260600190565b634e487b7160e01b600052603260045260246000fd5b634e487b7160e01b600052601160045260246000fd5b6000600182016120535761205361202b565b5060010190565b81835260006001600160fb1b0383111561207357600080fd5b8260051b80836020870137939093016020019392505050565b6040815260006120a060408301868861205a565b8281036020840152611f9e81858761205a565b80820180821115611c1f57611c1f61202b565b81810381811115611c1f57611c1f61202b565b8581526080602082015260006120f360808301868861205a565b604083019490945250606001529392505050565b634e487b7160e01b600052604160045260246000fd5b8082028115828204841417611c1f57611c1f61202b565b60008261215157634e487b7160e01b600052601260045260246000fd5b500490565b60405160a0810167ffffffffffffffff8111828210171561217957612179612107565b60405290565b604051601f8201601f1916810167ffffffffffffffff811182821017156121a8576121a8612107565b604052919050565b805160ff811681146121c157600080fd5b919050565b600082601f8301126121d757600080fd5b815167ffffffffffffffff8111156121f1576121f1612107565b6020612205601f8301601f1916820161217f565b828152858284870101111561221957600080fd5b60005b8381101561223757858101830151828201840152820161221c565b506000928101909101919091529392505050565b60006020828403121561225d57600080fd5b815167ffffffffffffffff8082111561227557600080fd5b9083019060a0828603121561228957600080fd5b612291612156565b825181526020830151600481106122a757600080fd5b60208201526122b8604084016121b0565b60408201526060830151828111156122cf57600080fd5b6122db878286016121c6565b6060830152506122ed608084016121b0565b608082015295945050505050565b600060ff821660ff81036123115761231161202b565b6001019291505056fea2646970667358221220254d4c530dcd7550526133020762cb02c9f335eeee53d99c0ace1a359ade2f6b64736f6c63430008140033a2646970667358221220f3e4cfeb09a864af1d492f01750e78d72db0fea61f76c3142fb2517b15fa4eba64736f6c63430008140033","opcodes":"PUSH1 0x80 PUSH1 0x40 MSTORE CALLVALUE DUP1 ISZERO PUSH2 0x10 JUMPI PUSH1 0x0 DUP1 REVERT JUMPDEST POP PUSH1 0x40 MLOAD PUSH2 0x2C5C CODESIZE SUB DUP1 PUSH2 0x2C5C DUP4 CODECOPY DUP2 ADD PUSH1 0x40 DUP2 SWAP1 MSTORE PUSH2 0x2F SWAP2 PUSH2 0x62 JUMP JUMPDEST PUSH1 0x0 DUP1 SLOAD CALLER PUSH1 0x1 PUSH1 0x1 PUSH1 0xA0 SHL SUB NOT SWAP2 DUP3 AND OR SWAP1 SWAP2 SSTORE PUSH1 0x1 DUP1 SLOAD SWAP1 SWAP2 AND PUSH1 0x1 PUSH1 0x1 PUSH1 0xA0 SHL SUB SWAP3 SWAP1 SWAP3 AND SWAP2 SWAP1 SWAP2 OR SWAP1 SSTORE PUSH2 0x92 JUMP JUMPDEST PUSH1 0x0 PUSH1 0x20 DUP3 DUP5 SUB SLT ISZERO PUSH2 0x74 JUMPI PUSH1 0x0 DUP1 REVERT JUMPDEST DUP2 MLOAD PUSH1 0x1 PUSH1 0x1 PUSH1 0xA0 SHL SUB DUP2 AND DUP2 EQ PUSH2 0x8B JUMPI PUSH1 0x0 DUP1 REVERT JUMPDEST SWAP4 SWAP3 POP POP POP JUMP JUMPDEST PUSH2 0x2BBB DUP1 PUSH2 0xA1 PUSH1 0x0 CODECOPY PUSH1 0x0 RETURN INVALID PUSH1 0x80 PUSH1 0x40 MSTORE CALLVALUE DUP1 ISZERO PUSH2 0x10 JUMPI PUSH1 0x0 DUP1 REVERT JUMPDEST POP PUSH1 0x4 CALLDATASIZE LT PUSH2 0x62 JUMPI PUSH1 0x0 CALLDATALOAD PUSH1 0xE0 SHR DUP1 PUSH4 0x4C74EF9C EQ PUSH2 0x67 JUMPI DUP1 PUSH4 0x64C3C166 EQ PUSH2 0x97 JUMPI DUP1 PUSH4 0x9D7ED738 EQ PUSH2 0xA8 JUMPI DUP1 PUSH4 0xAF5F8B4C EQ PUSH2 0xBB JUMPI DUP1 PUSH4 0xBFABA76A EQ PUSH2 0xCE JUMPI DUP1 PUSH4 0xF851A440 EQ PUSH2 0xE3 JUMPI JUMPDEST PUSH1 0x0 DUP1 REVERT JUMPDEST PUSH1 0x1 SLOAD PUSH2 0x7A SWAP1 PUSH1 0x1 PUSH1 0x1 PUSH1 0xA0 SHL SUB AND DUP2 JUMP JUMPDEST PUSH1 0x40 MLOAD PUSH1 0x1 PUSH1 0x1 PUSH1 0xA0 SHL SUB SWAP1 SWAP2 AND DUP2 MSTORE PUSH1 0x20 ADD JUMPDEST PUSH1 0x40 MLOAD DUP1 SWAP2 SUB SWAP1 RETURN JUMPDEST PUSH1 0x2 SLOAD PUSH1 0x40 MLOAD SWAP1 DUP2 MSTORE PUSH1 0x20 ADD PUSH2 0x8E JUMP JUMPDEST PUSH2 0x7A PUSH2 0xB6 CALLDATASIZE PUSH1 0x4 PUSH2 0x2D9 JUMP JUMPDEST PUSH2 0xF6 JUMP JUMPDEST PUSH2 0x7A PUSH2 0xC9 CALLDATASIZE PUSH1 0x4 PUSH2 0x2F2 JUMP JUMPDEST PUSH2 0x120 JUMP JUMPDEST PUSH2 0xD6 PUSH2 0x26A JUMP JUMPDEST PUSH1 0x40 MLOAD PUSH2 0x8E SWAP2 SWAP1 PUSH2 0x398 JUMP JUMPDEST PUSH1 0x0 SLOAD PUSH2 0x7A SWAP1 PUSH1 0x1 PUSH1 0x1 PUSH1 0xA0 SHL SUB AND DUP2 JUMP JUMPDEST PUSH1 0x2 DUP2 DUP2 SLOAD DUP2 LT PUSH2 0x106 JUMPI PUSH1 0x0 DUP1 REVERT JUMPDEST PUSH1 0x0 SWAP2 DUP3 MSTORE PUSH1 0x20 SWAP1 SWAP2 KECCAK256 ADD SLOAD PUSH1 0x1 PUSH1 0x1 PUSH1 0xA0 SHL SUB AND SWAP1 POP DUP2 JUMP JUMPDEST PUSH1 0x0 DUP1 SLOAD PUSH1 0x1 PUSH1 0x1 PUSH1 0xA0 SHL SUB AND CALLER EQ PUSH2 0x16B JUMPI PUSH1 0x40 MLOAD PUSH3 0x461BCD PUSH1 0xE5 SHL DUP2 MSTORE PUSH1 0x20 PUSH1 0x4 DUP3 ADD MSTORE PUSH1 0x9 PUSH1 0x24 DUP3 ADD MSTORE PUSH9 0x2737BA1030B236B4B7 PUSH1 0xB9 SHL PUSH1 0x44 DUP3 ADD MSTORE PUSH1 0x64 ADD PUSH1 0x40 MLOAD DUP1 SWAP2 SUB SWAP1 REVERT JUMPDEST PUSH1 0x0 DUP1 SLOAD PUSH1 0x1 SLOAD PUSH1 0x40 MLOAD PUSH1 0x1 PUSH1 0x1 PUSH1 0xA0 SHL SUB SWAP3 DUP4 AND SWAP3 SWAP1 SWAP2 AND SWAP1 DUP12 SWAP1 DUP12 SWAP1 DUP12 SWAP1 DUP12 SWAP1 DUP12 SWAP1 DUP12 SWAP1 DUP12 SWAP1 PUSH2 0x19C SWAP1 PUSH2 0x2CC JUMP JUMPDEST PUSH2 0x1AE SWAP10 SWAP9 SWAP8 SWAP7 SWAP6 SWAP5 SWAP4 SWAP3 SWAP2 SWAP1 PUSH2 0x3E5 JUMP JUMPDEST PUSH1 0x40 MLOAD DUP1 SWAP2 SUB SWAP1 PUSH1 0x0 CREATE DUP1 ISZERO DUP1 ISZERO PUSH2 0x1CA JUMPI RETURNDATASIZE PUSH1 0x0 DUP1 RETURNDATACOPY RETURNDATASIZE PUSH1 0x0 REVERT JUMPDEST POP PUSH1 0x2 DUP1 SLOAD PUSH1 0x1 DUP2 ADD DUP3 SSTORE PUSH1 0x0 SWAP2 SWAP1 SWAP2 MSTORE PUSH32 0x405787FA12A823E0F2B7631CC41B3BA8828B3321CA811111FA75CD3AA3BB5ACE ADD DUP1 SLOAD PUSH1 0x1 PUSH1 0x1 PUSH1 0xA0 SHL SUB NOT AND PUSH1 0x1 PUSH1 0x1 PUSH1 0xA0 SHL SUB DUP4 AND SWAP1 DUP2 OR SWAP1 SWAP2 SSTORE PUSH1 0x40 DUP1 MLOAD DUP13 DUP2 MSTORE PUSH1 0x20 DUP2 ADD DUP13 SWAP1 MSTORE SWAP1 DUP2 ADD DUP11 SWAP1 MSTORE SWAP2 SWAP3 POP SWAP1 PUSH32 0xE88E8C4FEE89D9778B8507F3CCE3A1F8D3EE7C1707B40DD29178F53AEC760B9 SWAP1 PUSH1 0x60 ADD PUSH1 0x40 MLOAD DUP1 SWAP2 SUB SWAP1 LOG2 SWAP9 SWAP8 POP POP POP POP POP POP POP POP JUMP JUMPDEST PUSH1 0x60 PUSH1 0x2 DUP1 SLOAD DUP1 PUSH1 0x20 MUL PUSH1 0x20 ADD PUSH1 0x40 MLOAD SWAP1 DUP2 ADD PUSH1 0x40 MSTORE DUP1 SWAP3 SWAP2 SWAP1 DUP2 DUP2 MSTORE PUSH1 0x20 ADD DUP3 DUP1 SLOAD DUP1 ISZERO PUSH2 0x2C2 JUMPI PUSH1 0x20 MUL DUP3 ADD SWAP2 SWAP1 PUSH1 0x0 MSTORE PUSH1 0x20 PUSH1 0x0 KECCAK256 SWAP1 JUMPDEST DUP2 SLOAD PUSH1 0x1 PUSH1 0x1 PUSH1 0xA0 SHL SUB AND DUP2 MSTORE PUSH1 0x1 SWAP1 SWAP2 ADD SWAP1 PUSH1 0x20 ADD DUP1 DUP4 GT PUSH2 0x2A4 JUMPI JUMPDEST POP POP POP POP POP SWAP1 POP SWAP1 JUMP JUMPDEST PUSH2 0x2724 DUP1 PUSH2 0x462 DUP4 CODECOPY ADD SWAP1 JUMP JUMPDEST PUSH1 0x0 PUSH1 0x20 DUP3 DUP5 SUB SLT ISZERO PUSH2 0x2EB JUMPI PUSH1 0x0 DUP1 REVERT JUMPDEST POP CALLDATALOAD SWAP2 SWAP1 POP JUMP JUMPDEST PUSH1 0x0 DUP1 PUSH1 0x0 DUP1 PUSH1 0x0 DUP1 PUSH1 0x0 PUSH1 0xC0 DUP9 DUP11 SUB SLT ISZERO PUSH2 0x30D JUMPI PUSH1 0x0 DUP1 REVERT JUMPDEST DUP8 CALLDATALOAD SWAP7 POP PUSH1 0x20 DUP9 ADD CALLDATALOAD SWAP6 POP PUSH1 0x40 DUP9 ADD CALLDATALOAD SWAP5 POP PUSH1 0x60 DUP9 ADD CALLDATALOAD SWAP4 POP PUSH1 0x80 DUP9 ADD CALLDATALOAD PUSH8 0xFFFFFFFFFFFFFFFF DUP1 DUP3 GT ISZERO PUSH2 0x341 JUMPI PUSH1 0x0 DUP1 REVERT JUMPDEST DUP2 DUP11 ADD SWAP2 POP DUP11 PUSH1 0x1F DUP4 ADD SLT PUSH2 0x355 JUMPI PUSH1 0x0 DUP1 REVERT JUMPDEST DUP2 CALLDATALOAD DUP2 DUP2 GT ISZERO PUSH2 0x364 JUMPI PUSH1 0x0 DUP1 REVERT JUMPDEST DUP12 PUSH1 0x20 DUP3 PUSH1 0x5 SHL DUP6 ADD ADD GT ISZERO PUSH2 0x379 JUMPI PUSH1 0x0 DUP1 REVERT JUMPDEST PUSH1 0x20 DUP4 ADD SWAP6 POP DUP1 SWAP5 POP POP POP POP PUSH1 0xA0 DUP9 ADD CALLDATALOAD SWAP1 POP SWAP3 SWAP6 SWAP9 SWAP2 SWAP5 SWAP8 POP SWAP3 SWAP6 POP JUMP JUMPDEST PUSH1 0x20 DUP1 DUP3 MSTORE DUP3 MLOAD DUP3 DUP3 ADD DUP2 SWAP1 MSTORE PUSH1 0x0 SWAP2 SWAP1 DUP5 DUP3 ADD SWAP1 PUSH1 0x40 DUP6 ADD SWAP1 DUP5 JUMPDEST DUP2 DUP2 LT ISZERO PUSH2 0x3D9 JUMPI DUP4 MLOAD PUSH1 0x1 PUSH1 0x1 PUSH1 0xA0 SHL SUB AND DUP4 MSTORE SWAP3 DUP5 ADD SWAP3 SWAP2 DUP5 ADD SWAP2 PUSH1 0x1 ADD PUSH2 0x3B4 JUMP JUMPDEST POP SWAP1 SWAP7 SWAP6 POP POP POP POP POP POP JUMP JUMPDEST PUSH1 0x1 PUSH1 0x1 PUSH1 0xA0 SHL SUB DUP11 DUP2 AND DUP3 MSTORE DUP10 AND PUSH1 0x20 DUP3 ADD MSTORE PUSH1 0x40 DUP2 ADD DUP9 SWAP1 MSTORE PUSH1 0x60 DUP2 ADD DUP8 SWAP1 MSTORE PUSH1 0x80 DUP2 ADD DUP7 SWAP1 MSTORE PUSH1 0xA0 DUP2 ADD DUP6 SWAP1 MSTORE PUSH2 0x100 PUSH1 0xC0 DUP3 ADD DUP2 SWAP1 MSTORE DUP2 ADD DUP4 SWAP1 MSTORE PUSH1 0x0 PUSH2 0x120 PUSH1 0x1 PUSH1 0x1 PUSH1 0xFB SHL SUB DUP6 GT ISZERO PUSH2 0x43D JUMPI PUSH1 0x0 DUP1 REVERT JUMPDEST DUP5 PUSH1 0x5 SHL DUP1 DUP8 DUP4 DUP7 ADD CALLDATACOPY PUSH1 0xE0 DUP5 ADD SWAP5 SWAP1 SWAP5 MSTORE SWAP2 SWAP1 SWAP3 ADD ADD SWAP10 SWAP9 POP POP POP POP POP POP POP POP POP JUMP INVALID PUSH1 0x80 PUSH1 0x40 MSTORE CALLVALUE DUP1 ISZERO PUSH3 0x11 JUMPI PUSH1 0x0 DUP1 REVERT JUMPDEST POP PUSH1 0x40 MLOAD PUSH3 0x2724 CODESIZE SUB DUP1 PUSH3 0x2724 DUP4 CODECOPY DUP2 ADD PUSH1 0x40 DUP2 SWAP1 MSTORE PUSH3 0x34 SWAP2 PUSH3 0x23C JUMP JUMPDEST PUSH1 0x5 DUP1 SLOAD PUSH1 0x1 PUSH1 0x1 PUSH1 0xA0 SHL SUB DUP1 DUP12 AND PUSH1 0x1 PUSH1 0x1 PUSH1 0xA0 SHL SUB NOT SWAP3 DUP4 AND OR SWAP1 SWAP3 SSTORE PUSH1 0x0 DUP1 SLOAD SWAP3 DUP11 AND SWAP3 SWAP1 SWAP2 AND SWAP2 SWAP1 SWAP2 OR SWAP1 SSTORE PUSH1 0x1 DUP7 SWAP1 SSTORE PUSH1 0x2 DUP6 SWAP1 SSTORE PUSH1 0x3 DUP5 SWAP1 SSTORE PUSH1 0x4 DUP4 SWAP1 SSTORE PUSH1 0x8 DUP2 SWAP1 SSTORE DUP2 MLOAD PUSH3 0xD1 JUMPI PUSH1 0x40 MLOAD PUSH3 0x461BCD PUSH1 0xE5 SHL DUP2 MSTORE PUSH1 0x20 PUSH1 0x4 DUP3 ADD MSTORE PUSH1 0x14 PUSH1 0x24 DUP3 ADD MSTORE PUSH32 0x4E656564207072697A6520627265616B646F776E000000000000000000000000 PUSH1 0x44 DUP3 ADD MSTORE PUSH1 0x64 ADD JUMPDEST PUSH1 0x40 MLOAD DUP1 SWAP2 SUB SWAP1 REVERT JUMPDEST PUSH1 0x0 DUP1 JUMPDEST DUP4 MLOAD DUP2 LT ISZERO PUSH3 0x120 JUMPI DUP4 DUP2 DUP2 MLOAD DUP2 LT PUSH3 0xF4 JUMPI PUSH3 0xF4 PUSH3 0x360 JUMP JUMPDEST PUSH1 0x20 MUL PUSH1 0x20 ADD ADD MLOAD DUP3 PUSH3 0x109 SWAP2 SWAP1 PUSH3 0x38C JUMP JUMPDEST SWAP2 POP DUP1 PUSH3 0x117 DUP2 PUSH3 0x3A8 JUMP JUMPDEST SWAP2 POP POP PUSH3 0xD5 JUMP JUMPDEST POP DUP1 PUSH1 0x64 EQ PUSH3 0x17D JUMPI PUSH1 0x40 MLOAD PUSH3 0x461BCD PUSH1 0xE5 SHL DUP2 MSTORE PUSH1 0x20 PUSH1 0x4 DUP3 ADD MSTORE PUSH1 0x21 PUSH1 0x24 DUP3 ADD MSTORE PUSH32 0x5072697A652070657263656E7461676573206D7573742073756D20746F203130 PUSH1 0x44 DUP3 ADD MSTORE PUSH1 0x3 PUSH1 0xFC SHL PUSH1 0x64 DUP3 ADD MSTORE PUSH1 0x84 ADD PUSH3 0xC8 JUMP JUMPDEST DUP3 MLOAD PUSH3 0x192 SWAP1 PUSH1 0x6 SWAP1 PUSH1 0x20 DUP7 ADD SWAP1 PUSH3 0x1A2 JUMP JUMPDEST POP POP POP POP POP POP POP POP POP POP PUSH3 0x3C4 JUMP JUMPDEST DUP3 DUP1 SLOAD DUP3 DUP3 SSTORE SWAP1 PUSH1 0x0 MSTORE PUSH1 0x20 PUSH1 0x0 KECCAK256 SWAP1 DUP2 ADD SWAP3 DUP3 ISZERO PUSH3 0x1E0 JUMPI SWAP2 PUSH1 0x20 MUL DUP3 ADD JUMPDEST DUP3 DUP2 GT ISZERO PUSH3 0x1E0 JUMPI DUP3 MLOAD DUP3 SSTORE SWAP2 PUSH1 0x20 ADD SWAP2 SWAP1 PUSH1 0x1 ADD SWAP1 PUSH3 0x1C3 JUMP JUMPDEST POP PUSH3 0x1EE SWAP3 SWAP2 POP PUSH3 0x1F2 JUMP JUMPDEST POP SWAP1 JUMP JUMPDEST JUMPDEST DUP1 DUP3 GT ISZERO PUSH3 0x1EE JUMPI PUSH1 0x0 DUP2 SSTORE PUSH1 0x1 ADD PUSH3 0x1F3 JUMP JUMPDEST DUP1 MLOAD PUSH1 0x1 PUSH1 0x1 PUSH1 0xA0 SHL SUB DUP2 AND DUP2 EQ PUSH3 0x221 JUMPI PUSH1 0x0 DUP1 REVERT JUMPDEST SWAP2 SWAP1 POP JUMP JUMPDEST PUSH4 0x4E487B71 PUSH1 0xE0 SHL PUSH1 0x0 MSTORE PUSH1 0x41 PUSH1 0x4 MSTORE PUSH1 0x24 PUSH1 0x0 REVERT JUMPDEST PUSH1 0x0 DUP1 PUSH1 0x0 DUP1 PUSH1 0x0 DUP1 PUSH1 0x0 DUP1 PUSH2 0x100 DUP10 DUP12 SUB SLT ISZERO PUSH3 0x25A JUMPI PUSH1 0x0 DUP1 REVERT JUMPDEST PUSH3 0x265 DUP10 PUSH3 0x209 JUMP JUMPDEST SWAP8 POP PUSH1 0x20 PUSH3 0x276 DUP2 DUP12 ADD PUSH3 0x209 JUMP JUMPDEST PUSH1 0x40 DUP12 ADD MLOAD PUSH1 0x60 DUP13 ADD MLOAD PUSH1 0x80 DUP14 ADD MLOAD PUSH1 0xA0 DUP15 ADD MLOAD PUSH1 0xC0 DUP16 ADD MLOAD SWAP5 SWAP13 POP SWAP3 SWAP11 POP SWAP1 SWAP9 POP SWAP7 POP SWAP5 POP PUSH1 0x1 PUSH1 0x1 PUSH1 0x40 SHL SUB DUP1 DUP3 GT ISZERO PUSH3 0x2B2 JUMPI PUSH1 0x0 DUP1 REVERT JUMPDEST DUP2 DUP13 ADD SWAP2 POP DUP13 PUSH1 0x1F DUP4 ADD SLT PUSH3 0x2C7 JUMPI PUSH1 0x0 DUP1 REVERT JUMPDEST DUP2 MLOAD DUP2 DUP2 GT ISZERO PUSH3 0x2DC JUMPI PUSH3 0x2DC PUSH3 0x226 JUMP JUMPDEST DUP1 PUSH1 0x5 SHL PUSH1 0x40 MLOAD PUSH1 0x1F NOT PUSH1 0x3F DUP4 ADD AND DUP2 ADD DUP2 DUP2 LT DUP6 DUP3 GT OR ISZERO PUSH3 0x304 JUMPI PUSH3 0x304 PUSH3 0x226 JUMP JUMPDEST PUSH1 0x40 MSTORE SWAP2 DUP3 MSTORE DUP5 DUP3 ADD SWAP3 POP DUP4 DUP2 ADD DUP6 ADD SWAP2 DUP16 DUP4 GT ISZERO PUSH3 0x323 JUMPI PUSH1 0x0 DUP1 REVERT JUMPDEST SWAP4 DUP6 ADD SWAP4 JUMPDEST DUP3 DUP6 LT ISZERO PUSH3 0x343 JUMPI DUP5 MLOAD DUP5 MSTORE SWAP4 DUP6 ADD SWAP4 SWAP3 DUP6 ADD SWAP3 PUSH3 0x328 JUMP JUMPDEST DUP1 SWAP8 POP POP POP POP POP POP POP PUSH1 0xE0 DUP10 ADD MLOAD SWAP1 POP SWAP3 SWAP6 SWAP9 POP SWAP3 SWAP6 SWAP9 SWAP1 SWAP4 SWAP7 POP JUMP JUMPDEST PUSH4 0x4E487B71 PUSH1 0xE0 SHL PUSH1 0x0 MSTORE PUSH1 0x32 PUSH1 0x4 MSTORE PUSH1 0x24 PUSH1 0x0 REVERT JUMPDEST PUSH4 0x4E487B71 PUSH1 0xE0 SHL PUSH1 0x0 MSTORE PUSH1 0x11 PUSH1 0x4 MSTORE PUSH1 0x24 PUSH1 0x0 REVERT JUMPDEST DUP1 DUP3 ADD DUP1 DUP3 GT ISZERO PUSH3 0x3A2 JUMPI PUSH3 0x3A2 PUSH3 0x376 JUMP JUMPDEST SWAP3 SWAP2 POP POP JUMP JUMPDEST PUSH1 0x0 PUSH1 0x1 DUP3 ADD PUSH3 0x3BD JUMPI PUSH3 0x3BD PUSH3 0x376 JUMP JUMPDEST POP PUSH1 0x1 ADD SWAP1 JUMP JUMPDEST PUSH2 0x2350 DUP1 PUSH3 0x3D4 PUSH1 0x0 CODECOPY PUSH1 0x0 RETURN INVALID PUSH1 0x80 PUSH1 0x40 MSTORE PUSH1 0x4 CALLDATASIZE LT PUSH2 0x12E JUMPI PUSH1 0x0 CALLDATALOAD PUSH1 0xE0 SHR DUP1 PUSH4 0x719CE73E GT PUSH2 0xAB JUMPI DUP1 PUSH4 0xABBBD086 GT PUSH2 0x6F JUMPI DUP1 PUSH4 0xABBBD086 EQ PUSH2 0x312 JUMPI DUP1 PUSH4 0xB30906D4 EQ PUSH2 0x344 JUMPI DUP1 PUSH4 0xD7098154 EQ PUSH2 0x39D JUMPI DUP1 PUSH4 0xF23F3BA5 EQ PUSH2 0x3BD JUMPI DUP1 PUSH4 0xF851A440 EQ PUSH2 0x3D3 JUMPI DUP1 PUSH4 0xF8E737EF EQ PUSH2 0x3F3 JUMPI PUSH1 0x0 DUP1 REVERT JUMPDEST DUP1 PUSH4 0x719CE73E EQ PUSH2 0x29C JUMPI DUP1 PUSH4 0x75F25006 EQ PUSH2 0x2B2 JUMPI DUP1 PUSH4 0x7A360E65 EQ PUSH2 0x2C7 JUMPI DUP1 PUSH4 0x99892E47 EQ PUSH2 0x2DC JUMPI DUP1 PUSH4 0xA448BD23 EQ PUSH2 0x2F2 JUMPI PUSH1 0x0 DUP1 REVERT JUMPDEST DUP1 PUSH4 0x4C74EF9C GT PUSH2 0xF2 JUMPI DUP1 PUSH4 0x4C74EF9C EQ PUSH2 0x1DF JUMPI DUP1 PUSH4 0x4F53B437 EQ PUSH2 0x217 JUMPI DUP1 PUSH4 0x682D3C40 EQ PUSH2 0x244 JUMPI DUP1 PUSH4 0x6B200C9F EQ PUSH2 0x257 JUMPI DUP1 PUSH4 0x6D763A6E EQ PUSH2 0x277 JUMPI PUSH1 0x0 DUP1 REVERT JUMPDEST DUP1 PUSH4 0x72EA61C EQ PUSH2 0x13A JUMPI DUP1 PUSH4 0x200D2ED2 EQ PUSH2 0x163 JUMPI DUP1 PUSH4 0x29DCB0CF EQ PUSH2 0x191 JUMPI DUP1 PUSH4 0x37929920 EQ PUSH2 0x1A7 JUMPI DUP1 PUSH4 0x475BD71A EQ PUSH2 0x1C9 JUMPI PUSH1 0x0 DUP1 REVERT JUMPDEST CALLDATASIZE PUSH2 0x135 JUMPI STOP JUMPDEST PUSH1 0x0 DUP1 REVERT JUMPDEST CALLVALUE DUP1 ISZERO PUSH2 0x146 JUMPI PUSH1 0x0 DUP1 REVERT JUMPDEST POP PUSH2 0x150 PUSH1 0x2 SLOAD DUP2 JUMP JUMPDEST PUSH1 0x40 MLOAD SWAP1 DUP2 MSTORE PUSH1 0x20 ADD JUMPDEST PUSH1 0x40 MLOAD DUP1 SWAP2 SUB SWAP1 RETURN JUMPDEST CALLVALUE DUP1 ISZERO PUSH2 0x16F JUMPI PUSH1 0x0 DUP1 REVERT JUMPDEST POP PUSH1 0x5 SLOAD PUSH2 0x184 SWAP1 PUSH1 0x1 PUSH1 0xA0 SHL SWAP1 DIV PUSH1 0xFF AND DUP2 JUMP JUMPDEST PUSH1 0x40 MLOAD PUSH2 0x15A SWAP2 SWAP1 PUSH2 0x1D62 JUMP JUMPDEST CALLVALUE DUP1 ISZERO PUSH2 0x19D JUMPI PUSH1 0x0 DUP1 REVERT JUMPDEST POP PUSH2 0x150 PUSH1 0x3 SLOAD DUP2 JUMP JUMPDEST CALLVALUE DUP1 ISZERO PUSH2 0x1B3 JUMPI PUSH1 0x0 DUP1 REVERT JUMPDEST POP PUSH2 0x1C7 PUSH2 0x1C2 CALLDATASIZE PUSH1 0x4 PUSH2 0x1DD6 JUMP JUMPDEST PUSH2 0x408 JUMP JUMPDEST STOP JUMPDEST CALLVALUE DUP1 ISZERO PUSH2 0x1D5 JUMPI PUSH1 0x0 DUP1 REVERT JUMPDEST POP PUSH2 0x150 PUSH1 0x8 SLOAD DUP2 JUMP JUMPDEST CALLVALUE DUP1 ISZERO PUSH2 0x1EB JUMPI PUSH1 0x0 DUP1 REVERT JUMPDEST POP PUSH1 0x0 SLOAD PUSH2 0x1FF SWAP1 PUSH1 0x1 PUSH1 0x1 PUSH1 0xA0 SHL SUB AND DUP2 JUMP JUMPDEST PUSH1 0x40 MLOAD PUSH1 0x1 PUSH1 0x1 PUSH1 0xA0 SHL SUB SWAP1 SWAP2 AND DUP2 MSTORE PUSH1 0x20 ADD PUSH2 0x15A JUMP JUMPDEST CALLVALUE DUP1 ISZERO PUSH2 0x223 JUMPI PUSH1 0x0 DUP1 REVERT JUMPDEST POP PUSH2 0x150 PUSH2 0x232 CALLDATASIZE PUSH1 0x4 PUSH2 0x1E42 JUMP JUMPDEST PUSH1 0xB PUSH1 0x20 MSTORE PUSH1 0x0 SWAP1 DUP2 MSTORE PUSH1 0x40 SWAP1 KECCAK256 SLOAD DUP2 JUMP JUMPDEST PUSH2 0x1C7 PUSH2 0x252 CALLDATASIZE PUSH1 0x4 PUSH2 0x1E5B JUMP JUMPDEST PUSH2 0x651 JUMP JUMPDEST CALLVALUE DUP1 ISZERO PUSH2 0x263 JUMPI PUSH1 0x0 DUP1 REVERT JUMPDEST POP PUSH2 0x150 PUSH2 0x272 CALLDATASIZE PUSH1 0x4 PUSH2 0x1EAC JUMP JUMPDEST PUSH2 0x9CF JUMP JUMPDEST CALLVALUE DUP1 ISZERO PUSH2 0x283 JUMPI PUSH1 0x0 DUP1 REVERT JUMPDEST POP PUSH2 0x28C PUSH2 0xA00 JUMP JUMPDEST PUSH1 0x40 MLOAD PUSH2 0x15A SWAP5 SWAP4 SWAP3 SWAP2 SWAP1 PUSH2 0x1F1F JUMP JUMPDEST CALLVALUE DUP1 ISZERO PUSH2 0x2A8 JUMPI PUSH1 0x0 DUP1 REVERT JUMPDEST POP PUSH2 0x150 PUSH1 0x7 SLOAD DUP2 JUMP JUMPDEST CALLVALUE DUP1 ISZERO PUSH2 0x2BE JUMPI PUSH1 0x0 DUP1 REVERT JUMPDEST POP PUSH2 0x1C7 PUSH2 0xF2B JUMP JUMPDEST CALLVALUE DUP1 ISZERO PUSH2 0x2D3 JUMPI PUSH1 0x0 DUP1 REVERT JUMPDEST POP PUSH1 0x9 SLOAD PUSH2 0x150 JUMP JUMPDEST CALLVALUE DUP1 ISZERO PUSH2 0x2E8 JUMPI PUSH1 0x0 DUP1 REVERT JUMPDEST POP PUSH2 0x150 PUSH1 0x1 SLOAD DUP2 JUMP JUMPDEST CALLVALUE DUP1 ISZERO PUSH2 0x2FE JUMPI PUSH1 0x0 DUP1 REVERT JUMPDEST POP PUSH2 0x150 PUSH2 0x30D CALLDATASIZE PUSH1 0x4 PUSH2 0x1E42 JUMP JUMPDEST PUSH2 0x1018 JUMP JUMPDEST CALLVALUE DUP1 ISZERO PUSH2 0x31E JUMPI PUSH1 0x0 DUP1 REVERT JUMPDEST POP PUSH2 0x332 PUSH2 0x32D CALLDATASIZE PUSH1 0x4 PUSH2 0x1E42 JUMP JUMPDEST PUSH2 0x1039 JUMP JUMPDEST PUSH1 0x40 MLOAD PUSH2 0x15A SWAP7 SWAP6 SWAP5 SWAP4 SWAP3 SWAP2 SWAP1 PUSH2 0x1FA9 JUMP JUMPDEST CALLVALUE DUP1 ISZERO PUSH2 0x350 JUMPI PUSH1 0x0 DUP1 REVERT JUMPDEST POP PUSH2 0x364 PUSH2 0x35F CALLDATASIZE PUSH1 0x4 PUSH2 0x1E42 JUMP JUMPDEST PUSH2 0x1144 JUMP JUMPDEST PUSH1 0x40 DUP1 MLOAD PUSH1 0x1 PUSH1 0x1 PUSH1 0xA0 SHL SUB SWAP1 SWAP8 AND DUP8 MSTORE PUSH1 0x20 DUP8 ADD SWAP6 SWAP1 SWAP6 MSTORE SWAP4 DUP6 ADD SWAP3 SWAP1 SWAP3 MSTORE PUSH1 0x60 DUP5 ADD MSTORE PUSH1 0x80 DUP4 ADD MSTORE ISZERO ISZERO PUSH1 0xA0 DUP3 ADD MSTORE PUSH1 0xC0 ADD PUSH2 0x15A JUMP JUMPDEST CALLVALUE DUP1 ISZERO PUSH2 0x3A9 JUMPI PUSH1 0x0 DUP1 REVERT JUMPDEST POP PUSH2 0x1C7 PUSH2 0x3B8 CALLDATASIZE PUSH1 0x4 PUSH2 0x1E42 JUMP JUMPDEST PUSH2 0x1197 JUMP JUMPDEST CALLVALUE DUP1 ISZERO PUSH2 0x3C9 JUMPI PUSH1 0x0 DUP1 REVERT JUMPDEST POP PUSH2 0x150 PUSH1 0x4 SLOAD DUP2 JUMP JUMPDEST CALLVALUE DUP1 ISZERO PUSH2 0x3DF JUMPI PUSH1 0x0 DUP1 REVERT JUMPDEST POP PUSH1 0x5 SLOAD PUSH2 0x1FF SWAP1 PUSH1 0x1 PUSH1 0x1 PUSH1 0xA0 SHL SUB AND DUP2 JUMP JUMPDEST CALLVALUE DUP1 ISZERO PUSH2 0x3FF JUMPI PUSH1 0x0 DUP1 REVERT JUMPDEST POP PUSH2 0x1C7 PUSH2 0x1462 JUMP JUMPDEST PUSH1 0x5 SLOAD PUSH1 0x1 PUSH1 0x1 PUSH1 0xA0 SHL SUB AND CALLER EQ PUSH2 0x43B JUMPI PUSH1 0x40 MLOAD PUSH3 0x461BCD PUSH1 0xE5 SHL DUP2 MSTORE PUSH1 0x4 ADD PUSH2 0x432 SWAP1 PUSH2 0x1FF2 JUMP JUMPDEST PUSH1 0x40 MLOAD DUP1 SWAP2 SUB SWAP1 REVERT JUMPDEST PUSH1 0x1 PUSH1 0x5 SLOAD PUSH1 0x1 PUSH1 0xA0 SHL SWAP1 DIV PUSH1 0xFF AND PUSH1 0x3 DUP2 GT ISZERO PUSH2 0x45B JUMPI PUSH2 0x45B PUSH2 0x1D4C JUMP JUMPDEST EQ PUSH2 0x49A JUMPI PUSH1 0x40 MLOAD PUSH3 0x461BCD PUSH1 0xE5 SHL DUP2 MSTORE PUSH1 0x20 PUSH1 0x4 DUP3 ADD MSTORE PUSH1 0xF PUSH1 0x24 DUP3 ADD MSTORE PUSH15 0x135D5CDD081B1BD8DAC8199A5C9CDD PUSH1 0x8A SHL PUSH1 0x44 DUP3 ADD MSTORE PUSH1 0x64 ADD PUSH2 0x432 JUMP JUMPDEST DUP3 DUP2 EQ PUSH2 0x4DB JUMPI PUSH1 0x40 MLOAD PUSH3 0x461BCD PUSH1 0xE5 SHL DUP2 MSTORE PUSH1 0x20 PUSH1 0x4 DUP3 ADD MSTORE PUSH1 0xF PUSH1 0x24 DUP3 ADD MSTORE PUSH15 0x98CADCCEE8D040DAD2E6DAC2E8C6D PUSH1 0x8B SHL PUSH1 0x44 DUP3 ADD MSTORE PUSH1 0x64 ADD PUSH2 0x432 JUMP JUMPDEST PUSH1 0x0 JUMPDEST DUP4 DUP2 LT ISZERO PUSH2 0x541 JUMPI DUP3 DUP3 DUP3 DUP2 DUP2 LT PUSH2 0x4F8 JUMPI PUSH2 0x4F8 PUSH2 0x2015 JUMP JUMPDEST SWAP1 POP PUSH1 0x20 MUL ADD CALLDATALOAD PUSH1 0xB PUSH1 0x0 DUP8 DUP8 DUP6 DUP2 DUP2 LT PUSH2 0x515 JUMPI PUSH2 0x515 PUSH2 0x2015 JUMP JUMPDEST SWAP1 POP PUSH1 0x20 MUL ADD CALLDATALOAD DUP2 MSTORE PUSH1 0x20 ADD SWAP1 DUP2 MSTORE PUSH1 0x20 ADD PUSH1 0x0 KECCAK256 DUP2 SWAP1 SSTORE POP DUP1 DUP1 PUSH2 0x539 SWAP1 PUSH2 0x2041 JUMP JUMPDEST SWAP2 POP POP PUSH2 0x4DE JUMP JUMPDEST POP PUSH1 0x0 JUMPDEST PUSH1 0x9 SLOAD DUP2 LT ISZERO PUSH2 0x5F1 JUMPI PUSH1 0x0 PUSH1 0x9 DUP3 DUP2 SLOAD DUP2 LT PUSH2 0x564 JUMPI PUSH2 0x564 PUSH2 0x2015 JUMP JUMPDEST SWAP1 PUSH1 0x0 MSTORE PUSH1 0x20 PUSH1 0x0 KECCAK256 SWAP1 PUSH1 0x7 MUL ADD SWAP1 POP PUSH2 0x5D9 DUP2 PUSH1 0x1 ADD DUP1 SLOAD DUP1 PUSH1 0x20 MUL PUSH1 0x20 ADD PUSH1 0x40 MLOAD SWAP1 DUP2 ADD PUSH1 0x40 MSTORE DUP1 SWAP3 SWAP2 SWAP1 DUP2 DUP2 MSTORE PUSH1 0x20 ADD DUP3 DUP1 SLOAD DUP1 ISZERO PUSH2 0x5C5 JUMPI PUSH1 0x20 MUL DUP3 ADD SWAP2 SWAP1 PUSH1 0x0 MSTORE PUSH1 0x20 PUSH1 0x0 KECCAK256 SWAP1 JUMPDEST DUP2 SLOAD DUP2 MSTORE PUSH1 0x20 ADD SWAP1 PUSH1 0x1 ADD SWAP1 DUP1 DUP4 GT PUSH2 0x5B1 JUMPI JUMPDEST POP POP POP POP POP DUP3 PUSH1 0x2 ADD SLOAD DUP4 PUSH1 0x3 ADD SLOAD PUSH2 0x1506 JUMP JUMPDEST PUSH1 0x4 SWAP1 SWAP2 ADD SSTORE DUP1 PUSH2 0x5E9 DUP2 PUSH2 0x2041 JUMP JUMPDEST SWAP2 POP POP PUSH2 0x545 JUMP JUMPDEST POP PUSH2 0x5FA PUSH2 0x15D8 JUMP JUMPDEST PUSH1 0x5 DUP1 SLOAD PUSH1 0xFF PUSH1 0xA0 SHL NOT AND PUSH1 0x1 PUSH1 0xA1 SHL OR SWAP1 SSTORE PUSH1 0x40 MLOAD PUSH32 0x3ADB95F13423BA99020599C9FD45E0B650F2B9599D287C615E53005D5D2AFD9C SWAP1 PUSH2 0x643 SWAP1 DUP7 SWAP1 DUP7 SWAP1 DUP7 SWAP1 DUP7 SWAP1 PUSH2 0x208C JUMP JUMPDEST PUSH1 0x40 MLOAD DUP1 SWAP2 SUB SWAP1 LOG1 POP POP POP POP JUMP JUMPDEST PUSH1 0x0 PUSH1 0x5 SLOAD PUSH1 0x1 PUSH1 0xA0 SHL SWAP1 DIV PUSH1 0xFF AND PUSH1 0x3 DUP2 GT ISZERO PUSH2 0x671 JUMPI PUSH2 0x671 PUSH2 0x1D4C JUMP JUMPDEST EQ PUSH2 0x6B1 JUMPI PUSH1 0x40 MLOAD PUSH3 0x461BCD PUSH1 0xE5 SHL DUP2 MSTORE PUSH1 0x20 PUSH1 0x4 DUP3 ADD MSTORE PUSH1 0x10 PUSH1 0x24 DUP3 ADD MSTORE PUSH16 0x21B7B73A32B9BA103737BA1037B832B7 PUSH1 0x81 SHL PUSH1 0x44 DUP3 ADD MSTORE PUSH1 0x64 ADD PUSH2 0x432 JUMP JUMPDEST PUSH1 0x3 SLOAD TIMESTAMP LT PUSH2 0x6F4 JUMPI PUSH1 0x40 MLOAD PUSH3 0x461BCD PUSH1 0xE5 SHL DUP2 MSTORE PUSH1 0x20 PUSH1 0x4 DUP3 ADD MSTORE PUSH1 0xF PUSH1 0x24 DUP3 ADD MSTORE PUSH15 0x111958591B1A5B99481C185CDCD959 PUSH1 0x8A SHL PUSH1 0x44 DUP3 ADD MSTORE PUSH1 0x64 ADD PUSH2 0x432 JUMP JUMPDEST PUSH1 0x2 SLOAD CALLVALUE LT ISZERO PUSH2 0x73F JUMPI PUSH1 0x40 MLOAD PUSH3 0x461BCD PUSH1 0xE5 SHL DUP2 MSTORE PUSH1 0x20 PUSH1 0x4 DUP3 ADD MSTORE PUSH1 0x16 PUSH1 0x24 DUP3 ADD MSTORE PUSH22 0x496E73756666696369656E7420656E74727920666565 PUSH1 0x50 SHL PUSH1 0x44 DUP3 ADD MSTORE PUSH1 0x64 ADD PUSH2 0x432 JUMP JUMPDEST PUSH1 0x4 SLOAD ISZERO DUP1 PUSH2 0x751 JUMPI POP PUSH1 0x4 SLOAD PUSH1 0x9 SLOAD LT JUMPDEST PUSH2 0x78C JUMPI PUSH1 0x40 MLOAD PUSH3 0x461BCD PUSH1 0xE5 SHL DUP2 MSTORE PUSH1 0x20 PUSH1 0x4 DUP3 ADD MSTORE PUSH1 0xC PUSH1 0x24 DUP3 ADD MSTORE PUSH12 0x10DBDB9D195CDD08199D5B1B PUSH1 0xA2 SHL PUSH1 0x44 DUP3 ADD MSTORE PUSH1 0x64 ADD PUSH2 0x432 JUMP JUMPDEST PUSH2 0x798 DUP5 DUP5 DUP5 DUP5 PUSH2 0x16DA JUMP JUMPDEST PUSH1 0x9 DUP1 SLOAD PUSH1 0x40 DUP1 MLOAD PUSH1 0xE0 DUP2 ADD DUP3 MSTORE CALLER DUP2 MSTORE DUP2 MLOAD PUSH1 0x20 DUP9 DUP2 MUL DUP3 DUP2 ADD DUP3 ADD SWAP1 SWAP5 MSTORE DUP9 DUP3 MSTORE SWAP4 SWAP5 SWAP4 SWAP2 SWAP3 DUP3 DUP5 ADD SWAP3 DUP11 SWAP2 DUP11 SWAP2 DUP3 SWAP2 SWAP1 DUP6 ADD SWAP1 DUP5 SWAP1 DUP1 DUP3 DUP5 CALLDATACOPY PUSH1 0x0 SWAP3 ADD DUP3 SWAP1 MSTORE POP SWAP4 DUP6 MSTORE POP POP POP PUSH1 0x20 DUP1 DUP4 ADD DUP9 SWAP1 MSTORE PUSH1 0x40 DUP4 ADD DUP8 SWAP1 MSTORE PUSH1 0x60 DUP4 ADD DUP3 SWAP1 MSTORE PUSH1 0x80 DUP4 ADD DUP3 SWAP1 MSTORE PUSH1 0xA0 SWAP1 SWAP3 ADD DUP2 SWAP1 MSTORE DUP4 SLOAD PUSH1 0x1 DUP1 DUP3 ADD DUP7 SSTORE SWAP5 DUP3 MSTORE SWAP1 DUP3 SWAP1 KECCAK256 DUP4 MLOAD PUSH1 0x7 SWAP1 SWAP3 MUL ADD DUP1 SLOAD PUSH1 0x1 PUSH1 0x1 PUSH1 0xA0 SHL SUB NOT AND PUSH1 0x1 PUSH1 0x1 PUSH1 0xA0 SHL SUB SWAP1 SWAP3 AND SWAP2 SWAP1 SWAP2 OR DUP2 SSTORE DUP3 DUP3 ADD MLOAD DUP1 MLOAD SWAP4 SWAP5 SWAP2 SWAP4 PUSH2 0x858 SWAP4 SWAP3 DUP6 ADD SWAP3 SWAP2 SWAP1 SWAP2 ADD SWAP1 PUSH2 0x1CEC JUMP JUMPDEST POP PUSH1 0x40 DUP3 DUP2 ADD MLOAD PUSH1 0x2 DUP4 DUP2 ADD SWAP2 SWAP1 SWAP2 SSTORE PUSH1 0x60 DUP5 ADD MLOAD PUSH1 0x3 DUP5 ADD SSTORE PUSH1 0x80 DUP5 ADD MLOAD PUSH1 0x4 DUP5 ADD SSTORE PUSH1 0xA0 DUP5 ADD MLOAD PUSH1 0x5 DUP5 ADD SSTORE PUSH1 0xC0 SWAP1 SWAP4 ADD MLOAD PUSH1 0x6 SWAP1 SWAP3 ADD DUP1 SLOAD PUSH1 0xFF NOT AND SWAP3 ISZERO ISZERO SWAP3 SWAP1 SWAP3 OR SWAP1 SWAP2 SSTORE CALLER PUSH1 0x0 SWAP1 DUP2 MSTORE PUSH1 0xA PUSH1 0x20 SWAP1 DUP2 MSTORE SWAP2 DUP2 KECCAK256 DUP1 SLOAD PUSH1 0x1 DUP2 ADD DUP3 SSTORE SWAP1 DUP3 MSTORE SWAP2 DUP2 KECCAK256 SWAP1 SWAP2 ADD DUP4 SWAP1 SSTORE SWAP1 SLOAD PUSH1 0x7 DUP1 SLOAD SWAP2 SWAP3 SWAP1 SWAP2 PUSH2 0x8DA SWAP1 DUP5 SWAP1 PUSH2 0x20B3 JUMP JUMPDEST SWAP1 SWAP2 SSTORE POP POP PUSH1 0x2 SLOAD CALLVALUE GT ISZERO PUSH2 0x97F JUMPI PUSH1 0x2 SLOAD PUSH1 0x0 SWAP1 CALLER SWAP1 PUSH2 0x8FB SWAP1 CALLVALUE PUSH2 0x20C6 JUMP JUMPDEST PUSH1 0x40 MLOAD PUSH1 0x0 DUP2 DUP2 DUP2 DUP6 DUP8 GAS CALL SWAP3 POP POP POP RETURNDATASIZE DUP1 PUSH1 0x0 DUP2 EQ PUSH2 0x937 JUMPI PUSH1 0x40 MLOAD SWAP2 POP PUSH1 0x1F NOT PUSH1 0x3F RETURNDATASIZE ADD AND DUP3 ADD PUSH1 0x40 MSTORE RETURNDATASIZE DUP3 MSTORE RETURNDATASIZE PUSH1 0x0 PUSH1 0x20 DUP5 ADD RETURNDATACOPY PUSH2 0x93C JUMP JUMPDEST PUSH1 0x60 SWAP2 POP JUMPDEST POP POP SWAP1 POP DUP1 PUSH2 0x97D JUMPI PUSH1 0x40 MLOAD PUSH3 0x461BCD PUSH1 0xE5 SHL DUP2 MSTORE PUSH1 0x20 PUSH1 0x4 DUP3 ADD MSTORE PUSH1 0xD PUSH1 0x24 DUP3 ADD MSTORE PUSH13 0x1499599D5B990819985A5B1959 PUSH1 0x9A SHL PUSH1 0x44 DUP3 ADD MSTORE PUSH1 0x64 ADD PUSH2 0x432 JUMP JUMPDEST POP JUMPDEST CALLER PUSH1 0x1 PUSH1 0x1 PUSH1 0xA0 SHL SUB AND PUSH32 0xD1AEDF589A9A78AF855A6A369098BD9E3B0565C662425F3B2DF298AC7B555D9D DUP3 DUP8 DUP8 DUP8 DUP8 PUSH1 0x40 MLOAD PUSH2 0x9C0 SWAP6 SWAP5 SWAP4 SWAP3 SWAP2 SWAP1 PUSH2 0x20D9 JUMP JUMPDEST PUSH1 0x40 MLOAD DUP1 SWAP2 SUB SWAP1 LOG2 POP POP POP POP POP JUMP JUMPDEST PUSH1 0xA PUSH1 0x20 MSTORE DUP2 PUSH1 0x0 MSTORE PUSH1 0x40 PUSH1 0x0 KECCAK256 DUP2 DUP2 SLOAD DUP2 LT PUSH2 0x9EB JUMPI PUSH1 0x0 DUP1 REVERT JUMPDEST SWAP1 PUSH1 0x0 MSTORE PUSH1 0x20 PUSH1 0x0 KECCAK256 ADD PUSH1 0x0 SWAP2 POP SWAP2 POP POP SLOAD DUP2 JUMP JUMPDEST PUSH1 0x9 SLOAD PUSH1 0x60 SWAP1 DUP2 SWAP1 DUP2 SWAP1 DUP2 SWAP1 DUP1 PUSH8 0xFFFFFFFFFFFFFFFF DUP2 GT ISZERO PUSH2 0xA25 JUMPI PUSH2 0xA25 PUSH2 0x2107 JUMP JUMPDEST PUSH1 0x40 MLOAD SWAP1 DUP1 DUP3 MSTORE DUP1 PUSH1 0x20 MUL PUSH1 0x20 ADD DUP3 ADD PUSH1 0x40 MSTORE DUP1 ISZERO PUSH2 0xA4E JUMPI DUP2 PUSH1 0x20 ADD PUSH1 0x20 DUP3 MUL DUP1 CALLDATASIZE DUP4 CALLDATACOPY ADD SWAP1 POP JUMPDEST POP SWAP5 POP DUP1 PUSH8 0xFFFFFFFFFFFFFFFF DUP2 GT ISZERO PUSH2 0xA6A JUMPI PUSH2 0xA6A PUSH2 0x2107 JUMP JUMPDEST PUSH1 0x40 MLOAD SWAP1 DUP1 DUP3 MSTORE DUP1 PUSH1 0x20 MUL PUSH1 0x20 ADD DUP3 ADD PUSH1 0x40 MSTORE DUP1 ISZERO PUSH2 0xA93 JUMPI DUP2 PUSH1 0x20 ADD PUSH1 0x20 DUP3 MUL DUP1 CALLDATASIZE DUP4 CALLDATACOPY ADD SWAP1 POP JUMPDEST POP SWAP4 POP DUP1 PUSH8 0xFFFFFFFFFFFFFFFF DUP2 GT ISZERO PUSH2 0xAAF JUMPI PUSH2 0xAAF PUSH2 0x2107 JUMP JUMPDEST PUSH1 0x40 MLOAD SWAP1 DUP1 DUP3 MSTORE DUP1 PUSH1 0x20 MUL PUSH1 0x20 ADD DUP3 ADD PUSH1 0x40 MSTORE DUP1 ISZERO PUSH2 0xAD8 JUMPI DUP2 PUSH1 0x20 ADD PUSH1 0x20 DUP3 MUL DUP1 CALLDATASIZE DUP4 CALLDATACOPY ADD SWAP1 POP JUMPDEST POP SWAP3 POP DUP1 PUSH8 0xFFFFFFFFFFFFFFFF DUP2 GT ISZERO PUSH2 0xAF4 JUMPI PUSH2 0xAF4 PUSH2 0x2107 JUMP JUMPDEST PUSH1 0x40 MLOAD SWAP1 DUP1 DUP3 MSTORE DUP1 PUSH1 0x20 MUL PUSH1 0x20 ADD DUP3 ADD PUSH1 0x40 MSTORE DUP1 ISZERO PUSH2 0xB1D JUMPI DUP2 PUSH1 0x20 ADD PUSH1 0x20 DUP3 MUL DUP1 CALLDATASIZE DUP4 CALLDATACOPY ADD SWAP1 POP JUMPDEST POP SWAP2 POP DUP1 PUSH1 0x0 SUB PUSH2 0xB2E JUMPI POP PUSH2 0xF25 JUMP JUMPDEST PUSH1 0x0 JUMPDEST DUP2 DUP2 LT ISZERO PUSH2 0xC53 JUMPI PUSH1 0x9 DUP2 DUP2 SLOAD DUP2 LT PUSH2 0xB4C JUMPI PUSH2 0xB4C PUSH2 0x2015 JUMP JUMPDEST PUSH1 0x0 SWAP2 DUP3 MSTORE PUSH1 0x20 SWAP1 SWAP2 KECCAK256 PUSH1 0x7 SWAP1 SWAP2 MUL ADD SLOAD DUP7 MLOAD PUSH1 0x1 PUSH1 0x1 PUSH1 0xA0 SHL SUB SWAP1 SWAP2 AND SWAP1 DUP8 SWAP1 DUP4 SWAP1 DUP2 LT PUSH2 0xB7D JUMPI PUSH2 0xB7D PUSH2 0x2015 JUMP JUMPDEST PUSH1 0x20 MUL PUSH1 0x20 ADD ADD SWAP1 PUSH1 0x1 PUSH1 0x1 PUSH1 0xA0 SHL SUB AND SWAP1 DUP2 PUSH1 0x1 PUSH1 0x1 PUSH1 0xA0 SHL SUB AND DUP2 MSTORE POP POP PUSH1 0x9 DUP2 DUP2 SLOAD DUP2 LT PUSH2 0xBB0 JUMPI PUSH2 0xBB0 PUSH2 0x2015 JUMP JUMPDEST SWAP1 PUSH1 0x0 MSTORE PUSH1 0x20 PUSH1 0x0 KECCAK256 SWAP1 PUSH1 0x7 MUL ADD PUSH1 0x4 ADD SLOAD DUP6 DUP3 DUP2 MLOAD DUP2 LT PUSH2 0xBD4 JUMPI PUSH2 0xBD4 PUSH2 0x2015 JUMP JUMPDEST PUSH1 0x20 MUL PUSH1 0x20 ADD ADD DUP2 DUP2 MSTORE POP POP PUSH1 0x9 DUP2 DUP2 SLOAD DUP2 LT PUSH2 0xBF3 JUMPI PUSH2 0xBF3 PUSH2 0x2015 JUMP JUMPDEST SWAP1 PUSH1 0x0 MSTORE PUSH1 0x20 PUSH1 0x0 KECCAK256 SWAP1 PUSH1 0x7 MUL ADD PUSH1 0x5 ADD SLOAD DUP5 DUP3 DUP2 MLOAD DUP2 LT PUSH2 0xC17 JUMPI PUSH2 0xC17 PUSH2 0x2015 JUMP JUMPDEST PUSH1 0x20 MUL PUSH1 0x20 ADD ADD DUP2 DUP2 MSTORE POP POP DUP1 DUP4 DUP3 DUP2 MLOAD DUP2 LT PUSH2 0xC36 JUMPI PUSH2 0xC36 PUSH2 0x2015 JUMP JUMPDEST PUSH1 0x20 SWAP1 DUP2 MUL SWAP2 SWAP1 SWAP2 ADD ADD MSTORE DUP1 PUSH2 0xC4B DUP2 PUSH2 0x2041 JUMP JUMPDEST SWAP2 POP POP PUSH2 0xB31 JUMP JUMPDEST POP PUSH1 0x0 JUMPDEST PUSH2 0xC62 PUSH1 0x1 DUP4 PUSH2 0x20C6 JUMP JUMPDEST DUP2 LT ISZERO PUSH2 0xF22 JUMPI PUSH1 0x0 PUSH2 0xC76 DUP3 PUSH1 0x1 PUSH2 0x20B3 JUMP JUMPDEST SWAP1 POP JUMPDEST DUP3 DUP2 LT ISZERO PUSH2 0xF0F JUMPI DUP5 DUP3 DUP2 MLOAD DUP2 LT PUSH2 0xC93 JUMPI PUSH2 0xC93 PUSH2 0x2015 JUMP JUMPDEST PUSH1 0x20 MUL PUSH1 0x20 ADD ADD MLOAD DUP6 DUP3 DUP2 MLOAD DUP2 LT PUSH2 0xCAD JUMPI PUSH2 0xCAD PUSH2 0x2015 JUMP JUMPDEST PUSH1 0x20 MUL PUSH1 0x20 ADD ADD MLOAD LT DUP1 PUSH2 0xD2E JUMPI POP DUP5 DUP3 DUP2 MLOAD DUP2 LT PUSH2 0xCCE JUMPI PUSH2 0xCCE PUSH2 0x2015 JUMP JUMPDEST PUSH1 0x20 MUL PUSH1 0x20 ADD ADD MLOAD DUP6 DUP3 DUP2 MLOAD DUP2 LT PUSH2 0xCE8 JUMPI PUSH2 0xCE8 PUSH2 0x2015 JUMP JUMPDEST PUSH1 0x20 MUL PUSH1 0x20 ADD ADD MLOAD EQ DUP1 ISZERO PUSH2 0xD2E JUMPI POP DUP6 DUP3 DUP2 MLOAD DUP2 LT PUSH2 0xD0A JUMPI PUSH2 0xD0A PUSH2 0x2015 JUMP JUMPDEST PUSH1 0x20 MUL PUSH1 0x20 ADD ADD MLOAD DUP7 DUP3 DUP2 MLOAD DUP2 LT PUSH2 0xD24 JUMPI PUSH2 0xD24 PUSH2 0x2015 JUMP JUMPDEST PUSH1 0x20 MUL PUSH1 0x20 ADD ADD MLOAD GT JUMPDEST ISZERO PUSH2 0xEFD JUMPI DUP7 DUP2 DUP2 MLOAD DUP2 LT PUSH2 0xD45 JUMPI PUSH2 0xD45 PUSH2 0x2015 JUMP JUMPDEST PUSH1 0x20 MUL PUSH1 0x20 ADD ADD MLOAD DUP8 DUP4 DUP2 MLOAD DUP2 LT PUSH2 0xD5F JUMPI PUSH2 0xD5F PUSH2 0x2015 JUMP JUMPDEST PUSH1 0x20 MUL PUSH1 0x20 ADD ADD MLOAD DUP9 DUP5 DUP2 MLOAD DUP2 LT PUSH2 0xD79 JUMPI PUSH2 0xD79 PUSH2 0x2015 JUMP JUMPDEST PUSH1 0x20 MUL PUSH1 0x20 ADD ADD DUP10 DUP5 DUP2 MLOAD DUP2 LT PUSH2 0xD92 JUMPI PUSH2 0xD92 PUSH2 0x2015 JUMP JUMPDEST PUSH1 0x1 PUSH1 0x1 PUSH1 0xA0 SHL SUB SWAP4 DUP5 AND PUSH1 0x20 SWAP2 DUP3 MUL SWAP3 SWAP1 SWAP3 ADD ADD MSTORE SWAP2 AND SWAP1 MSTORE DUP6 MLOAD DUP7 SWAP1 DUP3 SWAP1 DUP2 LT PUSH2 0xDC0 JUMPI PUSH2 0xDC0 PUSH2 0x2015 JUMP JUMPDEST PUSH1 0x20 MUL PUSH1 0x20 ADD ADD MLOAD DUP7 DUP4 DUP2 MLOAD DUP2 LT PUSH2 0xDDA JUMPI PUSH2 0xDDA PUSH2 0x2015 JUMP JUMPDEST PUSH1 0x20 MUL PUSH1 0x20 ADD ADD MLOAD DUP8 DUP5 DUP2 MLOAD DUP2 LT PUSH2 0xDF4 JUMPI PUSH2 0xDF4 PUSH2 0x2015 JUMP JUMPDEST PUSH1 0x20 MUL PUSH1 0x20 ADD ADD DUP9 DUP5 DUP2 MLOAD DUP2 LT PUSH2 0xE0D JUMPI PUSH2 0xE0D PUSH2 0x2015 JUMP JUMPDEST PUSH1 0x20 MUL PUSH1 0x20 ADD ADD DUP3 DUP2 MSTORE POP DUP3 DUP2 MSTORE POP POP POP DUP5 DUP2 DUP2 MLOAD DUP2 LT PUSH2 0xE30 JUMPI PUSH2 0xE30 PUSH2 0x2015 JUMP JUMPDEST PUSH1 0x20 MUL PUSH1 0x20 ADD ADD MLOAD DUP6 DUP4 DUP2 MLOAD DUP2 LT PUSH2 0xE4A JUMPI PUSH2 0xE4A PUSH2 0x2015 JUMP JUMPDEST PUSH1 0x20 MUL PUSH1 0x20 ADD ADD MLOAD DUP7 DUP5 DUP2 MLOAD DUP2 LT PUSH2 0xE64 JUMPI PUSH2 0xE64 PUSH2 0x2015 JUMP JUMPDEST PUSH1 0x20 MUL PUSH1 0x20 ADD ADD DUP8 DUP5 DUP2 MLOAD DUP2 LT PUSH2 0xE7D JUMPI PUSH2 0xE7D PUSH2 0x2015 JUMP JUMPDEST PUSH1 0x20 MUL PUSH1 0x20 ADD ADD DUP3 DUP2 MSTORE POP DUP3 DUP2 MSTORE POP POP POP DUP4 DUP2 DUP2 MLOAD DUP2 LT PUSH2 0xEA0 JUMPI PUSH2 0xEA0 PUSH2 0x2015 JUMP JUMPDEST PUSH1 0x20 MUL PUSH1 0x20 ADD ADD MLOAD DUP5 DUP4 DUP2 MLOAD DUP2 LT PUSH2 0xEBA JUMPI PUSH2 0xEBA PUSH2 0x2015 JUMP JUMPDEST PUSH1 0x20 MUL PUSH1 0x20 ADD ADD MLOAD DUP6 DUP5 DUP2 MLOAD DUP2 LT PUSH2 0xED4 JUMPI PUSH2 0xED4 PUSH2 0x2015 JUMP JUMPDEST PUSH1 0x20 MUL PUSH1 0x20 ADD ADD DUP7 DUP5 DUP2 MLOAD DUP2 LT PUSH2 0xEED JUMPI PUSH2 0xEED PUSH2 0x2015 JUMP JUMPDEST PUSH1 0x20 SWAP1 DUP2 MUL SWAP2 SWAP1 SWAP2 ADD ADD SWAP2 SWAP1 SWAP2 MSTORE MSTORE JUMPDEST DUP1 PUSH2 0xF07 DUP2 PUSH2 0x2041 JUMP JUMPDEST SWAP2 POP POP PUSH2 0xC79 JUMP JUMPDEST POP DUP1 PUSH2 0xF1A DUP2 PUSH2 0x2041 JUMP JUMPDEST SWAP2 POP POP PUSH2 0xC57 JUMP JUMPDEST POP POP JUMPDEST SWAP1 SWAP2 SWAP3 SWAP4 JUMP JUMPDEST PUSH1 0x5 SLOAD PUSH1 0x1 PUSH1 0x1 PUSH1 0xA0 SHL SUB AND CALLER EQ PUSH2 0xF55 JUMPI PUSH1 0x40 MLOAD PUSH3 0x461BCD PUSH1 0xE5 SHL DUP2 MSTORE PUSH1 0x4 ADD PUSH2 0x432 SWAP1 PUSH2 0x1FF2 JUMP JUMPDEST PUSH1 0x0 PUSH1 0x5 SLOAD PUSH1 0x1 PUSH1 0xA0 SHL SWAP1 DIV PUSH1 0xFF AND PUSH1 0x3 DUP2 GT ISZERO PUSH2 0xF75 JUMPI PUSH2 0xF75 PUSH2 0x1D4C JUMP JUMPDEST EQ PUSH2 0xFB3 JUMPI PUSH1 0x40 MLOAD PUSH3 0x461BCD PUSH1 0xE5 SHL DUP2 MSTORE PUSH1 0x20 PUSH1 0x4 DUP3 ADD MSTORE PUSH1 0xE PUSH1 0x24 DUP3 ADD MSTORE PUSH14 0x105B1C9958591E481B1BD8DAD959 PUSH1 0x92 SHL PUSH1 0x44 DUP3 ADD MSTORE PUSH1 0x64 ADD PUSH2 0x432 JUMP JUMPDEST PUSH1 0x3 SLOAD TIMESTAMP LT ISZERO PUSH2 0xFFB JUMPI PUSH1 0x40 MLOAD PUSH3 0x461BCD PUSH1 0xE5 SHL DUP2 MSTORE PUSH1 0x20 PUSH1 0x4 DUP3 ADD MSTORE PUSH1 0x13 PUSH1 0x24 DUP3 ADD MSTORE PUSH19 0x111958591B1A5B99481B9BDD081C185CDCD959 PUSH1 0x6A SHL PUSH1 0x44 DUP3 ADD MSTORE PUSH1 0x64 ADD PUSH2 0x432 JUMP JUMPDEST PUSH1 0x5 DUP1 SLOAD PUSH1 0x1 SWAP2 SWAP1 PUSH1 0xFF PUSH1 0xA0 SHL NOT AND PUSH1 0x1 PUSH1 0xA0 SHL DUP4 JUMPDEST MUL OR SWAP1 SSTORE POP JUMP JUMPDEST PUSH1 0x6 DUP2 DUP2 SLOAD DUP2 LT PUSH2 0x1028 JUMPI PUSH1 0x0 DUP1 REVERT JUMPDEST PUSH1 0x0 SWAP2 DUP3 MSTORE PUSH1 0x20 SWAP1 SWAP2 KECCAK256 ADD SLOAD SWAP1 POP DUP2 JUMP JUMPDEST PUSH1 0x0 PUSH1 0x60 PUSH1 0x0 DUP1 PUSH1 0x0 DUP1 PUSH1 0x9 DUP1 SLOAD SWAP1 POP DUP8 LT PUSH2 0x1087 JUMPI PUSH1 0x40 MLOAD PUSH3 0x461BCD PUSH1 0xE5 SHL DUP2 MSTORE PUSH1 0x20 PUSH1 0x4 DUP3 ADD MSTORE PUSH1 0xD PUSH1 0x24 DUP3 ADD MSTORE PUSH13 0x496E76616C696420656E747279 PUSH1 0x98 SHL PUSH1 0x44 DUP3 ADD MSTORE PUSH1 0x64 ADD PUSH2 0x432 JUMP JUMPDEST PUSH1 0x0 PUSH1 0x9 DUP9 DUP2 SLOAD DUP2 LT PUSH2 0x109C JUMPI PUSH2 0x109C PUSH2 0x2015 JUMP JUMPDEST SWAP1 PUSH1 0x0 MSTORE PUSH1 0x20 PUSH1 0x0 KECCAK256 SWAP1 PUSH1 0x7 MUL ADD SWAP1 POP DUP1 PUSH1 0x0 ADD PUSH1 0x0 SWAP1 SLOAD SWAP1 PUSH2 0x100 EXP SWAP1 DIV PUSH1 0x1 PUSH1 0x1 PUSH1 0xA0 SHL SUB AND DUP2 PUSH1 0x1 ADD DUP3 PUSH1 0x2 ADD SLOAD DUP4 PUSH1 0x3 ADD SLOAD DUP5 PUSH1 0x4 ADD SLOAD DUP6 PUSH1 0x5 ADD SLOAD DUP5 DUP1 SLOAD DUP1 PUSH1 0x20 MUL PUSH1 0x20 ADD PUSH1 0x40 MLOAD SWAP1 DUP2 ADD PUSH1 0x40 MSTORE DUP1 SWAP3 SWAP2 SWAP1 DUP2 DUP2 MSTORE PUSH1 0x20 ADD DUP3 DUP1 SLOAD DUP1 ISZERO PUSH2 0x1127 JUMPI PUSH1 0x20 MUL DUP3 ADD SWAP2 SWAP1 PUSH1 0x0 MSTORE PUSH1 0x20 PUSH1 0x0 KECCAK256 SWAP1 JUMPDEST DUP2 SLOAD DUP2 MSTORE PUSH1 0x20 ADD SWAP1 PUSH1 0x1 ADD SWAP1 DUP1 DUP4 GT PUSH2 0x1113 JUMPI JUMPDEST POP POP POP POP POP SWAP5 POP SWAP7 POP SWAP7 POP SWAP7 POP SWAP7 POP SWAP7 POP SWAP7 POP POP SWAP2 SWAP4 SWAP6 POP SWAP2 SWAP4 SWAP6 JUMP JUMPDEST PUSH1 0x9 DUP2 DUP2 SLOAD DUP2 LT PUSH2 0x1154 JUMPI PUSH1 0x0 DUP1 REVERT JUMPDEST PUSH1 0x0 SWAP2 DUP3 MSTORE PUSH1 0x20 SWAP1 SWAP2 KECCAK256 PUSH1 0x7 SWAP1 SWAP2 MUL ADD DUP1 SLOAD PUSH1 0x2 DUP3 ADD SLOAD PUSH1 0x3 DUP4 ADD SLOAD PUSH1 0x4 DUP5 ADD SLOAD PUSH1 0x5 DUP6 ADD SLOAD PUSH1 0x6 SWAP1 SWAP6 ADD SLOAD PUSH1 0x1 PUSH1 0x1 PUSH1 0xA0 SHL SUB SWAP1 SWAP5 AND SWAP6 POP SWAP2 SWAP4 SWAP1 SWAP3 PUSH1 0xFF AND DUP7 JUMP JUMPDEST PUSH1 0x3 PUSH1 0x5 SLOAD PUSH1 0x1 PUSH1 0xA0 SHL SWAP1 DIV PUSH1 0xFF AND PUSH1 0x3 DUP2 GT ISZERO PUSH2 0x11B7 JUMPI PUSH2 0x11B7 PUSH2 0x1D4C JUMP JUMPDEST EQ PUSH2 0x11FC JUMPI PUSH1 0x40 MLOAD PUSH3 0x461BCD PUSH1 0xE5 SHL DUP2 MSTORE PUSH1 0x20 PUSH1 0x4 DUP3 ADD MSTORE PUSH1 0x15 PUSH1 0x24 DUP3 ADD MSTORE PUSH21 0x10DBDB9D195CDD081B9BDD0818DBDB5C1B195D1959 PUSH1 0x5A SHL PUSH1 0x44 DUP3 ADD MSTORE PUSH1 0x64 ADD PUSH2 0x432 JUMP JUMPDEST PUSH1 0x9 SLOAD DUP2 LT PUSH2 0x123D JUMPI PUSH1 0x40 MLOAD PUSH3 0x461BCD PUSH1 0xE5 SHL DUP2 MSTORE PUSH1 0x20 PUSH1 0x4 DUP3 ADD MSTORE PUSH1 0xD PUSH1 0x24 DUP3 ADD MSTORE PUSH13 0x496E76616C696420656E747279 PUSH1 0x98 SHL PUSH1 0x44 DUP3 ADD MSTORE PUSH1 0x64 ADD PUSH2 0x432 JUMP JUMPDEST PUSH1 0x0 PUSH1 0x9 DUP3 DUP2 SLOAD DUP2 LT PUSH2 0x1252 JUMPI PUSH2 0x1252 PUSH2 0x2015 JUMP JUMPDEST PUSH1 0x0 SWAP2 DUP3 MSTORE PUSH1 0x20 SWAP1 SWAP2 KECCAK256 PUSH1 0x7 SWAP1 SWAP2 MUL ADD DUP1 SLOAD SWAP1 SWAP2 POP PUSH1 0x1 PUSH1 0x1 PUSH1 0xA0 SHL SUB AND CALLER EQ PUSH2 0x12AF JUMPI PUSH1 0x40 MLOAD PUSH3 0x461BCD PUSH1 0xE5 SHL DUP2 MSTORE PUSH1 0x20 PUSH1 0x4 DUP3 ADD MSTORE PUSH1 0xE PUSH1 0x24 DUP3 ADD MSTORE PUSH14 0x4E6F7420796F757220656E747279 PUSH1 0x90 SHL PUSH1 0x44 DUP3 ADD MSTORE PUSH1 0x64 ADD PUSH2 0x432 JUMP JUMPDEST PUSH1 0x0 DUP2 PUSH1 0x5 ADD SLOAD GT PUSH2 0x12ED JUMPI PUSH1 0x40 MLOAD PUSH3 0x461BCD PUSH1 0xE5 SHL DUP2 MSTORE PUSH1 0x20 PUSH1 0x4 DUP3 ADD MSTORE PUSH1 0x7 PUSH1 0x24 DUP3 ADD MSTORE PUSH7 0x4E6F2072616E6B PUSH1 0xC8 SHL PUSH1 0x44 DUP3 ADD MSTORE PUSH1 0x64 ADD PUSH2 0x432 JUMP JUMPDEST PUSH1 0x6 DUP2 ADD SLOAD PUSH1 0xFF AND ISZERO PUSH2 0x1334 JUMPI PUSH1 0x40 MLOAD PUSH3 0x461BCD PUSH1 0xE5 SHL DUP2 MSTORE PUSH1 0x20 PUSH1 0x4 DUP3 ADD MSTORE PUSH1 0xF PUSH1 0x24 DUP3 ADD MSTORE PUSH15 0x105B1C9958591E4818DB185A5B5959 PUSH1 0x8A SHL PUSH1 0x44 DUP3 ADD MSTORE PUSH1 0x64 ADD PUSH2 0x432 JUMP JUMPDEST PUSH1 0x0 PUSH2 0x1343 DUP3 PUSH1 0x5 ADD SLOAD PUSH2 0x1BE4 JUMP JUMPDEST SWAP1 POP PUSH1 0x0 DUP2 GT PUSH2 0x138E JUMPI PUSH1 0x40 MLOAD PUSH3 0x461BCD PUSH1 0xE5 SHL DUP2 MSTORE PUSH1 0x20 PUSH1 0x4 DUP3 ADD MSTORE PUSH1 0x16 PUSH1 0x24 DUP3 ADD MSTORE PUSH22 0x4E6F207072697A6520666F7220746869732072616E6B PUSH1 0x50 SHL PUSH1 0x44 DUP3 ADD MSTORE PUSH1 0x64 ADD PUSH2 0x432 JUMP JUMPDEST PUSH1 0x6 DUP3 ADD DUP1 SLOAD PUSH1 0xFF NOT AND PUSH1 0x1 OR SWAP1 SSTORE PUSH1 0x40 MLOAD PUSH1 0x0 SWAP1 CALLER SWAP1 DUP4 SWAP1 DUP4 DUP2 DUP2 DUP2 DUP6 DUP8 GAS CALL SWAP3 POP POP POP RETURNDATASIZE DUP1 PUSH1 0x0 DUP2 EQ PUSH2 0x13DF JUMPI PUSH1 0x40 MLOAD SWAP2 POP PUSH1 0x1F NOT PUSH1 0x3F RETURNDATASIZE ADD AND DUP3 ADD PUSH1 0x40 MSTORE RETURNDATASIZE DUP3 MSTORE RETURNDATASIZE PUSH1 0x0 PUSH1 0x20 DUP5 ADD RETURNDATACOPY PUSH2 0x13E4 JUMP JUMPDEST PUSH1 0x60 SWAP2 POP JUMPDEST POP POP SWAP1 POP DUP1 PUSH2 0x1427 JUMPI PUSH1 0x40 MLOAD PUSH3 0x461BCD PUSH1 0xE5 SHL DUP2 MSTORE PUSH1 0x20 PUSH1 0x4 DUP3 ADD MSTORE PUSH1 0xF PUSH1 0x24 DUP3 ADD MSTORE PUSH15 0x151C985B9CD9995C8819985A5B1959 PUSH1 0x8A SHL PUSH1 0x44 DUP3 ADD MSTORE PUSH1 0x64 ADD PUSH2 0x432 JUMP JUMPDEST PUSH1 0x40 MLOAD DUP3 DUP2 MSTORE CALLER SWAP1 PUSH32 0xD8138F8A3F377C5259CA548E70E4C2DE94F129F5A11036A15B69513CBA2B426A SWAP1 PUSH1 0x20 ADD PUSH1 0x40 MLOAD DUP1 SWAP2 SUB SWAP1 LOG2 POP POP POP POP JUMP JUMPDEST PUSH1 0x5 SLOAD PUSH1 0x1 PUSH1 0x1 PUSH1 0xA0 SHL SUB AND CALLER EQ PUSH2 0x148C JUMPI PUSH1 0x40 MLOAD PUSH3 0x461BCD PUSH1 0xE5 SHL DUP2 MSTORE PUSH1 0x4 ADD PUSH2 0x432 SWAP1 PUSH2 0x1FF2 JUMP JUMPDEST PUSH1 0x2 PUSH1 0x5 SLOAD PUSH1 0x1 PUSH1 0xA0 SHL SWAP1 DIV PUSH1 0xFF AND PUSH1 0x3 DUP2 GT ISZERO PUSH2 0x14AC JUMPI PUSH2 0x14AC PUSH2 0x1D4C JUMP JUMPDEST EQ PUSH2 0x14EC JUMPI PUSH1 0x40 MLOAD PUSH3 0x461BCD PUSH1 0xE5 SHL DUP2 MSTORE PUSH1 0x20 PUSH1 0x4 DUP3 ADD MSTORE PUSH1 0x10 PUSH1 0x24 DUP3 ADD MSTORE PUSH16 0x135D5CDD081CD8DBDC9948199A5C9CDD PUSH1 0x82 SHL PUSH1 0x44 DUP3 ADD MSTORE PUSH1 0x64 ADD PUSH2 0x432 JUMP JUMPDEST PUSH1 0x5 DUP1 SLOAD PUSH1 0x3 SWAP2 SWAP1 PUSH1 0xFF PUSH1 0xA0 SHL NOT AND PUSH1 0x1 PUSH1 0xA0 SHL DUP4 PUSH2 0x1011 JUMP JUMPDEST PUSH1 0x0 DUP1 JUMPDEST DUP5 MLOAD DUP2 LT ISZERO PUSH2 0x15D0 JUMPI PUSH1 0x0 PUSH1 0xB PUSH1 0x0 DUP8 DUP5 DUP2 MLOAD DUP2 LT PUSH2 0x152B JUMPI PUSH2 0x152B PUSH2 0x2015 JUMP JUMPDEST PUSH1 0x20 MUL PUSH1 0x20 ADD ADD MLOAD DUP2 MSTORE PUSH1 0x20 ADD SWAP1 DUP2 MSTORE PUSH1 0x20 ADD PUSH1 0x0 KECCAK256 SLOAD SWAP1 POP DUP5 DUP7 DUP4 DUP2 MLOAD DUP2 LT PUSH2 0x1557 JUMPI PUSH2 0x1557 PUSH2 0x2015 JUMP JUMPDEST PUSH1 0x20 MUL PUSH1 0x20 ADD ADD MLOAD SUB PUSH2 0x1576 JUMPI PUSH2 0x156F DUP2 PUSH1 0x2 PUSH2 0x211D JUMP JUMPDEST SWAP1 POP PUSH2 0x15B0 JUMP JUMPDEST DUP4 DUP7 DUP4 DUP2 MLOAD DUP2 LT PUSH2 0x1589 JUMPI PUSH2 0x1589 PUSH2 0x2015 JUMP JUMPDEST PUSH1 0x20 MUL PUSH1 0x20 ADD ADD MLOAD SUB PUSH2 0x15B0 JUMPI PUSH1 0x2 PUSH2 0x15A3 DUP3 PUSH1 0x3 PUSH2 0x211D JUMP JUMPDEST PUSH2 0x15AD SWAP2 SWAP1 PUSH2 0x2134 JUMP JUMPDEST SWAP1 POP JUMPDEST PUSH2 0x15BA DUP2 DUP5 PUSH2 0x20B3 JUMP JUMPDEST SWAP3 POP POP DUP1 DUP1 PUSH2 0x15C8 SWAP1 PUSH2 0x2041 JUMP JUMPDEST SWAP2 POP POP PUSH2 0x150A JUMP JUMPDEST POP SWAP4 SWAP3 POP POP POP JUMP JUMPDEST PUSH1 0x9 SLOAD PUSH1 0x1 JUMPDEST DUP2 DUP2 GT PUSH2 0x16D6 JUMPI PUSH1 0x0 NOT PUSH1 0x0 DUP1 JUMPDEST DUP5 DUP2 LT ISZERO PUSH2 0x168D JUMPI PUSH1 0x9 DUP2 DUP2 SLOAD DUP2 LT PUSH2 0x1607 JUMPI PUSH2 0x1607 PUSH2 0x2015 JUMP JUMPDEST SWAP1 PUSH1 0x0 MSTORE PUSH1 0x20 PUSH1 0x0 KECCAK256 SWAP1 PUSH1 0x7 MUL ADD PUSH1 0x5 ADD SLOAD PUSH1 0x0 EQ DUP1 ISZERO PUSH2 0x164B JUMPI POP DUP2 PUSH1 0x9 DUP3 DUP2 SLOAD DUP2 LT PUSH2 0x1637 JUMPI PUSH2 0x1637 PUSH2 0x2015 JUMP JUMPDEST SWAP1 PUSH1 0x0 MSTORE PUSH1 0x20 PUSH1 0x0 KECCAK256 SWAP1 PUSH1 0x7 MUL ADD PUSH1 0x4 ADD SLOAD GT JUMPDEST ISZERO PUSH2 0x167B JUMPI PUSH1 0x9 DUP2 DUP2 SLOAD DUP2 LT PUSH2 0x1663 JUMPI PUSH2 0x1663 PUSH2 0x2015 JUMP JUMPDEST SWAP1 PUSH1 0x0 MSTORE PUSH1 0x20 PUSH1 0x0 KECCAK256 SWAP1 PUSH1 0x7 MUL ADD PUSH1 0x4 ADD SLOAD SWAP2 POP DUP1 SWAP3 POP JUMPDEST DUP1 PUSH2 0x1685 DUP2 PUSH2 0x2041 JUMP JUMPDEST SWAP2 POP POP PUSH2 0x15EC JUMP JUMPDEST POP PUSH1 0x0 NOT DUP3 EQ PUSH2 0x16C1 JUMPI DUP3 PUSH1 0x9 DUP4 DUP2 SLOAD DUP2 LT PUSH2 0x16AB JUMPI PUSH2 0x16AB PUSH2 0x2015 JUMP JUMPDEST SWAP1 PUSH1 0x0 MSTORE PUSH1 0x20 PUSH1 0x0 KECCAK256 SWAP1 PUSH1 0x7 MUL ADD PUSH1 0x5 ADD DUP2 SWAP1 SSTORE POP JUMPDEST POP POP DUP1 DUP1 PUSH2 0x16CE SWAP1 PUSH2 0x2041 JUMP JUMPDEST SWAP2 POP POP PUSH2 0x15DE JUMP JUMPDEST POP POP JUMP JUMPDEST PUSH1 0xB DUP4 EQ PUSH2 0x1721 JUMPI PUSH1 0x40 MLOAD PUSH3 0x461BCD PUSH1 0xE5 SHL DUP2 MSTORE PUSH1 0x20 PUSH1 0x4 DUP3 ADD MSTORE PUSH1 0x14 PUSH1 0x24 DUP3 ADD MSTORE PUSH20 0x4D757374206861766520313120706C6179657273 PUSH1 0x60 SHL PUSH1 0x44 DUP3 ADD MSTORE PUSH1 0x64 ADD PUSH2 0x432 JUMP JUMPDEST DUP1 DUP3 SUB PUSH2 0x1767 JUMPI PUSH1 0x40 MLOAD PUSH3 0x461BCD PUSH1 0xE5 SHL DUP2 MSTORE PUSH1 0x20 PUSH1 0x4 DUP3 ADD MSTORE PUSH1 0x14 PUSH1 0x24 DUP3 ADD MSTORE PUSH20 0x219030B732102B219036BAB9BA103234B33332B9 PUSH1 0x61 SHL PUSH1 0x44 DUP3 ADD MSTORE PUSH1 0x64 ADD PUSH2 0x432 JUMP JUMPDEST PUSH1 0x0 DUP1 PUSH1 0x0 DUP1 PUSH1 0x0 DUP1 PUSH1 0x0 DUP1 PUSH1 0x0 DUP1 JUMPDEST DUP13 DUP2 LT ISZERO PUSH2 0x199E JUMPI PUSH1 0x0 DUP15 DUP15 DUP4 DUP2 DUP2 LT PUSH2 0x1793 JUMPI PUSH2 0x1793 PUSH2 0x2015 JUMP JUMPDEST PUSH1 0x0 DUP1 SLOAD PUSH1 0x1 SLOAD PUSH1 0x40 MLOAD PUSH4 0xEFF09BD7 PUSH1 0xE0 SHL DUP2 MSTORE PUSH1 0x4 DUP2 ADD SWAP2 SWAP1 SWAP2 MSTORE PUSH1 0x20 SWAP4 SWAP1 SWAP4 MUL SWAP5 SWAP1 SWAP5 ADD CALLDATALOAD PUSH1 0x24 DUP4 ADD DUP2 SWAP1 MSTORE SWAP5 POP SWAP3 PUSH1 0x1 PUSH1 0x1 PUSH1 0xA0 SHL SUB AND SWAP2 POP PUSH4 0xEFF09BD7 SWAP1 PUSH1 0x44 ADD PUSH1 0x0 PUSH1 0x40 MLOAD DUP1 DUP4 SUB DUP2 DUP7 GAS STATICCALL ISZERO DUP1 ISZERO PUSH2 0x17F5 JUMPI RETURNDATASIZE PUSH1 0x0 DUP1 RETURNDATACOPY RETURNDATASIZE PUSH1 0x0 REVERT JUMPDEST POP POP POP POP PUSH1 0x40 MLOAD RETURNDATASIZE PUSH1 0x0 DUP3 RETURNDATACOPY PUSH1 0x1F RETURNDATASIZE SWAP1 DUP2 ADD PUSH1 0x1F NOT AND DUP3 ADD PUSH1 0x40 MSTORE PUSH2 0x181D SWAP2 SWAP1 DUP2 ADD SWAP1 PUSH2 0x224B JUMP JUMPDEST SWAP1 POP PUSH1 0x0 DUP2 PUSH1 0x40 ADD MLOAD PUSH1 0xFF AND GT PUSH2 0x1867 JUMPI PUSH1 0x40 MLOAD PUSH3 0x461BCD PUSH1 0xE5 SHL DUP2 MSTORE PUSH1 0x20 PUSH1 0x4 DUP3 ADD MSTORE PUSH1 0xE PUSH1 0x24 DUP3 ADD MSTORE PUSH14 0x24B73B30B634B210383630BCB2B9 PUSH1 0x91 SHL PUSH1 0x44 DUP3 ADD MSTORE PUSH1 0x64 ADD PUSH2 0x432 JUMP JUMPDEST DUP14 DUP3 SUB PUSH2 0x1873 JUMPI PUSH1 0x1 SWAP12 POP JUMPDEST DUP13 DUP3 SUB PUSH2 0x187F JUMPI PUSH1 0x1 SWAP11 POP JUMPDEST PUSH1 0x40 DUP2 ADD MLOAD PUSH2 0x1891 SWAP1 PUSH1 0xFF AND DUP12 PUSH2 0x20B3 JUMP JUMPDEST SWAP10 POP PUSH1 0x0 DUP2 PUSH1 0x20 ADD MLOAD PUSH1 0x3 DUP2 GT ISZERO PUSH2 0x18AB JUMPI PUSH2 0x18AB PUSH2 0x1D4C JUMP JUMPDEST SUB PUSH2 0x18C2 JUMPI DUP9 PUSH2 0x18BA DUP2 PUSH2 0x22FB JUMP JUMPDEST SWAP10 POP POP PUSH2 0x194B JUMP JUMPDEST PUSH1 0x1 DUP2 PUSH1 0x20 ADD MLOAD PUSH1 0x3 DUP2 GT ISZERO PUSH2 0x18DA JUMPI PUSH2 0x18DA PUSH2 0x1D4C JUMP JUMPDEST SUB PUSH2 0x18F1 JUMPI DUP8 PUSH2 0x18E9 DUP2 PUSH2 0x22FB JUMP JUMPDEST SWAP9 POP POP PUSH2 0x194B JUMP JUMPDEST PUSH1 0x2 DUP2 PUSH1 0x20 ADD MLOAD PUSH1 0x3 DUP2 GT ISZERO PUSH2 0x1909 JUMPI PUSH2 0x1909 PUSH2 0x1D4C JUMP JUMPDEST SUB PUSH2 0x1920 JUMPI DUP7 PUSH2 0x1918 DUP2 PUSH2 0x22FB JUMP JUMPDEST SWAP8 POP POP PUSH2 0x194B JUMP JUMPDEST PUSH1 0x3 DUP2 PUSH1 0x20 ADD MLOAD PUSH1 0x3 DUP2 GT ISZERO PUSH2 0x1938 JUMPI PUSH2 0x1938 PUSH2 0x1D4C JUMP JUMPDEST SUB PUSH2 0x194B JUMPI DUP6 PUSH2 0x1947 DUP2 PUSH2 0x22FB JUMP JUMPDEST SWAP7 POP POP JUMPDEST DUP1 PUSH1 0x80 ADD MLOAD PUSH1 0xFF AND PUSH1 0x0 SUB PUSH2 0x196C JUMPI DUP5 PUSH2 0x1964 DUP2 PUSH2 0x22FB JUMP JUMPDEST SWAP6 POP POP PUSH2 0x1989 JUMP JUMPDEST DUP1 PUSH1 0x80 ADD MLOAD PUSH1 0xFF AND PUSH1 0x1 SUB PUSH2 0x1989 JUMPI DUP4 PUSH2 0x1985 DUP2 PUSH2 0x22FB JUMP JUMPDEST SWAP5 POP POP JUMPDEST POP POP DUP1 DUP1 PUSH2 0x1996 SWAP1 PUSH2 0x2041 JUMP JUMPDEST SWAP2 POP POP PUSH2 0x1777 JUMP JUMPDEST POP DUP9 DUP1 ISZERO PUSH2 0x19A9 JUMPI POP DUP8 JUMPDEST PUSH2 0x19F5 JUMPI PUSH1 0x40 MLOAD PUSH3 0x461BCD PUSH1 0xE5 SHL DUP2 MSTORE PUSH1 0x20 PUSH1 0x4 DUP3 ADD MSTORE PUSH1 0x18 PUSH1 0x24 DUP3 ADD MSTORE PUSH32 0x4320616E64205643206D75737420626520696E207465616D0000000000000000 PUSH1 0x44 DUP3 ADD MSTORE PUSH1 0x64 ADD PUSH2 0x432 JUMP JUMPDEST PUSH1 0x64 DUP8 GT ISZERO PUSH2 0x1A38 JUMPI PUSH1 0x40 MLOAD PUSH3 0x461BCD PUSH1 0xE5 SHL DUP2 MSTORE PUSH1 0x20 PUSH1 0x4 DUP3 ADD MSTORE PUSH1 0xF PUSH1 0x24 DUP3 ADD MSTORE PUSH15 0x109D5919D95D08195E18D959591959 PUSH1 0x8A SHL PUSH1 0x44 DUP3 ADD MSTORE PUSH1 0x64 ADD PUSH2 0x432 JUMP JUMPDEST PUSH1 0x1 DUP7 PUSH1 0xFF AND LT ISZERO PUSH2 0x1A81 JUMPI PUSH1 0x40 MLOAD PUSH3 0x461BCD PUSH1 0xE5 SHL DUP2 MSTORE PUSH1 0x20 PUSH1 0x4 DUP3 ADD MSTORE PUSH1 0x12 PUSH1 0x24 DUP3 ADD MSTORE PUSH18 0x4E656564206174206C65617374203120574B PUSH1 0x70 SHL PUSH1 0x44 DUP3 ADD MSTORE PUSH1 0x64 ADD PUSH2 0x432 JUMP JUMPDEST PUSH1 0x1 DUP6 PUSH1 0xFF AND LT ISZERO DUP1 ISZERO PUSH2 0x1A99 JUMPI POP PUSH1 0x8 DUP6 PUSH1 0xFF AND GT ISZERO JUMPDEST PUSH2 0x1AD4 JUMPI PUSH1 0x40 MLOAD PUSH3 0x461BCD PUSH1 0xE5 SHL DUP2 MSTORE PUSH1 0x20 PUSH1 0x4 DUP3 ADD MSTORE PUSH1 0xC PUSH1 0x24 DUP3 ADD MSTORE PUSH12 0x13995959080C4B4E08109055 PUSH1 0xA2 SHL PUSH1 0x44 DUP3 ADD MSTORE PUSH1 0x64 ADD PUSH2 0x432 JUMP JUMPDEST PUSH1 0x1 DUP5 PUSH1 0xFF AND LT ISZERO DUP1 ISZERO PUSH2 0x1AEC JUMPI POP PUSH1 0x8 DUP5 PUSH1 0xFF AND GT ISZERO JUMPDEST PUSH2 0x1B26 JUMPI PUSH1 0x40 MLOAD PUSH3 0x461BCD PUSH1 0xE5 SHL DUP2 MSTORE PUSH1 0x20 PUSH1 0x4 DUP3 ADD MSTORE PUSH1 0xB PUSH1 0x24 DUP3 ADD MSTORE PUSH11 0x2732B2B21018969C1020A9 PUSH1 0xA9 SHL PUSH1 0x44 DUP3 ADD MSTORE PUSH1 0x64 ADD PUSH2 0x432 JUMP JUMPDEST PUSH1 0x1 DUP4 PUSH1 0xFF AND LT ISZERO DUP1 ISZERO PUSH2 0x1B3E JUMPI POP PUSH1 0x8 DUP4 PUSH1 0xFF AND GT ISZERO JUMPDEST PUSH2 0x1B7A JUMPI PUSH1 0x40 MLOAD PUSH3 0x461BCD PUSH1 0xE5 SHL DUP2 MSTORE PUSH1 0x20 PUSH1 0x4 DUP3 ADD MSTORE PUSH1 0xD PUSH1 0x24 DUP3 ADD MSTORE PUSH13 0x13995959080C4B4E081093D5D3 PUSH1 0x9A SHL PUSH1 0x44 DUP3 ADD MSTORE PUSH1 0x64 ADD PUSH2 0x432 JUMP JUMPDEST PUSH1 0xA DUP3 PUSH1 0xFF AND GT ISZERO DUP1 ISZERO PUSH2 0x1B92 JUMPI POP PUSH1 0xA DUP2 PUSH1 0xFF AND GT ISZERO JUMPDEST PUSH2 0x1BD5 JUMPI PUSH1 0x40 MLOAD PUSH3 0x461BCD PUSH1 0xE5 SHL DUP2 MSTORE PUSH1 0x20 PUSH1 0x4 DUP3 ADD MSTORE PUSH1 0x14 PUSH1 0x24 DUP3 ADD MSTORE PUSH20 0x4D61782031302066726F6D206F6E65207465616D PUSH1 0x60 SHL PUSH1 0x44 DUP3 ADD MSTORE PUSH1 0x64 ADD PUSH2 0x432 JUMP JUMPDEST POP POP POP POP POP POP POP POP POP POP POP POP POP JUMP JUMPDEST PUSH1 0x0 PUSH1 0x3 DUP3 GT ISZERO PUSH2 0x1BF7 JUMPI POP PUSH1 0x0 SWAP2 SWAP1 POP JUMP JUMPDEST PUSH1 0x8 SLOAD ISZERO PUSH2 0x1C99 JUMPI DUP2 PUSH1 0x1 SUB PUSH2 0x1C25 JUMPI PUSH1 0x7 SLOAD PUSH1 0x8 SLOAD GT ISZERO PUSH2 0x1C1B JUMPI PUSH1 0x7 SLOAD PUSH2 0x1C1F JUMP JUMPDEST PUSH1 0x8 SLOAD JUMPDEST SWAP3 SWAP2 POP POP JUMP JUMPDEST PUSH1 0x0 PUSH1 0x7 SLOAD PUSH1 0x8 SLOAD GT ISZERO PUSH2 0x1C3B JUMPI PUSH1 0x7 SLOAD PUSH2 0x1C3F JUMP JUMPDEST PUSH1 0x8 SLOAD JUMPDEST SWAP1 POP PUSH1 0x0 DUP2 PUSH1 0x7 SLOAD PUSH2 0x1C51 SWAP2 SWAP1 PUSH2 0x20C6 JUMP JUMPDEST SWAP1 POP DUP4 PUSH1 0x2 SUB PUSH2 0x1C7A JUMPI PUSH1 0x64 PUSH2 0x1C68 DUP3 PUSH1 0x3C PUSH2 0x211D JUMP JUMPDEST PUSH2 0x1C72 SWAP2 SWAP1 PUSH2 0x2134 JUMP JUMPDEST SWAP5 SWAP4 POP POP POP POP JUMP JUMPDEST DUP4 PUSH1 0x3 SUB PUSH2 0x1C8F JUMPI PUSH1 0x64 PUSH2 0x1C68 DUP3 PUSH1 0x28 PUSH2 0x211D JUMP JUMPDEST POP PUSH1 0x0 SWAP4 SWAP3 POP POP POP JUMP JUMPDEST PUSH1 0x6 SLOAD DUP3 GT ISZERO PUSH2 0x1CAB JUMPI POP PUSH1 0x0 SWAP2 SWAP1 POP JUMP JUMPDEST PUSH1 0x64 PUSH1 0x6 PUSH2 0x1CBA PUSH1 0x1 DUP6 PUSH2 0x20C6 JUMP JUMPDEST DUP2 SLOAD DUP2 LT PUSH2 0x1CCA JUMPI PUSH2 0x1CCA PUSH2 0x2015 JUMP JUMPDEST SWAP1 PUSH1 0x0 MSTORE PUSH1 0x20 PUSH1 0x0 KECCAK256 ADD SLOAD PUSH1 0x7 SLOAD PUSH2 0x1CE2 SWAP2 SWAP1 PUSH2 0x211D JUMP JUMPDEST PUSH2 0x1C1F SWAP2 SWAP1 PUSH2 0x2134 JUMP JUMPDEST DUP3 DUP1 SLOAD DUP3 DUP3 SSTORE SWAP1 PUSH1 0x0 MSTORE PUSH1 0x20 PUSH1 0x0 KECCAK256 SWAP1 DUP2 ADD SWAP3 DUP3 ISZERO PUSH2 0x1D27 JUMPI SWAP2 PUSH1 0x20 MUL DUP3 ADD JUMPDEST DUP3 DUP2 GT ISZERO PUSH2 0x1D27 JUMPI DUP3 MLOAD DUP3 SSTORE SWAP2 PUSH1 0x20 ADD SWAP2 SWAP1 PUSH1 0x1 ADD SWAP1 PUSH2 0x1D0C JUMP JUMPDEST POP PUSH2 0x1D33 SWAP3 SWAP2 POP PUSH2 0x1D37 JUMP JUMPDEST POP SWAP1 JUMP JUMPDEST JUMPDEST DUP1 DUP3 GT ISZERO PUSH2 0x1D33 JUMPI PUSH1 0x0 DUP2 SSTORE PUSH1 0x1 ADD PUSH2 0x1D38 JUMP JUMPDEST PUSH4 0x4E487B71 PUSH1 0xE0 SHL PUSH1 0x0 MSTORE PUSH1 0x21 PUSH1 0x4 MSTORE PUSH1 0x24 PUSH1 0x0 REVERT JUMPDEST PUSH1 0x20 DUP2 ADD PUSH1 0x4 DUP4 LT PUSH2 0x1D84 JUMPI PUSH4 0x4E487B71 PUSH1 0xE0 SHL PUSH1 0x0 MSTORE PUSH1 0x21 PUSH1 0x4 MSTORE PUSH1 0x24 PUSH1 0x0 REVERT JUMPDEST SWAP2 SWAP1 MSTORE SWAP1 JUMP JUMPDEST PUSH1 0x0 DUP1 DUP4 PUSH1 0x1F DUP5 ADD SLT PUSH2 0x1D9C JUMPI PUSH1 0x0 DUP1 REVERT JUMPDEST POP DUP2 CALLDATALOAD PUSH8 0xFFFFFFFFFFFFFFFF DUP2 GT ISZERO PUSH2 0x1DB4 JUMPI PUSH1 0x0 DUP1 REVERT JUMPDEST PUSH1 0x20 DUP4 ADD SWAP2 POP DUP4 PUSH1 0x20 DUP3 PUSH1 0x5 SHL DUP6 ADD ADD GT ISZERO PUSH2 0x1DCF JUMPI PUSH1 0x0 DUP1 REVERT JUMPDEST SWAP3 POP SWAP3 SWAP1 POP JUMP JUMPDEST PUSH1 0x0 DUP1 PUSH1 0x0 DUP1 PUSH1 0x40 DUP6 DUP8 SUB SLT ISZERO PUSH2 0x1DEC JUMPI PUSH1 0x0 DUP1 REVERT JUMPDEST DUP5 CALLDATALOAD PUSH8 0xFFFFFFFFFFFFFFFF DUP1 DUP3 GT ISZERO PUSH2 0x1E04 JUMPI PUSH1 0x0 DUP1 REVERT JUMPDEST PUSH2 0x1E10 DUP9 DUP4 DUP10 ADD PUSH2 0x1D8A JUMP JUMPDEST SWAP1 SWAP7 POP SWAP5 POP PUSH1 0x20 DUP8 ADD CALLDATALOAD SWAP2 POP DUP1 DUP3 GT ISZERO PUSH2 0x1E29 JUMPI PUSH1 0x0 DUP1 REVERT JUMPDEST POP PUSH2 0x1E36 DUP8 DUP3 DUP9 ADD PUSH2 0x1D8A JUMP JUMPDEST SWAP6 SWAP9 SWAP5 SWAP8 POP SWAP6 POP POP POP POP JUMP JUMPDEST PUSH1 0x0 PUSH1 0x20 DUP3 DUP5 SUB SLT ISZERO PUSH2 0x1E54 JUMPI PUSH1 0x0 DUP1 REVERT JUMPDEST POP CALLDATALOAD SWAP2 SWAP1 POP JUMP JUMPDEST PUSH1 0x0 DUP1 PUSH1 0x0 DUP1 PUSH1 0x60 DUP6 DUP8 SUB SLT ISZERO PUSH2 0x1E71 JUMPI PUSH1 0x0 DUP1 REVERT JUMPDEST DUP5 CALLDATALOAD PUSH8 0xFFFFFFFFFFFFFFFF DUP2 GT ISZERO PUSH2 0x1E88 JUMPI PUSH1 0x0 DUP1 REVERT JUMPDEST PUSH2 0x1E94 DUP8 DUP3 DUP9 ADD PUSH2 0x1D8A JUMP JUMPDEST SWAP1 SWAP9 SWAP1 SWAP8 POP PUSH1 0x20 DUP8 ADD CALLDATALOAD SWAP7 PUSH1 0x40 ADD CALLDATALOAD SWAP6 POP SWAP4 POP POP POP POP JUMP JUMPDEST PUSH1 0x0 DUP1 PUSH1 0x40 DUP4 DUP6 SUB SLT ISZERO PUSH2 0x1EBF JUMPI PUSH1 0x0 DUP1 REVERT JUMPDEST DUP3 CALLDATALOAD PUSH1 0x1 PUSH1 0x1 PUSH1 0xA0 SHL SUB DUP2 AND DUP2 EQ PUSH2 0x1ED6 JUMPI PUSH1 0x0 DUP1 REVERT JUMPDEST SWAP5 PUSH1 0x20 SWAP4 SWAP1 SWAP4 ADD CALLDATALOAD SWAP4 POP POP POP JUMP JUMPDEST PUSH1 0x0 DUP2 MLOAD DUP1 DUP5 MSTORE PUSH1 0x20 DUP1 DUP6 ADD SWAP5 POP DUP1 DUP5 ADD PUSH1 0x0 JUMPDEST DUP4 DUP2 LT ISZERO PUSH2 0x1F14 JUMPI DUP2 MLOAD DUP8 MSTORE SWAP6 DUP3 ADD SWAP6 SWAP1 DUP3 ADD SWAP1 PUSH1 0x1 ADD PUSH2 0x1EF8 JUMP JUMPDEST POP SWAP5 SWAP6 SWAP5 POP POP POP POP POP JUMP JUMPDEST PUSH1 0x80 DUP1 DUP3 MSTORE DUP6 MLOAD SWAP1 DUP3 ADD DUP2 SWAP1 MSTORE PUSH1 0x0 SWAP1 PUSH1 0x20 SWAP1 PUSH1 0xA0 DUP5 ADD SWAP1 DUP3 DUP10 ADD DUP5 JUMPDEST DUP3 DUP2 LT ISZERO PUSH2 0x1F61 JUMPI DUP2 MLOAD PUSH1 0x1 PUSH1 0x1 PUSH1 0xA0 SHL SUB AND DUP5 MSTORE SWAP3 DUP5 ADD SWAP3 SWAP1 DUP5 ADD SWAP1 PUSH1 0x1 ADD PUSH2 0x1F3C JUMP JUMPDEST POP POP POP DUP4 DUP2 SUB DUP3 DUP6 ADD MSTORE PUSH2 0x1F75 DUP2 DUP9 PUSH2 0x1EE4 JUMP JUMPDEST SWAP2 POP POP DUP3 DUP2 SUB PUSH1 0x40 DUP5 ADD MSTORE PUSH2 0x1F8A DUP2 DUP7 PUSH2 0x1EE4 JUMP JUMPDEST SWAP1 POP DUP3 DUP2 SUB PUSH1 0x60 DUP5 ADD MSTORE PUSH2 0x1F9E DUP2 DUP6 PUSH2 0x1EE4 JUMP JUMPDEST SWAP8 SWAP7 POP POP POP POP POP POP POP JUMP JUMPDEST PUSH1 0x1 PUSH1 0x1 PUSH1 0xA0 SHL SUB DUP8 AND DUP2 MSTORE PUSH1 0xC0 PUSH1 0x20 DUP3 ADD DUP2 SWAP1 MSTORE PUSH1 0x0 SWAP1 PUSH2 0x1FCD SWAP1 DUP4 ADD DUP9 PUSH2 0x1EE4 JUMP JUMPDEST SWAP1 POP DUP6 PUSH1 0x40 DUP4 ADD MSTORE DUP5 PUSH1 0x60 DUP4 ADD MSTORE DUP4 PUSH1 0x80 DUP4 ADD MSTORE DUP3 PUSH1 0xA0 DUP4 ADD MSTORE SWAP8 SWAP7 POP POP POP POP POP POP POP JUMP JUMPDEST PUSH1 0x20 DUP1 DUP3 MSTORE PUSH1 0x9 SWAP1 DUP3 ADD MSTORE PUSH9 0x2737BA1030B236B4B7 PUSH1 0xB9 SHL PUSH1 0x40 DUP3 ADD MSTORE PUSH1 0x60 ADD SWAP1 JUMP JUMPDEST PUSH4 0x4E487B71 PUSH1 0xE0 SHL PUSH1 0x0 MSTORE PUSH1 0x32 PUSH1 0x4 MSTORE PUSH1 0x24 PUSH1 0x0 REVERT JUMPDEST PUSH4 0x4E487B71 PUSH1 0xE0 SHL PUSH1 0x0 MSTORE PUSH1 0x11 PUSH1 0x4 MSTORE PUSH1 0x24 PUSH1 0x0 REVERT JUMPDEST PUSH1 0x0 PUSH1 0x1 DUP3 ADD PUSH2 0x2053 JUMPI PUSH2 0x2053 PUSH2 0x202B JUMP JUMPDEST POP PUSH1 0x1 ADD SWAP1 JUMP JUMPDEST DUP2 DUP4 MSTORE PUSH1 0x0 PUSH1 0x1 PUSH1 0x1 PUSH1 0xFB SHL SUB DUP4 GT ISZERO PUSH2 0x2073 JUMPI PUSH1 0x0 DUP1 REVERT JUMPDEST DUP3 PUSH1 0x5 SHL DUP1 DUP4 PUSH1 0x20 DUP8 ADD CALLDATACOPY SWAP4 SWAP1 SWAP4 ADD PUSH1 0x20 ADD SWAP4 SWAP3 POP POP POP JUMP JUMPDEST PUSH1 0x40 DUP2 MSTORE PUSH1 0x0 PUSH2 0x20A0 PUSH1 0x40 DUP4 ADD DUP7 DUP9 PUSH2 0x205A JUMP JUMPDEST DUP3 DUP2 SUB PUSH1 0x20 DUP5 ADD MSTORE PUSH2 0x1F9E DUP2 DUP6 DUP8 PUSH2 0x205A JUMP JUMPDEST DUP1 DUP3 ADD DUP1 DUP3 GT ISZERO PUSH2 0x1C1F JUMPI PUSH2 0x1C1F PUSH2 0x202B JUMP JUMPDEST DUP2 DUP2 SUB DUP2 DUP2 GT ISZERO PUSH2 0x1C1F JUMPI PUSH2 0x1C1F PUSH2 0x202B JUMP JUMPDEST DUP6 DUP2 MSTORE PUSH1 0x80 PUSH1 0x20 DUP3 ADD MSTORE PUSH1 0x0 PUSH2 0x20F3 PUSH1 0x80 DUP4 ADD DUP7 DUP9 PUSH2 0x205A JUMP JUMPDEST PUSH1 0x40 DUP4 ADD SWAP5 SWAP1 SWAP5 MSTORE POP PUSH1 0x60 ADD MSTORE SWAP4 SWAP3 POP POP POP JUMP JUMPDEST PUSH4 0x4E487B71 PUSH1 0xE0 SHL PUSH1 0x0 MSTORE PUSH1 0x41 PUSH1 0x4 MSTORE PUSH1 0x24 PUSH1 0x0 REVERT JUMPDEST DUP1 DUP3 MUL DUP2 ISZERO DUP3 DUP3 DIV DUP5 EQ OR PUSH2 0x1C1F JUMPI PUSH2 0x1C1F PUSH2 0x202B JUMP JUMPDEST PUSH1 0x0 DUP3 PUSH2 0x2151 JUMPI PUSH4 0x4E487B71 PUSH1 0xE0 SHL PUSH1 0x0 MSTORE PUSH1 0x12 PUSH1 0x4 MSTORE PUSH1 0x24 PUSH1 0x0 REVERT JUMPDEST POP DIV SWAP1 JUMP JUMPDEST PUSH1 0x40 MLOAD PUSH1 0xA0 DUP2 ADD PUSH8 0xFFFFFFFFFFFFFFFF DUP2 GT DUP3 DUP3 LT OR ISZERO PUSH2 0x2179 JUMPI PUSH2 0x2179 PUSH2 0x2107 JUMP JUMPDEST PUSH1 0x40 MSTORE SWAP1 JUMP JUMPDEST PUSH1 0x40 MLOAD PUSH1 0x1F DUP3 ADD PUSH1 0x1F NOT AND DUP2 ADD PUSH8 0xFFFFFFFFFFFFFFFF DUP2 GT DUP3 DUP3 LT OR ISZERO PUSH2 0x21A8 JUMPI PUSH2 0x21A8 PUSH2 0x2107 JUMP JUMPDEST PUSH1 0x40 MSTORE SWAP2 SWAP1 POP JUMP JUMPDEST DUP1 MLOAD PUSH1 0xFF DUP2 AND DUP2 EQ PUSH2 0x21C1 JUMPI PUSH1 0x0 DUP1 REVERT JUMPDEST SWAP2 SWAP1 POP JUMP JUMPDEST PUSH1 0x0 DUP3 PUSH1 0x1F DUP4 ADD SLT PUSH2 0x21D7 JUMPI PUSH1 0x0 DUP1 REVERT JUMPDEST DUP2 MLOAD PUSH8 0xFFFFFFFFFFFFFFFF DUP2 GT ISZERO PUSH2 0x21F1 JUMPI PUSH2 0x21F1 PUSH2 0x2107 JUMP JUMPDEST PUSH1 0x20 PUSH2 0x2205 PUSH1 0x1F DUP4 ADD PUSH1 0x1F NOT AND DUP3 ADD PUSH2 0x217F JUMP JUMPDEST DUP3 DUP2 MSTORE DUP6 DUP3 DUP5 DUP8 ADD ADD GT ISZERO PUSH2 0x2219 JUMPI PUSH1 0x0 DUP1 REVERT JUMPDEST PUSH1 0x0 JUMPDEST DUP4 DUP2 LT ISZERO PUSH2 0x2237 JUMPI DUP6 DUP2 ADD DUP4 ADD MLOAD DUP3 DUP3 ADD DUP5 ADD MSTORE DUP3 ADD PUSH2 0x221C JUMP JUMPDEST POP PUSH1 0x0 SWAP3 DUP2 ADD SWAP1 SWAP2 ADD SWAP2 SWAP1 SWAP2 MSTORE SWAP4 SWAP3 POP POP POP JUMP JUMPDEST PUSH1 0x0 PUSH1 0x20 DUP3 DUP5 SUB SLT ISZERO PUSH2 0x225D JUMPI PUSH1 0x0 DUP1 REVERT JUMPDEST DUP2 MLOAD PUSH8 0xFFFFFFFFFFFFFFFF DUP1 DUP3 GT ISZERO PUSH2 0x2275 JUMPI PUSH1 0x0 DUP1 REVERT JUMPDEST SWAP1 DUP4 ADD SWAP1 PUSH1 0xA0 DUP3 DUP7 SUB SLT ISZERO PUSH2 0x2289 JUMPI PUSH1 0x0 DUP1 REVERT JUMPDEST PUSH2 0x2291 PUSH2 0x2156 JUMP JUMPDEST DUP3 MLOAD DUP2 MSTORE PUSH1 0x20 DUP4 ADD MLOAD PUSH1 0x4 DUP2 LT PUSH2 0x22A7 JUMPI PUSH1 0x0 DUP1 REVERT JUMPDEST PUSH1 0x20 DUP3 ADD MSTORE PUSH2 0x22B8 PUSH1 0x40 DUP5 ADD PUSH2 0x21B0 JUMP JUMPDEST PUSH1 0x40 DUP3 ADD MSTORE PUSH1 0x60 DUP4 ADD MLOAD DUP3 DUP2 GT ISZERO PUSH2 0x22CF JUMPI PUSH1 0x0 DUP1 REVERT JUMPDEST PUSH2 0x22DB DUP8 DUP3 DUP7 ADD PUSH2 0x21C6 JUMP JUMPDEST PUSH1 0x60 DUP4 ADD MSTORE POP PUSH2 0x22ED PUSH1 0x80 DUP5 ADD PUSH2 0x21B0 JUMP JUMPDEST PUSH1 0x80 DUP3 ADD MSTORE SWAP6 SWAP5 POP POP POP POP POP JUMP JUMPDEST PUSH1 0x0 PUSH1 0xFF DUP3 AND PUSH1 0xFF DUP2 SUB PUSH2 0x2311 JUMPI PUSH2 0x2311 PUSH2 0x202B JUMP JUMPDEST PUSH1 0x1 ADD SWAP3 SWAP2 POP POP JUMP INVALID LOG2 PUSH5 0x6970667358 0x22 SLT KECCAK256 0x25 0x4D 0x4C MSTORE8 0xD 0xCD PUSH22 0x50526133020762CB02C9F335EEEE53D99C0ACE1A359A 0xDE 0x2F PUSH12 0x64736F6C63430008140033A2 PUSH5 0x6970667358 0x22 SLT KECCAK256 RETURN 0xE4 0xCF 0xEB MULMOD 0xA8 PUSH5 0xAF1D492F01 PUSH22 0xE78D72DB0FEA61F76C3142FB2517B15FA4EBA64736F PUSH13 0x63430008140033000000000000 "},"methodIdentifiers":{"admin()":"f851a440","contests(uint256)":"9d7ed738","createContest(uint256,uint256,uint256,uint256,uint256[],uint256)":"af5f8b4c","getContestCount()":"64c3c166","getContests()":"bfaba76a","playerRegistry()":"4c74ef9c"}}}}}