{
  "_format": "hh-sol-artifact-1",
  "contractName": "ContestFactory",
  "sourceName": "contracts/ContestFactory.sol",
  "abi": [
    {
      "inputs": [
        {
          "internalType": "address",
          "name": "_playerRegistry",
          "type": "address"
        }
      ],
      "stateMutability": "nonpayable",
      "type": "constructor"
    },
    {
      "anonymous": false,
      "inputs": [
        {
          "indexed": true,
          "internalType": "address",
          "name": "contest",
          "type": "address"
        },
        {
          "indexed": false,
          "internalType": "uint256",
          "name": "matchId",
          "type": "uint256"
        },
        {
          "indexed": false,
          "internalType": "uint256",
          "name": "entryFee",
          "type": "uint256"
        },
        {
          "indexed": false,
          "internalType": "uint256",
          "name": "deadline",
          "type": "uint256"
        }
      ],
      "name": "ContestCreated",
      "type": "event"
    },
    {
      "inputs": [],
      "name": "admin",
      "outputs": [
        {
          "internalType": "address",
          "name": "",
          "type": "address"
        }
      ],
      "stateMutability": "view",
      "type": "function"
    },
    {
      "inputs": [
        {
          "internalType": "uint256",
          "name": "",
          "type": "uint256"
        }
      ],
      "name": "contests",
      "outputs": [
        {
          "internalType": "address",
          "name": "",
          "type": "address"
        }
      ],
      "stateMutability": "view",
      "type": "function"
    },
    {
      "inputs": [
        {
          "internalType": "uint256",
          "name": "matchId",
          "type": "uint256"
        },
        {
          "internalType": "uint256",
          "name": "entryFee",
          "type": "uint256"
        },
        {
          "internalType": "uint256",
          "name": "deadline",
          "type": "uint256"
        },
        {
          "internalType": "uint256",
          "name": "maxEntries",
          "type": "uint256"
        },
        {
          "internalType": "uint256[]",
          "name": "prizePercentages",
          "type": "uint256[]"
        },
        {
          "internalType": "uint256",
          "name": "firstPrizeAmount",
          "type": "uint256"
        }
      ],
      "name": "createContest",
      "outputs": [
        {
          "internalType": "address",
          "name": "",
          "type": "address"
        }
      ],
      "stateMutability": "nonpayable",
      "type": "function"
    },
    {
      "inputs": [],
      "name": "getContestCount",
      "outputs": [
        {
          "internalType": "uint256",
          "name": "",
          "type": "uint256"
        }
      ],
      "stateMutability": "view",
      "type": "function"
    },
    {
      "inputs": [],
      "name": "getContests",
      "outputs": [
        {
          "internalType": "address[]",
          "name": "",
          "type": "address[]"
        }
      ],
      "stateMutability": "view",
      "type": "function"
    },
    {
      "inputs": [],
      "name": "playerRegistry",
      "outputs": [
        {
          "internalType": "address",
          "name": "",
          "type": "address"
        }
      ],
      "stateMutability": "view",
      "type": "function"
    }
  ],
  "bytecode": "0x608060405234801561001057600080fd5b50604051612c5c380380612c5c83398101604081905261002f91610062565b60008054336001600160a01b031991821617909155600180549091166001600160a01b0392909216919091179055610092565b60006020828403121561007457600080fd5b81516001600160a01b038116811461008b57600080fd5b9392505050565b612bbb806100a16000396000f3fe608060405234801561001057600080fd5b50600436106100625760003560e01c80634c74ef9c1461006757806364c3c166146100975780639d7ed738146100a8578063af5f8b4c146100bb578063bfaba76a146100ce578063f851a440146100e3575b600080fd5b60015461007a906001600160a01b031681565b6040516001600160a01b0390911681526020015b60405180910390f35b60025460405190815260200161008e565b61007a6100b63660046102d9565b6100f6565b61007a6100c93660046102f2565b610120565b6100d661026a565b60405161008e9190610398565b60005461007a906001600160a01b031681565b6002818154811061010657600080fd5b6000918252602090912001546001600160a01b0316905081565b600080546001600160a01b0316331461016b5760405162461bcd60e51b81526020600482015260096024820152682737ba1030b236b4b760b91b604482015260640160405180910390fd5b600080546001546040516001600160a01b0392831692909116908b908b908b908b908b908b908b9061019c906102cc565b6101ae999897969594939291906103e5565b604051809103906000f0801580156101ca573d6000803e3d6000fd5b50600280546001810182556000919091527f405787fa12a823e0f2b7631cc41b3ba8828b3321ca811111fa75cd3aa3bb5ace0180546001600160a01b0319166001600160a01b038316908117909155604080518c8152602081018c90529081018a9052919250907f0e88e8c4fee89d9778b8507f3cce3a1f8d3ee7c1707b40dd29178f53aec760b99060600160405180910390a298975050505050505050565b606060028054806020026020016040519081016040528092919081815260200182805480156102c257602002820191906000526020600020905b81546001600160a01b031681526001909101906020018083116102a4575b5050505050905090565b6127248061046283390190565b6000602082840312156102eb57600080fd5b5035919050565b600080600080600080600060c0888a03121561030d57600080fd5b87359650602088013595506040880135945060608801359350608088013567ffffffffffffffff8082111561034157600080fd5b818a0191508a601f83011261035557600080fd5b81358181111561036457600080fd5b8b60208260051b850101111561037957600080fd5b60208301955080945050505060a0880135905092959891949750929550565b6020808252825182820181905260009190848201906040850190845b818110156103d95783516001600160a01b0316835292840192918401916001016103b4565b50909695505050505050565b6001600160a01b038a811682528916602082015260408101889052606081018790526080810186905260a0810185905261010060c08201819052810183905260006101206001600160fb1b0385111561043d57600080fd5b8460051b80878386013760e08401949094529190920101999850505050505050505056fe60806040523480156200001157600080fd5b50604051620027243803806200272483398101604081905262000034916200023c565b600580546001600160a01b03808b166001600160a01b03199283161790925560008054928a1692909116919091179055600186905560028590556003849055600483905560088190558151620000d15760405162461bcd60e51b815260206004820152601460248201527f4e656564207072697a6520627265616b646f776e00000000000000000000000060448201526064015b60405180910390fd5b6000805b83518110156200012057838181518110620000f457620000f462000360565b6020026020010151826200010991906200038c565b9150806200011781620003a8565b915050620000d5565b50806064146200017d5760405162461bcd60e51b815260206004820152602160248201527f5072697a652070657263656e7461676573206d7573742073756d20746f2031306044820152600360fc1b6064820152608401620000c8565b825162000192906006906020860190620001a2565b50505050505050505050620003c4565b828054828255906000526020600020908101928215620001e0579160200282015b82811115620001e0578251825591602001919060010190620001c3565b50620001ee929150620001f2565b5090565b5b80821115620001ee5760008155600101620001f3565b80516001600160a01b03811681146200022157600080fd5b919050565b634e487b7160e01b600052604160045260246000fd5b600080600080600080600080610100898b0312156200025a57600080fd5b620002658962000209565b9750602062000276818b0162000209565b60408b015160608c015160808d015160a08e015160c08f0151949c50929a50909850965094506001600160401b0380821115620002b257600080fd5b818c0191508c601f830112620002c757600080fd5b815181811115620002dc57620002dc62000226565b8060051b604051601f19603f8301168101818110858211171562000304576200030462000226565b60405291825284820192508381018501918f8311156200032357600080fd5b938501935b82851015620003435784518452938501939285019262000328565b80975050505050505060e089015190509295985092959890939650565b634e487b7160e01b600052603260045260246000fd5b634e487b7160e01b600052601160045260246000fd5b80820180821115620003a257620003a262000376565b92915050565b600060018201620003bd57620003bd62000376565b5060010190565b61235080620003d46000396000f3fe60806040526004361061012e5760003560e01c8063719ce73e116100ab578063abbbd0861161006f578063abbbd08614610312578063b30906d414610344578063d70981541461039d578063f23f3ba5146103bd578063f851a440146103d3578063f8e737ef146103f357600080fd5b8063719ce73e1461029c57806375f25006146102b25780637a360e65146102c757806399892e47146102dc578063a448bd23146102f257600080fd5b80634c74ef9c116100f25780634c74ef9c146101df5780634f53b43714610217578063682d3c40146102445780636b200c9f146102575780636d763a6e1461027757600080fd5b8063072ea61c1461013a578063200d2ed21461016357806329dcb0cf1461019157806337929920146101a7578063475bd71a146101c957600080fd5b3661013557005b600080fd5b34801561014657600080fd5b5061015060025481565b6040519081526020015b60405180910390f35b34801561016f57600080fd5b5060055461018490600160a01b900460ff1681565b60405161015a9190611d62565b34801561019d57600080fd5b5061015060035481565b3480156101b357600080fd5b506101c76101c2366004611dd6565b610408565b005b3480156101d557600080fd5b5061015060085481565b3480156101eb57600080fd5b506000546101ff906001600160a01b031681565b6040516001600160a01b03909116815260200161015a565b34801561022357600080fd5b50610150610232366004611e42565b600b6020526000908152604090205481565b6101c7610252366004611e5b565b610651565b34801561026357600080fd5b50610150610272366004611eac565b6109cf565b34801561028357600080fd5b5061028c610a00565b60405161015a9493929190611f1f565b3480156102a857600080fd5b5061015060075481565b3480156102be57600080fd5b506101c7610f2b565b3480156102d357600080fd5b50600954610150565b3480156102e857600080fd5b5061015060015481565b3480156102fe57600080fd5b5061015061030d366004611e42565b611018565b34801561031e57600080fd5b5061033261032d366004611e42565b611039565b60405161015a96959493929190611fa9565b34801561035057600080fd5b5061036461035f366004611e42565b611144565b604080516001600160a01b03909716875260208701959095529385019290925260608401526080830152151560a082015260c00161015a565b3480156103a957600080fd5b506101c76103b8366004611e42565b611197565b3480156103c957600080fd5b5061015060045481565b3480156103df57600080fd5b506005546101ff906001600160a01b031681565b3480156103ff57600080fd5b506101c7611462565b6005546001600160a01b0316331461043b5760405162461bcd60e51b815260040161043290611ff2565b60405180910390fd5b6001600554600160a01b900460ff16600381111561045b5761045b611d4c565b1461049a5760405162461bcd60e51b815260206004820152600f60248201526e135d5cdd081b1bd8dac8199a5c9cdd608a1b6044820152606401610432565b8281146104db5760405162461bcd60e51b815260206004820152600f60248201526e098cadccee8d040dad2e6dac2e8c6d608b1b6044820152606401610432565b60005b83811015610541578282828181106104f8576104f8612015565b90506020020135600b600087878581811061051557610515612015565b90506020020135815260200190815260200160002081905550808061053990612041565b9150506104de565b5060005b6009548110156105f15760006009828154811061056457610564612015565b906000526020600020906007020190506105d9816001018054806020026020016040519081016040528092919081815260200182805480156105c557602002820191906000526020600020905b8154815260200190600101908083116105b1575b505050505082600201548360030154611506565b600490910155806105e981612041565b915050610545565b506105fa6115d8565b6005805460ff60a01b1916600160a11b1790556040517f3adb95f13423ba99020599c9fd45e0b650f2b9599d287c615e53005d5d2afd9c9061064390869086908690869061208c565b60405180910390a150505050565b6000600554600160a01b900460ff16600381111561067157610671611d4c565b146106b15760405162461bcd60e51b815260206004820152601060248201526f21b7b73a32b9ba103737ba1037b832b760811b6044820152606401610432565b60035442106106f45760405162461bcd60e51b815260206004820152600f60248201526e111958591b1a5b99481c185cdcd959608a1b6044820152606401610432565b60025434101561073f5760405162461bcd60e51b8152602060048201526016602482015275496e73756666696369656e7420656e7472792066656560501b6044820152606401610432565b60045415806107515750600454600954105b61078c5760405162461bcd60e51b815260206004820152600c60248201526b10dbdb9d195cdd08199d5b1b60a21b6044820152606401610432565b610798848484846116da565b600980546040805160e0810182523381528151602088810282810182019094528882529394939192828401928a918a918291908501908490808284376000920182905250938552505050602080830188905260408301879052606083018290526080830182905260a090920181905283546001808201865594825290829020835160079092020180546001600160a01b0319166001600160a01b039092169190911781558282015180519394919361085893928501929190910190611cec565b50604082810151600283810191909155606084015160038401556080840151600484015560a0840151600584015560c0909301516006909201805460ff191692151592909217909155336000908152600a60209081529181208054600181018255908252918120909101839055905460078054919290916108da9084906120b3565b909155505060025434111561097f5760025460009033906108fb90346120c6565b604051600081818185875af1925050503d8060008114610937576040519150601f19603f3d011682016040523d82523d6000602084013e61093c565b606091505b505090508061097d5760405162461bcd60e51b815260206004820152600d60248201526c1499599d5b990819985a5b1959609a1b6044820152606401610432565b505b336001600160a01b03167fd1aedf589a9a78af855a6a369098bd9e3b0565c662425f3b2df298ac7b555d9d82878787876040516109c09594939291906120d9565b60405180910390a25050505050565b600a60205281600052604060002081815481106109eb57600080fd5b90600052602060002001600091509150505481565b6009546060908190819081908067ffffffffffffffff811115610a2557610a25612107565b604051908082528060200260200182016040528015610a4e578160200160208202803683370190505b5094508067ffffffffffffffff811115610a6a57610a6a612107565b604051908082528060200260200182016040528015610a93578160200160208202803683370190505b5093508067ffffffffffffffff811115610aaf57610aaf612107565b604051908082528060200260200182016040528015610ad8578160200160208202803683370190505b5092508067ffffffffffffffff811115610af457610af4612107565b604051908082528060200260200182016040528015610b1d578160200160208202803683370190505b50915080600003610b2e5750610f25565b60005b81811015610c535760098181548110610b4c57610b4c612015565b600091825260209091206007909102015486516001600160a01b0390911690879083908110610b7d57610b7d612015565b60200260200101906001600160a01b031690816001600160a01b03168152505060098181548110610bb057610bb0612015565b906000526020600020906007020160040154858281518110610bd457610bd4612015565b60200260200101818152505060098181548110610bf357610bf3612015565b906000526020600020906007020160050154848281518110610c1757610c17612015565b60200260200101818152505080838281518110610c3657610c36612015565b602090810291909101015280610c4b81612041565b915050610b31565b5060005b610c626001836120c6565b811015610f22576000610c768260016120b3565b90505b82811015610f0f57848281518110610c9357610c93612015565b6020026020010151858281518110610cad57610cad612015565b60200260200101511080610d2e5750848281518110610cce57610cce612015565b6020026020010151858281518110610ce857610ce8612015565b6020026020010151148015610d2e5750858281518110610d0a57610d0a612015565b6020026020010151868281518110610d2457610d24612015565b6020026020010151115b15610efd57868181518110610d4557610d45612015565b6020026020010151878381518110610d5f57610d5f612015565b6020026020010151888481518110610d7957610d79612015565b60200260200101898481518110610d9257610d92612015565b6001600160a01b039384166020918202929092010152911690528551869082908110610dc057610dc0612015565b6020026020010151868381518110610dda57610dda612015565b6020026020010151878481518110610df457610df4612015565b60200260200101888481518110610e0d57610e0d612015565b6020026020010182815250828152505050848181518110610e3057610e30612015565b6020026020010151858381518110610e4a57610e4a612015565b6020026020010151868481518110610e6457610e64612015565b60200260200101878481518110610e7d57610e7d612015565b6020026020010182815250828152505050838181518110610ea057610ea0612015565b6020026020010151848381518110610eba57610eba612015565b6020026020010151858481518110610ed457610ed4612015565b60200260200101868481518110610eed57610eed612015565b6020908102919091010191909152525b80610f0781612041565b915050610c79565b5080610f1a81612041565b915050610c57565b50505b90919293565b6005546001600160a01b03163314610f555760405162461bcd60e51b815260040161043290611ff2565b6000600554600160a01b900460ff166003811115610f7557610f75611d4c565b14610fb35760405162461bcd60e51b815260206004820152600e60248201526d105b1c9958591e481b1bd8dad95960921b6044820152606401610432565b600354421015610ffb5760405162461bcd60e51b8152602060048201526013602482015272111958591b1a5b99481b9bdd081c185cdcd959606a1b6044820152606401610432565b600580546001919060ff60a01b1916600160a01b835b0217905550565b6006818154811061102857600080fd5b600091825260209091200154905081565b6000606060008060008060098054905087106110875760405162461bcd60e51b815260206004820152600d60248201526c496e76616c696420656e74727960981b6044820152606401610432565b60006009888154811061109c5761109c612015565b906000526020600020906007020190508060000160009054906101000a90046001600160a01b03168160010182600201548360030154846004015485600501548480548060200260200160405190810160405280929190818152602001828054801561112757602002820191906000526020600020905b815481526020019060010190808311611113575b505050505094509650965096509650965096505091939550919395565b6009818154811061115457600080fd5b60009182526020909120600790910201805460028201546003830154600484015460058501546006909501546001600160a01b0390941695509193909260ff1686565b6003600554600160a01b900460ff1660038111156111b7576111b7611d4c565b146111fc5760405162461bcd60e51b815260206004820152601560248201527410dbdb9d195cdd081b9bdd0818dbdb5c1b195d1959605a1b6044820152606401610432565b600954811061123d5760405162461bcd60e51b815260206004820152600d60248201526c496e76616c696420656e74727960981b6044820152606401610432565b60006009828154811061125257611252612015565b6000918252602090912060079091020180549091506001600160a01b031633146112af5760405162461bcd60e51b815260206004820152600e60248201526d4e6f7420796f757220656e74727960901b6044820152606401610432565b60008160050154116112ed5760405162461bcd60e51b81526020600482015260076024820152664e6f2072616e6b60c81b6044820152606401610432565b600681015460ff16156113345760405162461bcd60e51b815260206004820152600f60248201526e105b1c9958591e4818db185a5b5959608a1b6044820152606401610432565b60006113438260050154611be4565b90506000811161138e5760405162461bcd60e51b81526020600482015260166024820152754e6f207072697a6520666f7220746869732072616e6b60501b6044820152606401610432565b60068201805460ff19166001179055604051600090339083908381818185875af1925050503d80600081146113df576040519150601f19603f3d011682016040523d82523d6000602084013e6113e4565b606091505b50509050806114275760405162461bcd60e51b815260206004820152600f60248201526e151c985b9cd9995c8819985a5b1959608a1b6044820152606401610432565b60405182815233907fd8138f8a3f377c5259ca548e70e4c2de94f129f5a11036a15b69513cba2b426a9060200160405180910390a250505050565b6005546001600160a01b0316331461148c5760405162461bcd60e51b815260040161043290611ff2565b6002600554600160a01b900460ff1660038111156114ac576114ac611d4c565b146114ec5760405162461bcd60e51b815260206004820152601060248201526f135d5cdd081cd8dbdc9948199a5c9cdd60821b6044820152606401610432565b600580546003919060ff60a01b1916600160a01b83611011565b6000805b84518110156115d0576000600b600087848151811061152b5761152b612015565b602002602001015181526020019081526020016000205490508486838151811061155757611557612015565b6020026020010151036115765761156f81600261211d565b90506115b0565b8386838151811061158957611589612015565b6020026020010151036115b05760026115a382600361211d565b6115ad9190612134565b90505b6115ba81846120b3565b92505080806115c890612041565b91505061150a565b509392505050565b60095460015b8181116116d6576000196000805b8481101561168d576009818154811061160757611607612015565b906000526020600020906007020160050154600014801561164b5750816009828154811061163757611637612015565b906000526020600020906007020160040154115b1561167b576009818154811061166357611663612015565b90600052602060002090600702016004015491508092505b8061168581612041565b9150506115ec565b5060001982146116c15782600983815481106116ab576116ab612015565b9060005260206000209060070201600501819055505b505080806116ce90612041565b9150506115de565b5050565b600b83146117215760405162461bcd60e51b81526020600482015260146024820152734d757374206861766520313120706c617965727360601b6044820152606401610432565b8082036117675760405162461bcd60e51b8152602060048201526014602482015273219030b732102b219036bab9ba103234b33332b960611b6044820152606401610432565b6000806000806000806000806000805b8c81101561199e5760008e8e8381811061179357611793612015565b6000805460015460405163eff09bd760e01b815260048101919091526020939093029490940135602483018190529450926001600160a01b0316915063eff09bd790604401600060405180830381865afa1580156117f5573d6000803e3d6000fd5b505050506040513d6000823e601f3d908101601f1916820160405261181d919081019061224b565b90506000816040015160ff16116118675760405162461bcd60e51b815260206004820152600e60248201526d24b73b30b634b210383630bcb2b960911b6044820152606401610432565b8d82036118735760019b505b8c820361187f5760019a505b60408101516118919060ff168b6120b3565b99506000816020015160038111156118ab576118ab611d4c565b036118c257886118ba816122fb565b99505061194b565b6001816020015160038111156118da576118da611d4c565b036118f157876118e9816122fb565b98505061194b565b60028160200151600381111561190957611909611d4c565b036119205786611918816122fb565b97505061194b565b60038160200151600381111561193857611938611d4c565b0361194b5785611947816122fb565b9650505b806080015160ff1660000361196c5784611964816122fb565b955050611989565b806080015160ff166001036119895783611985816122fb565b9450505b5050808061199690612041565b915050611777565b508880156119a95750875b6119f55760405162461bcd60e51b815260206004820152601860248201527f4320616e64205643206d75737420626520696e207465616d00000000000000006044820152606401610432565b6064871115611a385760405162461bcd60e51b815260206004820152600f60248201526e109d5919d95d08195e18d959591959608a1b6044820152606401610432565b60018660ff161015611a815760405162461bcd60e51b81526020600482015260126024820152714e656564206174206c65617374203120574b60701b6044820152606401610432565b60018560ff1610158015611a99575060088560ff1611155b611ad45760405162461bcd60e51b815260206004820152600c60248201526b13995959080c4b4e0810905560a21b6044820152606401610432565b60018460ff1610158015611aec575060088460ff1611155b611b265760405162461bcd60e51b815260206004820152600b60248201526a2732b2b21018969c1020a960a91b6044820152606401610432565b60018360ff1610158015611b3e575060088360ff1611155b611b7a5760405162461bcd60e51b815260206004820152600d60248201526c13995959080c4b4e081093d5d3609a1b6044820152606401610432565b600a8260ff1611158015611b925750600a8160ff1611155b611bd55760405162461bcd60e51b81526020600482015260146024820152734d61782031302066726f6d206f6e65207465616d60601b6044820152606401610432565b50505050505050505050505050565b60006003821115611bf757506000919050565b60085415611c995781600103611c25576007546008541115611c1b57600754611c1f565b6008545b92915050565b60006007546008541115611c3b57600754611c3f565b6008545b9050600081600754611c5191906120c6565b905083600203611c7a576064611c6882603c61211d565b611c729190612134565b949350505050565b83600303611c8f576064611c6882602861211d565b5060009392505050565b600654821115611cab57506000919050565b60646006611cba6001856120c6565b81548110611cca57611cca612015565b9060005260206000200154600754611ce2919061211d565b611c1f9190612134565b828054828255906000526020600020908101928215611d27579160200282015b82811115611d27578251825591602001919060010190611d0c565b50611d33929150611d37565b5090565b5b80821115611d335760008155600101611d38565b634e487b7160e01b600052602160045260246000fd5b6020810160048310611d8457634e487b7160e01b600052602160045260246000fd5b91905290565b60008083601f840112611d9c57600080fd5b50813567ffffffffffffffff811115611db457600080fd5b6020830191508360208260051b8501011115611dcf57600080fd5b9250929050565b60008060008060408587031215611dec57600080fd5b843567ffffffffffffffff80821115611e0457600080fd5b611e1088838901611d8a565b90965094506020870135915080821115611e2957600080fd5b50611e3687828801611d8a565b95989497509550505050565b600060208284031215611e5457600080fd5b5035919050565b60008060008060608587031215611e7157600080fd5b843567ffffffffffffffff811115611e8857600080fd5b611e9487828801611d8a565b90989097506020870135966040013595509350505050565b60008060408385031215611ebf57600080fd5b82356001600160a01b0381168114611ed657600080fd5b946020939093013593505050565b600081518084526020808501945080840160005b83811015611f1457815187529582019590820190600101611ef8565b509495945050505050565b6080808252855190820181905260009060209060a0840190828901845b82811015611f615781516001600160a01b031684529284019290840190600101611f3c565b50505083810382850152611f758188611ee4565b9150508281036040840152611f8a8186611ee4565b90508281036060840152611f9e8185611ee4565b979650505050505050565b6001600160a01b038716815260c060208201819052600090611fcd90830188611ee4565b90508560408301528460608301528360808301528260a0830152979650505050505050565b6020808252600990820152682737ba1030b236b4b760b91b604082015260600190565b634e487b7160e01b600052603260045260246000fd5b634e487b7160e01b600052601160045260246000fd5b6000600182016120535761205361202b565b5060010190565b81835260006001600160fb1b0383111561207357600080fd5b8260051b80836020870137939093016020019392505050565b6040815260006120a060408301868861205a565b8281036020840152611f9e81858761205a565b80820180821115611c1f57611c1f61202b565b81810381811115611c1f57611c1f61202b565b8581526080602082015260006120f360808301868861205a565b604083019490945250606001529392505050565b634e487b7160e01b600052604160045260246000fd5b8082028115828204841417611c1f57611c1f61202b565b60008261215157634e487b7160e01b600052601260045260246000fd5b500490565b60405160a0810167ffffffffffffffff8111828210171561217957612179612107565b60405290565b604051601f8201601f1916810167ffffffffffffffff811182821017156121a8576121a8612107565b604052919050565b805160ff811681146121c157600080fd5b919050565b600082601f8301126121d757600080fd5b815167ffffffffffffffff8111156121f1576121f1612107565b6020612205601f8301601f1916820161217f565b828152858284870101111561221957600080fd5b60005b8381101561223757858101830151828201840152820161221c565b506000928101909101919091529392505050565b60006020828403121561225d57600080fd5b815167ffffffffffffffff8082111561227557600080fd5b9083019060a0828603121561228957600080fd5b612291612156565b825181526020830151600481106122a757600080fd5b60208201526122b8604084016121b0565b60408201526060830151828111156122cf57600080fd5b6122db878286016121c6565b6060830152506122ed608084016121b0565b608082015295945050505050565b600060ff821660ff81036123115761231161202b565b6001019291505056fea2646970667358221220254d4c530dcd7550526133020762cb02c9f335eeee53d99c0ace1a359ade2f6b64736f6c63430008140033a2646970667358221220f3e4cfeb09a864af1d492f01750e78d72db0fea61f76c3142fb2517b15fa4eba64736f6c63430008140033",
  "linkReferences": {},
  "deployedLinkReferences": {}
}